{
  "contractName": "genz",
  "abi": [
    {
      "inputs": [],
      "payable": true,
      "stateMutability": "payable",
      "type": "constructor"
    },
    {
      "constant": true,
      "inputs": [
        {
          "internalType": "address",
          "name": "",
          "type": "address"
        }
      ],
      "name": "auth",
      "outputs": [
        {
          "internalType": "address",
          "name": "",
          "type": "address"
        }
      ],
      "payable": false,
      "stateMutability": "view",
      "type": "function"
    },
    {
      "constant": true,
      "inputs": [
        {
          "internalType": "uint256",
          "name": "",
          "type": "uint256"
        }
      ],
      "name": "cropTypes",
      "outputs": [
        {
          "internalType": "string",
          "name": "name",
          "type": "string"
        },
        {
          "internalType": "uint256",
          "name": "premiumPerAcre",
          "type": "uint256"
        },
        {
          "internalType": "uint256",
          "name": "coveragePerAcre",
          "type": "uint256"
        }
      ],
      "payable": false,
      "stateMutability": "view",
      "type": "function"
    },
    {
      "constant": true,
      "inputs": [
        {
          "internalType": "address",
          "name": "",
          "type": "address"
        }
      ],
      "name": "deets",
      "outputs": [
        {
          "internalType": "uint256",
          "name": "",
          "type": "uint256"
        }
      ],
      "payable": false,
      "stateMutability": "view",
      "type": "function"
    },
    {
      "constant": true,
      "inputs": [
        {
          "internalType": "uint256",
          "name": "",
          "type": "uint256"
        }
      ],
      "name": "details",
      "outputs": [
        {
          "internalType": "uint256",
          "name": "aadhaar",
          "type": "uint256"
        },
        {
          "internalType": "string",
          "name": "name",
          "type": "string"
        },
        {
          "internalType": "address",
          "name": "id",
          "type": "address"
        },
        {
          "internalType": "uint256",
          "name": "role",
          "type": "uint256"
        },
        {
          "internalType": "int256",
          "name": "bal",
          "type": "int256"
        }
      ],
      "payable": false,
      "stateMutability": "view",
      "type": "function"
    },
    {
      "constant": true,
      "inputs": [],
      "name": "payoutAmount",
      "outputs": [
        {
          "internalType": "uint256",
          "name": "",
          "type": "uint256"
        }
      ],
      "payable": false,
      "stateMutability": "view",
      "type": "function"
    },
    {
      "constant": true,
      "inputs": [
        {
          "internalType": "uint256",
          "name": "",
          "type": "uint256"
        }
      ],
      "name": "policies",
      "outputs": [
        {
          "internalType": "uint256",
          "name": "policyId",
          "type": "uint256"
        },
        {
          "internalType": "address payable",
          "name": "user",
          "type": "address"
        },
        {
          "internalType": "address payable",
          "name": "cover",
          "type": "address"
        },
        {
          "internalType": "uint256",
          "name": "role",
          "type": "uint256"
        },
        {
          "internalType": "uint256",
          "name": "premium",
          "type": "uint256"
        },
        {
          "internalType": "uint256",
          "name": "area",
          "type": "uint256"
        },
        {
          "internalType": "uint256",
          "name": "duration",
          "type": "uint256"
        },
        {
          "internalType": "uint256",
          "name": "startTime",
          "type": "uint256"
        },
        {
          "internalType": "uint256",
          "name": "endTime",
          "type": "uint256"
        },
        {
          "internalType": "string",
          "name": "location",
          "type": "string"
        },
        {
          "internalType": "uint256",
          "name": "coverageAmount",
          "type": "uint256"
        },
        {
          "internalType": "bool",
          "name": "forFlood",
          "type": "bool"
        },
        {
          "internalType": "uint8",
          "name": "cropId",
          "type": "uint8"
        },
        {
          "internalType": "enum genz.policyState",
          "name": "state",
          "type": "uint8"
        }
      ],
      "payable": false,
      "stateMutability": "view",
      "type": "function"
    },
    {
      "constant": true,
      "inputs": [
        {
          "internalType": "address",
          "name": "",
          "type": "address"
        }
      ],
      "name": "request",
      "outputs": [
        {
          "internalType": "address",
          "name": "",
          "type": "address"
        }
      ],
      "payable": false,
      "stateMutability": "view",
      "type": "function"
    },
    {
      "constant": true,
      "inputs": [
        {
          "internalType": "address",
          "name": "",
          "type": "address"
        },
        {
          "internalType": "uint256",
          "name": "",
          "type": "uint256"
        }
      ],
      "name": "userPolicies",
      "outputs": [
        {
          "internalType": "uint256",
          "name": "",
          "type": "uint256"
        }
      ],
      "payable": false,
      "stateMutability": "view",
      "type": "function"
    },
    {
      "constant": false,
      "inputs": [
        {
          "internalType": "uint256",
          "name": "aadhaar",
          "type": "uint256"
        },
        {
          "internalType": "string",
          "name": "name",
          "type": "string"
        },
        {
          "internalType": "uint256",
          "name": "role",
          "type": "uint256"
        }
      ],
      "name": "_register",
      "outputs": [],
      "payable": false,
      "stateMutability": "nonpayable",
      "type": "function"
    },
    {
      "constant": true,
      "inputs": [],
      "name": "getDetails",
      "outputs": [
        {
          "internalType": "uint256",
          "name": "",
          "type": "uint256"
        },
        {
          "internalType": "string",
          "name": "",
          "type": "string"
        },
        {
          "internalType": "uint256",
          "name": "",
          "type": "uint256"
        }
      ],
      "payable": false,
      "stateMutability": "view",
      "type": "function"
    },
    {
      "constant": true,
      "inputs": [],
      "name": "getBalanceUser",
      "outputs": [
        {
          "internalType": "int256",
          "name": "",
          "type": "int256"
        }
      ],
      "payable": false,
      "stateMutability": "view",
      "type": "function"
    },
    {
      "constant": false,
      "inputs": [
        {
          "internalType": "address",
          "name": "farmerAddress",
          "type": "address"
        }
      ],
      "name": "requestFarmer",
      "outputs": [],
      "payable": false,
      "stateMutability": "nonpayable",
      "type": "function"
    },
    {
      "constant": false,
      "inputs": [],
      "name": "approveInvestor",
      "outputs": [
        {
          "internalType": "uint256",
          "name": "",
          "type": "uint256"
        },
        {
          "internalType": "string",
          "name": "",
          "type": "string"
        },
        {
          "internalType": "uint256",
          "name": "",
          "type": "uint256"
        }
      ],
      "payable": false,
      "stateMutability": "nonpayable",
      "type": "function"
    },
    {
      "constant": true,
      "inputs": [
        {
          "internalType": "uint256",
          "name": "_policyId",
          "type": "uint256"
        }
      ],
      "name": "getPolicyDetails",
      "outputs": [
        {
          "internalType": "uint256",
          "name": "",
          "type": "uint256"
        },
        {
          "internalType": "uint256",
          "name": "",
          "type": "uint256"
        },
        {
          "internalType": "uint256",
          "name": "",
          "type": "uint256"
        },
        {
          "internalType": "uint256",
          "name": "",
          "type": "uint256"
        },
        {
          "internalType": "uint256",
          "name": "",
          "type": "uint256"
        },
        {
          "internalType": "string",
          "name": "",
          "type": "string"
        },
        {
          "internalType": "uint256",
          "name": "",
          "type": "uint256"
        },
        {
          "internalType": "enum genz.policyState",
          "name": "",
          "type": "uint8"
        }
      ],
      "payable": false,
      "stateMutability": "view",
      "type": "function"
    },
    {
      "constant": false,
      "inputs": [
        {
          "internalType": "uint256",
          "name": "_area",
          "type": "uint256"
        },
        {
          "internalType": "string",
          "name": "_location",
          "type": "string"
        },
        {
          "internalType": "bool",
          "name": "_forFlood",
          "type": "bool"
        },
        {
          "internalType": "uint8",
          "name": "_cropId",
          "type": "uint8"
        },
        {
          "internalType": "uint256",
          "name": "_duration",
          "type": "uint256"
        }
      ],
      "name": "newPolicy",
      "outputs": [],
      "payable": true,
      "stateMutability": "payable",
      "type": "function"
    },
    {
      "constant": false,
      "inputs": [
        {
          "internalType": "uint256",
          "name": "_policyId",
          "type": "uint256"
        }
      ],
      "name": "coverForPolicy",
      "outputs": [],
      "payable": true,
      "stateMutability": "payable",
      "type": "function"
    },
    {
      "constant": true,
      "inputs": [],
      "name": "getBalance",
      "outputs": [
        {
          "internalType": "uint256",
          "name": "",
          "type": "uint256"
        }
      ],
      "payable": false,
      "stateMutability": "view",
      "type": "function"
    },
    {
      "constant": false,
      "inputs": [
        {
          "internalType": "uint256",
          "name": "_policyId",
          "type": "uint256"
        }
      ],
      "name": "claim",
      "outputs": [],
      "payable": false,
      "stateMutability": "nonpayable",
      "type": "function"
    }
  ],
  "bytecode": "0x60806040526007600555611388341462000065576040517f08c379a0000000000000000000000000000000000000000000000000000000008152600401808060200182810382526021815260200180620035826021913960400191505060405180910390fd5b620000b160006040518060400160405280600481526020017f7261626900000000000000000000000000000000000000000000000000000000815250600160076200011360201b60201c565b620000fd60016040518060400160405280600681526020017f6b686172696600000000000000000000000000000000000000000000000000008152506002600a6200011360201b60201c565b346004600082825401925050819055506200025d565b6200011d6200018d565b60405180606001604052808581526020018481526020018381525090508060098660ff16600281106200014c57fe5b6003020160008201518160000190805190602001906200016e929190620001ae565b5060208201518160010155604082015181600201559050505050505050565b60405180606001604052806060815260200160008152602001600081525090565b828054600181600116156101000203166002900490600052602060002090601f016020900481019282601f10620001f157805160ff191683800117855562000222565b8280016001018555821562000222579182015b828111156200022157825182559160200191906001019062000204565b5b50905062000231919062000235565b5090565b6200025a91905b80821115620002565760008160009055506001016200023c565b5090565b90565b613315806200026d6000396000f3fe6080604052600436106101095760003560e01c80635a8f29ed11610095578063cd5d211811610064578063cd5d2118146107ab578063d16a99391461083c578063d3e894831461086a578063fa141281146109e9578063fbbf93a014610ad157610109565b80635a8f29ed146104cf5780636b46c8c314610591578063a005ec7a146105bc578063cc038010146106b857610109565b8063379607f5116100dc578063379607f5146102935780633d36adc5146102ce57806343fd94a71461033d57806349c2589a1461041957806356634caa1461046a57610109565b806312065fe01461010e578063134dc69e1461013957806327c78c42146101d757806331dacf7714610268575b600080fd5b34801561011a57600080fd5b50610123610b6f565b6040518082815260200191505060405180910390f35b34801561014557600080fd5b5061014e610b79565b6040518084815260200180602001838152602001828103825284818151815260200191508051906020019080838360005b8381101561019a57808201518184015260208101905061017f565b50505050905090810190601f1680156101c75780820380516001836020036101000a031916815260200191505b5094505050505060405180910390f35b3480156101e357600080fd5b50610226600480360360208110156101fa57600080fd5b81019080803573ffffffffffffffffffffffffffffffffffffffff169060200190929190505050610e8a565b604051808273ffffffffffffffffffffffffffffffffffffffff1673ffffffffffffffffffffffffffffffffffffffff16815260200191505060405180910390f35b34801561027457600080fd5b5061027d610ebd565b6040518082815260200191505060405180910390f35b34801561029f57600080fd5b506102cc600480360360208110156102b657600080fd5b8101908080359060200190929190505050610f22565b005b3480156102da57600080fd5b50610327600480360360408110156102f157600080fd5b81019080803573ffffffffffffffffffffffffffffffffffffffff16906020019092919080359060200190929190505050611ce5565b6040518082815260200191505060405180910390f35b34801561034957600080fd5b506104176004803603606081101561036057600080fd5b81019080803590602001909291908035906020019064010000000081111561038757600080fd5b82018360208201111561039957600080fd5b803590602001918460018302840111640100000000831117156103bb57600080fd5b91908080601f016020809104026020016040519081016040528093929190818152602001838380828437600081840152601f19601f82011690508083019250505050505050919291929080359060200190929190505050611d13565b005b34801561042557600080fd5b506104686004803603602081101561043c57600080fd5b81019080803573ffffffffffffffffffffffffffffffffffffffff169060200190929190505050611e54565b005b34801561047657600080fd5b506104b96004803603602081101561048d57600080fd5b81019080803573ffffffffffffffffffffffffffffffffffffffff169060200190929190505050611fa8565b6040518082815260200191505060405180910390f35b3480156104db57600080fd5b50610508600480360360208110156104f257600080fd5b8101908080359060200190929190505050611fc0565b6040518080602001848152602001838152602001828103825285818151815260200191508051906020019080838360005b83811015610554578082015181840152602081019050610539565b50505050905090810190601f1680156105815780820380516001836020036101000a031916815260200191505b5094505050505060405180910390f35b34801561059d57600080fd5b506105a6612085565b6040518082815260200191505060405180910390f35b3480156105c857600080fd5b506105f5600480360360208110156105df57600080fd5b810190808035906020019092919050505061208b565b60405180868152602001806020018573ffffffffffffffffffffffffffffffffffffffff1673ffffffffffffffffffffffffffffffffffffffff168152602001848152602001838152602001828103825286818151815260200191508051906020019080838360005b8381101561067957808201518184015260208101905061065e565b50505050905090810190601f1680156106a65780820380516001836020036101000a031916815260200191505b50965050505050505060405180910390f35b3480156106c457600080fd5b506106f1600480360360208110156106db57600080fd5b8101908080359060200190929190505050612186565b604051808981526020018881526020018781526020018681526020018581526020018060200184815260200183600381111561072957fe5b60ff168152602001828103825285818151815260200191508051906020019080838360005b8381101561076957808201518184015260208101905061074e565b50505050905090810190601f1680156107965780820380516001836020036101000a031916815260200191505b50995050505050505050505060405180910390f35b3480156107b757600080fd5b506107fa600480360360208110156107ce57600080fd5b81019080803573ffffffffffffffffffffffffffffffffffffffff16906020019092919050505061254f565b604051808273ffffffffffffffffffffffffffffffffffffffff1673ffffffffffffffffffffffffffffffffffffffff16815260200191505060405180910390f35b6108686004803603602081101561085257600080fd5b8101908080359060200190929190505050612582565b005b34801561087657600080fd5b506108a36004803603602081101561088d57600080fd5b8101908080359060200190929190505050612818565b604051808f81526020018e73ffffffffffffffffffffffffffffffffffffffff1673ffffffffffffffffffffffffffffffffffffffff1681526020018d73ffffffffffffffffffffffffffffffffffffffff1673ffffffffffffffffffffffffffffffffffffffff1681526020018c81526020018b81526020018a815260200189815260200188815260200187815260200180602001868152602001851515151581526020018460ff1660ff16815260200183600381111561096157fe5b60ff168152602001828103825287818151815260200191508051906020019080838360005b838110156109a1578082015181840152602081019050610986565b50505050905090810190601f1680156109ce5780820380516001836020036101000a031916815260200191505b509f5050505050505050505050505050505060405180910390f35b610acf600480360360a08110156109ff57600080fd5b810190808035906020019092919080359060200190640100000000811115610a2657600080fd5b820183602082011115610a3857600080fd5b80359060200191846001830284011164010000000083111715610a5a57600080fd5b91908080601f016020809104026020016040519081016040528093929190818152602001838380828437600081840152601f19601f820116905080830192505050505050509192919290803515159060200190929190803560ff16906020019092919080359060200190929190505050612990565b005b348015610add57600080fd5b50610ae6612d8e565b6040518084815260200180602001838152602001828103825284818151815260200191508051906020019080838360005b83811015610b32578082015181840152602081019050610b17565b50505050905090810190601f168015610b5f5780820380516001836020036101000a031916815260200191505b5094505050505060405180910390f35b6000600454905090565b600060606000806002600360003373ffffffffffffffffffffffffffffffffffffffff1673ffffffffffffffffffffffffffffffffffffffff1681526020019081526020016000205481548110610bcc57fe5b90600052602060002090600502016003015414610be857600080fd5b60008060003373ffffffffffffffffffffffffffffffffffffffff1673ffffffffffffffffffffffffffffffffffffffff16815260200190815260200160002060009054906101000a900473ffffffffffffffffffffffffffffffffffffffff16905080600160003373ffffffffffffffffffffffffffffffffffffffff1673ffffffffffffffffffffffffffffffffffffffff16815260200190815260200160002060006101000a81548173ffffffffffffffffffffffffffffffffffffffff021916908373ffffffffffffffffffffffffffffffffffffffff1602179055506002600360003373ffffffffffffffffffffffffffffffffffffffff1673ffffffffffffffffffffffffffffffffffffffff1681526020019081526020016000205481548110610d1557fe5b9060005260206000209060050201600001546002600360003373ffffffffffffffffffffffffffffffffffffffff1673ffffffffffffffffffffffffffffffffffffffff1681526020019081526020016000205481548110610d7357fe5b90600052602060002090600502016001016002600360003373ffffffffffffffffffffffffffffffffffffffff1673ffffffffffffffffffffffffffffffffffffffff1681526020019081526020016000205481548110610dd057fe5b906000526020600020906005020160030154818054600181600116156101000203166002900480601f016020809104026020016040519081016040528092919081815260200182805460018160011615610100020316600290048015610e775780601f10610e4c57610100808354040283529160200191610e77565b820191906000526020600020905b815481529060010190602001808311610e5a57829003601f168201915b5050505050915093509350935050909192565b60006020528060005260406000206000915054906101000a900473ffffffffffffffffffffffffffffffffffffffff1681565b60006002600360003373ffffffffffffffffffffffffffffffffffffffff1673ffffffffffffffffffffffffffffffffffffffff1681526020019081526020016000205481548110610f0b57fe5b906000526020600020906005020160040154905090565b60088181548110610f2f57fe5b90600052602060002090600c020160010160009054906101000a900473ffffffffffffffffffffffffffffffffffffffff1673ffffffffffffffffffffffffffffffffffffffff163373ffffffffffffffffffffffffffffffffffffffff1614611001576040517f08c379a00000000000000000000000000000000000000000000000000000000081526004018080602001828103825260138152602001807f55736572204e6f7420417574686f72697a65640000000000000000000000000081525060200191505060405180910390fd5b6001600381111561100e57fe5b6008828154811061101b57fe5b90600052602060002090600c0201600b0160029054906101000a900460ff16600381111561104557fe5b146110b8576040517f08c379a00000000000000000000000000000000000000000000000000000000081526004018080602001828103825260118152602001807f506f6c696379204e6f742041637469766500000000000000000000000000000081525060200191505060405180910390fd5b600881815481106110c557fe5b90600052602060002090600c02016008015442111561118c576003600882815481106110ed57fe5b90600052602060002090600c0201600b0160026101000a81548160ff0219169083600381111561111957fe5b02179055506040517f08c379a000000000000000000000000000000000000000000000000000000000815260040180806020018281038252601a8152602001807f506f6c696379277320706572696f642068617320456e6465642e00000000000081525060200191505060405180910390fd5b806006819055506008600654815481106111a257fe5b90600052602060002090600c0201600b0160009054906101000a900460ff161561175657600a60ff1660055410156113bb576008600654815481106111e357fe5b90600052602060002090600c0201600a015460648060ff1660086006548154811061120a57fe5b90600052602060002090600c020160040154028161122457fe5b040160078190555060086006548154811061123b57fe5b90600052602060002090600c020160020160009054906101000a900473ffffffffffffffffffffffffffffffffffffffff1673ffffffffffffffffffffffffffffffffffffffff166108fc6007549081150290604051600060405180830381858888f193505050501580156112b4573d6000803e3d6000fd5b5060026008600654815481106112c657fe5b90600052602060002090600c0201600b0160026101000a81548160ff021916908360038111156112f257fe5b021790555060075460046000828254039250508190555060075460026003600060086006548154811061132157fe5b90600052602060002090600c020160020160009054906101000a900473ffffffffffffffffffffffffffffffffffffffff1673ffffffffffffffffffffffffffffffffffffffff1673ffffffffffffffffffffffffffffffffffffffff168152602001908152602001600020548154811061139857fe5b906000526020600020906005020160040160008282540192505081905550611751565b600f60ff16600554111561158e5760648060ff166008600654815481106113de57fe5b90600052602060002090600c0201600a015402816113f857fe5b0460078190555060086006548154811061140e57fe5b90600052602060002090600c020160010160009054906101000a900473ffffffffffffffffffffffffffffffffffffffff1673ffffffffffffffffffffffffffffffffffffffff166108fc6007549081150290604051600060405180830381858888f19350505050158015611487573d6000803e3d6000fd5b50600260086006548154811061149957fe5b90600052602060002090600c0201600b0160026101000a81548160ff021916908360038111156114c557fe5b02179055506007546004600082825403925050819055506007546002600360006008600654815481106114f457fe5b90600052602060002090600c020160010160009054906101000a900473ffffffffffffffffffffffffffffffffffffffff1673ffffffffffffffffffffffffffffffffffffffff1673ffffffffffffffffffffffffffffffffffffffff168152602001908152602001600020548154811061156b57fe5b906000526020600020906005020160040160008282540192505081905550611750565b6064603260ff166008600654815481106115a457fe5b90600052602060002090600c0201600a015402816115be57fe5b046007819055506008600654815481106115d457fe5b90600052602060002090600c020160010160009054906101000a900473ffffffffffffffffffffffffffffffffffffffff1673ffffffffffffffffffffffffffffffffffffffff166108fc6007549081150290604051600060405180830381858888f1935050505015801561164d573d6000803e3d6000fd5b50600260086006548154811061165f57fe5b90600052602060002090600c0201600b0160026101000a81548160ff0219169083600381111561168b57fe5b02179055506007546004600082825403925050819055506007546002600360006008600654815481106116ba57fe5b90600052602060002090600c020160010160009054906101000a900473ffffffffffffffffffffffffffffffffffffffff1673ffffffffffffffffffffffffffffffffffffffff1673ffffffffffffffffffffffffffffffffffffffff168152602001908152602001600020548154811061173157fe5b9060005260206000209060050201600401600082825401925050819055505b5b611ce2565b600560ff16600554111561194b5760086006548154811061177357fe5b90600052602060002090600c0201600a015460648060ff1660086006548154811061179a57fe5b90600052602060002090600c02016004015402816117b457fe5b04016007819055506008600654815481106117cb57fe5b90600052602060002090600c020160020160009054906101000a900473ffffffffffffffffffffffffffffffffffffffff1673ffffffffffffffffffffffffffffffffffffffff166108fc6007549081150290604051600060405180830381858888f19350505050158015611844573d6000803e3d6000fd5b50600260086006548154811061185657fe5b90600052602060002090600c0201600b0160026101000a81548160ff0219169083600381111561188257fe5b02179055506007546004600082825403925050819055506007546002600360006008600654815481106118b157fe5b90600052602060002090600c020160020160009054906101000a900473ffffffffffffffffffffffffffffffffffffffff1673ffffffffffffffffffffffffffffffffffffffff1673ffffffffffffffffffffffffffffffffffffffff168152602001908152602001600020548154811061192857fe5b906000526020600020906005020160040160008282540192505081905550611ce1565b600260ff166005541015611b1e5760648060ff1660086006548154811061196e57fe5b90600052602060002090600c0201600a0154028161198857fe5b0460078190555060086006548154811061199e57fe5b90600052602060002090600c020160010160009054906101000a900473ffffffffffffffffffffffffffffffffffffffff1673ffffffffffffffffffffffffffffffffffffffff166108fc6007549081150290604051600060405180830381858888f19350505050158015611a17573d6000803e3d6000fd5b506002600860065481548110611a2957fe5b90600052602060002090600c0201600b0160026101000a81548160ff02191690836003811115611a5557fe5b0217905550600754600460008282540392505081905550600754600260036000600860065481548110611a8457fe5b90600052602060002090600c020160010160009054906101000a900473ffffffffffffffffffffffffffffffffffffffff1673ffffffffffffffffffffffffffffffffffffffff1673ffffffffffffffffffffffffffffffffffffffff1681526020019081526020016000205481548110611afb57fe5b906000526020600020906005020160040160008282540192505081905550611ce0565b6064603260ff16600860065481548110611b3457fe5b90600052602060002090600c0201600a01540281611b4e57fe5b04600781905550600860065481548110611b6457fe5b90600052602060002090600c020160010160009054906101000a900473ffffffffffffffffffffffffffffffffffffffff1673ffffffffffffffffffffffffffffffffffffffff166108fc6007549081150290604051600060405180830381858888f19350505050158015611bdd573d6000803e3d6000fd5b506002600860065481548110611bef57fe5b90600052602060002090600c0201600b0160026101000a81548160ff02191690836003811115611c1b57fe5b0217905550600754600460008282540392505081905550600754600260036000600860065481548110611c4a57fe5b90600052602060002090600c020160010160009054906101000a900473ffffffffffffffffffffffffffffffffffffffff1673ffffffffffffffffffffffffffffffffffffffff1673ffffffffffffffffffffffffffffffffffffffff1681526020019081526020016000205481548110611cc157fe5b9060005260206000209060050201600401600082825401925050819055505b5b5b50565b600f6020528160005260406000208181548110611cfe57fe5b90600052602060002001600091509150505481565b60026040518060a001604052808581526020018481526020013373ffffffffffffffffffffffffffffffffffffffff168152602001838152602001600081525090806001815401808255809150509060018203906000526020600020906005020160009091929091909150600082015181600001556020820151816001019080519060200190611da4929190612f54565b5060408201518160020160006101000a81548173ffffffffffffffffffffffffffffffffffffffff021916908373ffffffffffffffffffffffffffffffffffffffff1602179055506060820151816003015560808201518160040155505050600160028054905003600360003373ffffffffffffffffffffffffffffffffffffffff1673ffffffffffffffffffffffffffffffffffffffff16815260200190815260200160002081905550505050565b60006002600360008473ffffffffffffffffffffffffffffffffffffffff1673ffffffffffffffffffffffffffffffffffffffff1681526020019081526020016000205481548110611ea257fe5b90600052602060002090600502016003015414611ebe57600080fd5b60016002600360003373ffffffffffffffffffffffffffffffffffffffff1673ffffffffffffffffffffffffffffffffffffffff1681526020019081526020016000205481548110611f0c57fe5b90600052602060002090600502016003015414611f2857600080fd5b336000808373ffffffffffffffffffffffffffffffffffffffff1673ffffffffffffffffffffffffffffffffffffffff16815260200190815260200160002060006101000a81548173ffffffffffffffffffffffffffffffffffffffff021916908373ffffffffffffffffffffffffffffffffffffffff16021790555050565b60036020528060005260406000206000915090505481565b60098160028110611fcd57fe5b60030201600091509050806000018054600181600116156101000203166002900480601f01602080910402602001604051908101604052809291908181526020018280546001816001161561010002031660029004801561206f5780601f106120445761010080835404028352916020019161206f565b820191906000526020600020905b81548152906001019060200180831161205257829003601f168201915b5050505050908060010154908060020154905083565b60075481565b6002818154811061209857fe5b9060005260206000209060050201600091509050806000015490806001018054600181600116156101000203166002900480601f01602080910402602001604051908101604052809291908181526020018280546001816001161561010002031660029004801561214a5780601f1061211f5761010080835404028352916020019161214a565b820191906000526020600020905b81548152906001019060200180831161212d57829003601f168201915b5050505050908060020160009054906101000a900473ffffffffffffffffffffffffffffffffffffffff16908060030154908060040154905085565b600080600080600060606000803373ffffffffffffffffffffffffffffffffffffffff1660088a815481106121b757fe5b90600052602060002090600c020160010160009054906101000a900473ffffffffffffffffffffffffffffffffffffffff1673ffffffffffffffffffffffffffffffffffffffff16148061227457503373ffffffffffffffffffffffffffffffffffffffff1660088a8154811061222a57fe5b90600052602060002090600c020160020160009054906101000a900473ffffffffffffffffffffffffffffffffffffffff1673ffffffffffffffffffffffffffffffffffffffff16145b6122c9576040517f08c379a00000000000000000000000000000000000000000000000000000000081526004018080602001828103825260288152602001806132b96028913960400191505060405180910390fd5b6122d1612fd4565b60088a815481106122de57fe5b90600052602060002090600c0201604051806101c0016040529081600082015481526020016001820160009054906101000a900473ffffffffffffffffffffffffffffffffffffffff1673ffffffffffffffffffffffffffffffffffffffff1673ffffffffffffffffffffffffffffffffffffffff1681526020016002820160009054906101000a900473ffffffffffffffffffffffffffffffffffffffff1673ffffffffffffffffffffffffffffffffffffffff1673ffffffffffffffffffffffffffffffffffffffff168152602001600382015481526020016004820154815260200160058201548152602001600682015481526020016007820154815260200160088201548152602001600982018054600181600116156101000203166002900480601f0160208091040260200160405190810160405280929190818152602001828054600181600116156101000203166002900480156124835780601f1061245857610100808354040283529160200191612483565b820191906000526020600020905b81548152906001019060200180831161246657829003601f168201915b50505050508152602001600a8201548152602001600b820160009054906101000a900460ff16151515158152602001600b820160019054906101000a900460ff1660ff1660ff168152602001600b820160029054906101000a900460ff1660038111156124ec57fe5b60038111156124f757fe5b81525050905080608001518160a001518260e00151836101000151846101400151856101200151866101800151876101a001518292508160ff1691509850985098509850985098509850985050919395975091939597565b60016020528060005260406000206000915054906101000a900473ffffffffffffffffffffffffffffffffffffffff1681565b60016002600360003373ffffffffffffffffffffffffffffffffffffffff1673ffffffffffffffffffffffffffffffffffffffff16815260200190815260200160002054815481106125d057fe5b90600052602060002090600502016003015414612655576040517f08c379a00000000000000000000000000000000000000000000000000000000081526004018080602001828103825260208152602001807f4f6e6c7920696e766573746f72732063616e2070726f76696465206d6f6e657981525060200191505060405180910390fd5b60006008828154811061266457fe5b90600052602060002090600c0201905080600a015434146126ed576040517f08c379a00000000000000000000000000000000000000000000000000000000081526004018080602001828103825260168152602001807f496e636f727265637420436f76657220416d6f756e740000000000000000000081525060200191505060405180910390fd5b346002600360003373ffffffffffffffffffffffffffffffffffffffff1673ffffffffffffffffffffffffffffffffffffffff168152602001908152602001600020548154811061273a57fe5b90600052602060002090600502016004016000828254039250508190555034600460008282540192505081905550600f60003373ffffffffffffffffffffffffffffffffffffffff1673ffffffffffffffffffffffffffffffffffffffff168152602001908152602001600020829080600181540180825580915050906001820390600052602060002001600090919290919091505550338160020160006101000a81548173ffffffffffffffffffffffffffffffffffffffff021916908373ffffffffffffffffffffffffffffffffffffffff1602179055505050565b6008818154811061282557fe5b90600052602060002090600c02016000915090508060000154908060010160009054906101000a900473ffffffffffffffffffffffffffffffffffffffff16908060020160009054906101000a900473ffffffffffffffffffffffffffffffffffffffff1690806003015490806004015490806005015490806006015490806007015490806008015490806009018054600181600116156101000203166002900480601f0160208091040260200160405190810160405280929190818152602001828054600181600116156101000203166002900480156129475780601f1061291c57610100808354040283529160200191612947565b820191906000526020600020905b81548152906001019060200180831161292a57829003601f168201915b50505050509080600a01549080600b0160009054906101000a900460ff169080600b0160019054906101000a900460ff169080600b0160029054906101000a900460ff1690508e565b60006002600360003373ffffffffffffffffffffffffffffffffffffffff1673ffffffffffffffffffffffffffffffffffffffff16815260200190815260200160002054815481106129de57fe5b90600052602060002090600502016003015414612a46576040517f08c379a00000000000000000000000000000000000000000000000000000000081526004018080602001828103825260218152602001806132986021913960400191505060405180910390fd5b8460098360ff1660028110612a5757fe5b6003020160010154023414612ad4576040517f08c379a00000000000000000000000000000000000000000000000000000000081526004018080602001828103825260188152602001807f496e636f7272656374205072656d69756d20416d6f756e74000000000000000081525060200191505060405180910390fd5b34600460008282540192505081905550346002600360003373ffffffffffffffffffffffffffffffffffffffff1673ffffffffffffffffffffffffffffffffffffffff1681526020019081526020016000205481548110612b3157fe5b906000526020600020906005020160040160008282540392505081905550600060088054809190600101612b65919061307f565b9050600f60003373ffffffffffffffffffffffffffffffffffffffff1673ffffffffffffffffffffffffffffffffffffffff168152602001908152602001600020819080600181540180825580915050906001820390600052602060002001600090919290919091505550600060088281548110612bdf57fe5b90600052602060002090600c02019050338160010160006101000a81548173ffffffffffffffffffffffffffffffffffffffff021916908373ffffffffffffffffffffffffffffffffffffffff1602179055506002600360003373ffffffffffffffffffffffffffffffffffffffff1673ffffffffffffffffffffffffffffffffffffffff1681526020019081526020016000205481548110612c7e57fe5b90600052602060002090600502016003015481600301819055508660098560ff1660028110612ca957fe5b6003020160010154028160040181905550868160050181905550428160070181905550828160060181905550603c806018601e86020202024201816008018190555085816009019080519060200190612d039291906130b1565b508660098560ff1660028110612d1557fe5b60030201600201540281600a01819055508481600b0160006101000a81548160ff0219169083151502179055508381600b0160016101000a81548160ff021916908360ff160217905550600181600b0160026101000a81548160ff02191690836003811115612d8057fe5b021790555050505050505050565b6000606060006002600360003373ffffffffffffffffffffffffffffffffffffffff1673ffffffffffffffffffffffffffffffffffffffff1681526020019081526020016000205481548110612de057fe5b9060005260206000209060050201600001546002600360003373ffffffffffffffffffffffffffffffffffffffff1673ffffffffffffffffffffffffffffffffffffffff1681526020019081526020016000205481548110612e3e57fe5b90600052602060002090600502016001016002600360003373ffffffffffffffffffffffffffffffffffffffff1673ffffffffffffffffffffffffffffffffffffffff1681526020019081526020016000205481548110612e9b57fe5b906000526020600020906005020160030154818054600181600116156101000203166002900480601f016020809104026020016040519081016040528092919081815260200182805460018160011615610100020316600290048015612f425780601f10612f1757610100808354040283529160200191612f42565b820191906000526020600020905b815481529060010190602001808311612f2557829003601f168201915b50505050509150925092509250909192565b828054600181600116156101000203166002900490600052602060002090601f016020900481019282601f10612f9557805160ff1916838001178555612fc3565b82800160010185558215612fc3579182015b82811115612fc2578251825591602001919060010190612fa7565b5b509050612fd09190613131565b5090565b604051806101c0016040528060008152602001600073ffffffffffffffffffffffffffffffffffffffff168152602001600073ffffffffffffffffffffffffffffffffffffffff1681526020016000815260200160008152602001600081526020016000815260200160008152602001600081526020016060815260200160008152602001600015158152602001600060ff1681526020016000600381111561307957fe5b81525090565b8154818355818111156130ac57600c0281600c0283600052602060002091820191016130ab9190613156565b5b505050565b828054600181600116156101000203166002900490600052602060002090601f016020900481019282601f106130f257805160ff1916838001178555613120565b82800160010185558215613120579182015b8281111561311f578251825591602001919060010190613104565b5b50905061312d9190613131565b5090565b61315391905b8082111561314f576000816000905550600101613137565b5090565b90565b61324c91905b80821115613248576000808201600090556001820160006101000a81549073ffffffffffffffffffffffffffffffffffffffff02191690556002820160006101000a81549073ffffffffffffffffffffffffffffffffffffffff02191690556003820160009055600482016000905560058201600090556006820160009055600782016000905560088201600090556009820160006131fb919061324f565b600a820160009055600b820160006101000a81549060ff0219169055600b820160016101000a81549060ff0219169055600b820160026101000a81549060ff021916905550600c0161315c565b5090565b90565b50805460018160011615610100020316600290046000825580601f106132755750613294565b601f0160209004906000526020600020908101906132939190613131565b5b5056fe4f6e6c79206661726d65722063616e206d616b652061206e657720706f6c6963794f6e6c7920617574686f72697a65642070656f706c6520616c6c6f77656420746f20616363657373a265627a7a72315820325d026a118846db59babd55d2ea31ee58809c69409fe83e4dcab2bc7c740b6b64736f6c63430005100032353030302077656920696e697469616c2066756e64696e67207265717569726564",
  "source": "pragma solidity >=0.4.24;\r\n\r\n// import \"./DateTime.sol\";\r\n// import \"./strings.sol\";\r\n\r\ncontract genz{\r\n\r\n    struct Details{\r\n        uint aadhaar;\r\n        string name;\r\n        address id;\r\n        uint role;\r\n        int bal;\r\n    }\r\n\r\n    mapping (address => address) public request;\r\n    mapping (address => address) public auth;\r\n    Details [] public details;\r\n    mapping (address => uint) public deets;\r\n\r\n    function _register(uint aadhaar, string memory name, uint role) public {\r\n        details.push(Details(aadhaar,name, msg.sender, role, 0)) ;\r\n        deets[msg.sender]=details.length-1;\r\n    }\r\n\r\n    function getDetails() public view returns (uint, string memory, uint) {\r\n        return (details[deets[msg.sender]].aadhaar, details[deets[msg.sender]].name, details[deets[msg.sender]].role );\r\n    }\r\n    \r\n    function getBalanceUser() public view returns(int){\r\n        return details[deets[msg.sender]].bal;\r\n    }\r\n    \r\n    function requestFarmer(address farmerAddress) public {\r\n        // find farmer address using his aadhaar\r\n        require(details[deets[farmerAddress]].role == 0);\r\n        require(details[deets[msg.sender]].role == 1);\r\n        request[farmerAddress] = msg.sender; \r\n    }\r\n\r\n    function approveInvestor() public returns (uint, string memory, uint){\r\n        \r\n        require(details[deets[msg.sender]].role == 0);\r\n        address investorAddress = request[msg.sender];\r\n        auth[msg.sender] = investorAddress;\r\n\r\n        return (details[deets[msg.sender]].aadhaar, details[deets[msg.sender]].name, details[deets[msg.sender]].role );\r\n\r\n    }\r\n\r\n    //for BaseMin to BaseMax -> BasePayout% . for > Max -> MaxPayout%\r\n    uint8 constant floodBaseMin = 10;\r\n    uint8 constant floodBaseMax = 15;\r\n    uint8 constant floodBasePayout = 50;  //50% of coverage\r\n    uint8 constant floodMaxPayout = 100;  //100% of coverage\r\n\r\n    //for BaseMin to BaseMax -> BasePayout% . for < Min -> MaxPayout%\r\n    uint8 constant droughtBaseMin = 2;\r\n    uint8 constant droughtBaseMax = 5;\r\n    uint8 constant droughtBasePayout = 50;  //50% of coverage\r\n    uint8 constant droughtMaxPayout = 100;  //100% of coverage\r\n    \r\n    struct cropType {\r\n        string name;\r\n        uint premiumPerAcre;    //in wei\r\n        uint coveragePerAcre;   //in wei\r\n    }\r\n    \r\n    struct policy {\r\n        uint policyId;\r\n        address payable user;\r\n        address payable cover;\r\n        uint role;\r\n        uint premium;\r\n        uint area;\r\n        uint duration;\r\n        uint startTime;\r\n        uint endTime;         //crop's season dependent\r\n        string location;\r\n        uint coverageAmount;  //depends on crop type\r\n        bool forFlood;\r\n        uint8 cropId;\r\n        policyState state;\r\n    }\r\n    \r\n    enum policyState {Pending, Active, PaidOut, TimedOut}\r\n\r\n    uint private balance; // holds the amount in the risk pool \r\n    uint private result = 7;\r\n    uint private claimPolicyId;\r\n    uint public payoutAmount;\r\n\r\n    policy[] public policies; // holds all the policies\r\n    cropType[2] public cropTypes; //crops defined in constructor\r\n    mapping(address => uint[]) public userPolicies;  //user address to array of policy IDs\r\n    \r\n    // used to initialize the risk pool\r\n    constructor()\r\n    public payable\r\n    {\r\n        require(msg.value == 5000 wei, \"5000 wei initial funding required\");\r\n        \r\n        newCrop(0, \"rabi\", 1,  7);\r\n        newCrop(1, \"kharif\", 2,  10);\r\n        balance+=msg.value;\r\n    }\r\n    \r\n    // function to add new crops. \r\n    // It can be added only by the risk body which determines the premium and cover for the same\r\n    function newCrop(uint8 _cropId,string memory _name, uint _premiumPerAcre, uint _coveragePerAcre) internal {\r\n        cropType memory c = cropType(_name, _premiumPerAcre, _coveragePerAcre);\r\n        cropTypes[_cropId] = c;\r\n    }\r\n    \r\n    // get policy details \r\n    function getPolicyDetails(uint _policyId) public view returns(uint, uint, uint, uint, uint, string memory,uint, policyState){\r\n        require(policies[_policyId].user == msg.sender || policies[_policyId].cover == msg.sender, \"Only authorized people allowed to access\");\r\n        policy memory p = policies[_policyId];\r\n        return (p.premium,p.area,p.startTime,p.endTime,p.coverageAmount,p.location,p.cropId,p.state);\r\n    }\r\n    \r\n    // TODO:- integrate duration with cover calulcation TODO\r\n    // function to create a new policy\r\n    function newPolicy (uint _area, string memory _location, bool _forFlood, uint8 _cropId, uint _duration) public payable{\r\n        require(details[deets[msg.sender]].role == 0, \"Only farmer can make a new policy\");\r\n        require(msg.value == (cropTypes[_cropId].premiumPerAcre * _area),\"Incorrect Premium Amount\");\r\n        balance += msg.value; // update risk pool balance\r\n        details[deets[msg.sender]].bal -= int(msg.value); // update user balance\r\n\r\n        uint pId = policies.length++;\r\n        userPolicies[msg.sender].push(pId);\r\n        policy storage p = policies[pId]; // store the policy in an array\r\n\r\n        p.user = msg.sender;\r\n        p.role = details[deets[msg.sender]].role;\r\n        p.premium = cropTypes[_cropId].premiumPerAcre * _area;\r\n        p.area = _area;\r\n        p.startTime = block.timestamp;\r\n        p.duration = _duration;\r\n        p.endTime = block.timestamp + _duration * 30*24*60*60;  //converting months to seconds\r\n        p.location = _location;\r\n        p.coverageAmount = cropTypes[_cropId].coveragePerAcre * _area;\r\n        p.forFlood = _forFlood;\r\n        p.cropId = _cropId;\r\n        p.state = policyState.Active;\r\n    }\r\n    \r\n    // TODO:- make arrangements for adding contribution and return for each investors TODO\r\n    function coverForPolicy(uint _policyId) external payable{\r\n        require(details[deets[msg.sender]].role == 1, \"Only investors can provide money\");\r\n        \r\n        policy storage p = policies[_policyId];\r\n        require(msg.value == p.coverageAmount,\"Incorrect Cover Amount\");\r\n        \r\n        details[deets[msg.sender]].bal -= int(msg.value);\r\n        balance += msg.value;\r\n        userPolicies[msg.sender].push(_policyId);\r\n        p.cover = msg.sender;\r\n        \r\n    }\r\n\r\n    // give amount of risk pool\r\n    function getBalance() public view returns(uint){\r\n        return balance;\r\n    }\r\n    \r\n    // can be called only by the farmer to claim the cover\r\n    function claim(uint _policyId) public {\r\n        require(msg.sender == policies[_policyId].user, \"User Not Authorized\");\r\n        require(policies[_policyId].state == policyState.Active, \"Policy Not Active\");\r\n\r\n        if(block.timestamp > policies[_policyId].endTime)\r\n        {\r\n            policies[_policyId].state = policyState.TimedOut;\r\n            revert(\"Policy's period has Ended.\");\r\n        }\r\n        \r\n        claimPolicyId = _policyId;\r\n        \r\n        /* TODO check weather condition over here TODO*/\r\n        \r\n        // check condition and accordingly pay \r\n        if(policies[claimPolicyId].forFlood){\r\n            if (result < floodBaseMin){\r\n                payoutAmount = uint(policies[claimPolicyId].premium * floodMaxPayout/100) + policies[claimPolicyId].coverageAmount;\r\n                policies[claimPolicyId].cover.transfer(payoutAmount);\r\n                policies[claimPolicyId].state = policyState.PaidOut;\r\n                balance-=payoutAmount;\r\n                details[deets[policies[claimPolicyId].cover]].bal += int(payoutAmount);\r\n            }\r\n            else if (result > floodBaseMax){\r\n                payoutAmount = uint(policies[claimPolicyId].coverageAmount * floodMaxPayout/100);\r\n                policies[claimPolicyId].user.transfer(payoutAmount);\r\n                policies[claimPolicyId].state = policyState.PaidOut;\r\n                balance-=payoutAmount;\r\n                details[deets[policies[claimPolicyId].user]].bal += int(payoutAmount);\r\n            }\r\n            else{\r\n                payoutAmount = uint(policies[claimPolicyId].coverageAmount * floodBasePayout/100);\r\n                policies[claimPolicyId].user.transfer(payoutAmount);\r\n                policies[claimPolicyId].state = policyState.PaidOut;\r\n                balance-=payoutAmount;\r\n                details[deets[policies[claimPolicyId].user]].bal += int(payoutAmount);\r\n            }\r\n            \r\n        }\r\n        else{\r\n            if(result > droughtBaseMax){\r\n                payoutAmount = uint(policies[claimPolicyId].premium * floodMaxPayout/100) + policies[claimPolicyId].coverageAmount;\r\n                policies[claimPolicyId].cover.transfer(payoutAmount);\r\n                policies[claimPolicyId].state = policyState.PaidOut;\r\n                balance-=payoutAmount;\r\n                details[deets[policies[claimPolicyId].cover]].bal += int(payoutAmount);\r\n            }\r\n            else if (result < droughtBaseMin){\r\n                payoutAmount = uint(policies[claimPolicyId].coverageAmount * droughtMaxPayout/100);\r\n                policies[claimPolicyId].user.transfer(payoutAmount);\r\n                policies[claimPolicyId].state = policyState.PaidOut;\r\n                balance-=payoutAmount;\r\n                details[deets[policies[claimPolicyId].user]].bal += int(payoutAmount);\r\n            }\r\n            else{\r\n                payoutAmount = uint(policies[claimPolicyId].coverageAmount * droughtBasePayout/100);\r\n                policies[claimPolicyId].user.transfer(payoutAmount);\r\n                policies[claimPolicyId].state = policyState.PaidOut;\r\n                balance-=payoutAmount;\r\n                details[deets[policies[claimPolicyId].user]].bal += int(payoutAmount);\r\n            }\r\n        }\r\n    }\r\n    \r\n    //Fallback function to implement the ability for the Contract Address to Accept Ether\r\n    // function() public payable {}\r\n    \r\n}",
  "sourcePath": "C:/major_project/genz2/contracts/genz.sol",
  "compiler": {
    "name": "solc",
    "version": "0.5.16+commit.9c3226ce.Emscripten.clang"
  },
  "schemaVersion": "3.2.4",
  "updatedAt": "2020-09-11T06:33:50.125Z",
  "networkType": "ethereum",
  "devdoc": {
    "methods": {}
  },
  "userdoc": {
    "methods": {}
  }
}