{
  "contractName": "genz",
  "abi": [
    {
      "inputs": [],
      "payable": true,
      "stateMutability": "payable",
      "type": "constructor"
    },
    {
      "anonymous": false,
      "inputs": [
        {
          "indexed": true,
          "internalType": "bytes32",
          "name": "id",
          "type": "bytes32"
        }
      ],
      "name": "ChainlinkCancelled",
      "type": "event"
    },
    {
      "anonymous": false,
      "inputs": [
        {
          "indexed": true,
          "internalType": "bytes32",
          "name": "id",
          "type": "bytes32"
        }
      ],
      "name": "ChainlinkFulfilled",
      "type": "event"
    },
    {
      "anonymous": false,
      "inputs": [
        {
          "indexed": true,
          "internalType": "bytes32",
          "name": "id",
          "type": "bytes32"
        }
      ],
      "name": "ChainlinkRequested",
      "type": "event"
    },
    {
      "constant": true,
      "inputs": [
        {
          "internalType": "address",
          "name": "",
          "type": "address"
        }
      ],
      "name": "auth",
      "outputs": [
        {
          "internalType": "address",
          "name": "",
          "type": "address"
        }
      ],
      "payable": false,
      "stateMutability": "view",
      "type": "function"
    },
    {
      "constant": true,
      "inputs": [
        {
          "internalType": "uint256",
          "name": "",
          "type": "uint256"
        }
      ],
      "name": "cropTypes",
      "outputs": [
        {
          "internalType": "string",
          "name": "name",
          "type": "string"
        },
        {
          "internalType": "uint256",
          "name": "premiumPerAcre",
          "type": "uint256"
        },
        {
          "internalType": "uint256",
          "name": "coveragePerAcre",
          "type": "uint256"
        }
      ],
      "payable": false,
      "stateMutability": "view",
      "type": "function"
    },
    {
      "constant": true,
      "inputs": [
        {
          "internalType": "address",
          "name": "",
          "type": "address"
        }
      ],
      "name": "deets",
      "outputs": [
        {
          "internalType": "uint256",
          "name": "",
          "type": "uint256"
        }
      ],
      "payable": false,
      "stateMutability": "view",
      "type": "function"
    },
    {
      "constant": true,
      "inputs": [
        {
          "internalType": "uint256",
          "name": "",
          "type": "uint256"
        }
      ],
      "name": "details",
      "outputs": [
        {
          "internalType": "uint256",
          "name": "aadhaar",
          "type": "uint256"
        },
        {
          "internalType": "string",
          "name": "name",
          "type": "string"
        },
        {
          "internalType": "address",
          "name": "id",
          "type": "address"
        },
        {
          "internalType": "uint256",
          "name": "role",
          "type": "uint256"
        },
        {
          "internalType": "int256",
          "name": "bal",
          "type": "int256"
        }
      ],
      "payable": false,
      "stateMutability": "view",
      "type": "function"
    },
    {
      "constant": true,
      "inputs": [],
      "name": "payoutAmount",
      "outputs": [
        {
          "internalType": "uint256",
          "name": "",
          "type": "uint256"
        }
      ],
      "payable": false,
      "stateMutability": "view",
      "type": "function"
    },
    {
      "constant": true,
      "inputs": [
        {
          "internalType": "uint256",
          "name": "",
          "type": "uint256"
        }
      ],
      "name": "policies",
      "outputs": [
        {
          "internalType": "uint256",
          "name": "policyId",
          "type": "uint256"
        },
        {
          "internalType": "address payable",
          "name": "user",
          "type": "address"
        },
        {
          "internalType": "uint256",
          "name": "premium",
          "type": "uint256"
        },
        {
          "internalType": "uint256",
          "name": "area",
          "type": "uint256"
        },
        {
          "internalType": "string",
          "name": "location",
          "type": "string"
        },
        {
          "internalType": "uint256",
          "name": "duration",
          "type": "uint256"
        },
        {
          "internalType": "uint256",
          "name": "startTime",
          "type": "uint256"
        },
        {
          "internalType": "uint256",
          "name": "endTime",
          "type": "uint256"
        },
        {
          "internalType": "uint256",
          "name": "coverageAmount",
          "type": "uint256"
        },
        {
          "internalType": "uint256",
          "name": "forFlood",
          "type": "uint256"
        },
        {
          "internalType": "uint8",
          "name": "cropId",
          "type": "uint8"
        },
        {
          "internalType": "uint256",
          "name": "policySum",
          "type": "uint256"
        },
        {
          "internalType": "enum genz.policyState",
          "name": "state",
          "type": "uint8"
        },
        {
          "internalType": "enum genz.status",
          "name": "st",
          "type": "uint8"
        }
      ],
      "payable": false,
      "stateMutability": "view",
      "type": "function"
    },
    {
      "constant": true,
      "inputs": [
        {
          "internalType": "address",
          "name": "",
          "type": "address"
        }
      ],
      "name": "request",
      "outputs": [
        {
          "internalType": "address",
          "name": "",
          "type": "address"
        }
      ],
      "payable": false,
      "stateMutability": "view",
      "type": "function"
    },
    {
      "constant": true,
      "inputs": [
        {
          "internalType": "address",
          "name": "",
          "type": "address"
        },
        {
          "internalType": "uint256",
          "name": "",
          "type": "uint256"
        }
      ],
      "name": "userPolicies",
      "outputs": [
        {
          "internalType": "uint256",
          "name": "",
          "type": "uint256"
        }
      ],
      "payable": false,
      "stateMutability": "view",
      "type": "function"
    },
    {
      "constant": false,
      "inputs": [
        {
          "internalType": "uint256",
          "name": "aadhaar",
          "type": "uint256"
        },
        {
          "internalType": "string",
          "name": "name",
          "type": "string"
        },
        {
          "internalType": "uint256",
          "name": "role",
          "type": "uint256"
        }
      ],
      "name": "_register",
      "outputs": [],
      "payable": false,
      "stateMutability": "nonpayable",
      "type": "function"
    },
    {
      "constant": false,
      "inputs": [
        {
          "internalType": "uint256",
          "name": "_area",
          "type": "uint256"
        },
        {
          "internalType": "uint256",
          "name": "_forFlood",
          "type": "uint256"
        },
        {
          "internalType": "uint8",
          "name": "_cropId",
          "type": "uint8"
        },
        {
          "internalType": "uint256",
          "name": "_duration",
          "type": "uint256"
        },
        {
          "internalType": "string",
          "name": "_location",
          "type": "string"
        }
      ],
      "name": "newPolicy",
      "outputs": [],
      "payable": true,
      "stateMutability": "payable",
      "type": "function"
    },
    {
      "constant": false,
      "inputs": [
        {
          "internalType": "uint256",
          "name": "_policyId",
          "type": "uint256"
        }
      ],
      "name": "coverForPolicy",
      "outputs": [],
      "payable": true,
      "stateMutability": "payable",
      "type": "function"
    },
    {
      "constant": false,
      "inputs": [
        {
          "internalType": "uint256",
          "name": "_policyId",
          "type": "uint256"
        },
        {
          "internalType": "string",
          "name": "s1",
          "type": "string"
        },
        {
          "internalType": "string",
          "name": "s2",
          "type": "string"
        }
      ],
      "name": "claim",
      "outputs": [],
      "payable": false,
      "stateMutability": "nonpayable",
      "type": "function"
    },
    {
      "constant": false,
      "inputs": [
        {
          "internalType": "bytes32",
          "name": "_requestId",
          "type": "bytes32"
        },
        {
          "internalType": "uint256",
          "name": "_rain",
          "type": "uint256"
        }
      ],
      "name": "fullfillWeather",
      "outputs": [],
      "payable": false,
      "stateMutability": "nonpayable",
      "type": "function"
    },
    {
      "constant": true,
      "inputs": [
        {
          "internalType": "uint256[]",
          "name": "x",
          "type": "uint256[]"
        }
      ],
      "name": "sum",
      "outputs": [
        {
          "internalType": "uint256",
          "name": "",
          "type": "uint256"
        }
      ],
      "payable": false,
      "stateMutability": "pure",
      "type": "function"
    },
    {
      "constant": true,
      "inputs": [],
      "name": "getDetails",
      "outputs": [
        {
          "internalType": "uint256",
          "name": "",
          "type": "uint256"
        },
        {
          "internalType": "string",
          "name": "",
          "type": "string"
        },
        {
          "internalType": "uint256",
          "name": "",
          "type": "uint256"
        }
      ],
      "payable": false,
      "stateMutability": "view",
      "type": "function"
    },
    {
      "constant": true,
      "inputs": [],
      "name": "getBalanceUser",
      "outputs": [
        {
          "internalType": "int256",
          "name": "",
          "type": "int256"
        }
      ],
      "payable": false,
      "stateMutability": "view",
      "type": "function"
    },
    {
      "constant": true,
      "inputs": [],
      "name": "getBalance",
      "outputs": [
        {
          "internalType": "uint256",
          "name": "",
          "type": "uint256"
        }
      ],
      "payable": false,
      "stateMutability": "view",
      "type": "function"
    },
    {
      "constant": true,
      "inputs": [],
      "name": "getPolicyUser",
      "outputs": [
        {
          "internalType": "uint256[]",
          "name": "",
          "type": "uint256[]"
        }
      ],
      "payable": false,
      "stateMutability": "view",
      "type": "function"
    },
    {
      "constant": true,
      "inputs": [
        {
          "internalType": "uint256",
          "name": "_policyId",
          "type": "uint256"
        }
      ],
      "name": "getPolicyDetails",
      "outputs": [
        {
          "internalType": "address payable",
          "name": "",
          "type": "address"
        },
        {
          "internalType": "address payable[]",
          "name": "",
          "type": "address[]"
        },
        {
          "internalType": "uint256[]",
          "name": "",
          "type": "uint256[]"
        },
        {
          "internalType": "string",
          "name": "",
          "type": "string"
        },
        {
          "internalType": "uint256[]",
          "name": "",
          "type": "uint256[]"
        },
        {
          "internalType": "uint8",
          "name": "",
          "type": "uint8"
        },
        {
          "internalType": "enum genz.status",
          "name": "",
          "type": "uint8"
        },
        {
          "internalType": "enum genz.policyState",
          "name": "",
          "type": "uint8"
        }
      ],
      "payable": false,
      "stateMutability": "view",
      "type": "function"
    },
    {
      "constant": true,
      "inputs": [],
      "name": "getPolicyLength",
      "outputs": [
        {
          "internalType": "uint256",
          "name": "",
          "type": "uint256"
        }
      ],
      "payable": false,
      "stateMutability": "view",
      "type": "function"
    },
    {
      "constant": true,
      "inputs": [],
      "name": "login",
      "outputs": [
        {
          "internalType": "uint256",
          "name": "",
          "type": "uint256"
        }
      ],
      "payable": false,
      "stateMutability": "view",
      "type": "function"
    }
  ],
  "bytecode": "0x608060405260016004556002600e5561138834146200006a576040517f08c379a0000000000000000000000000000000000000000000000000000000008152600401808060200182810382526021815260200180620047cb6021913960400191505060405180910390fd5b6200007a620001b360201b60201c565b73cb65e9b36eb788ab0f94f06fb3906ecfaf4e055a600660006101000a81548173ffffffffffffffffffffffffffffffffffffffff021916908373ffffffffffffffffffffffffffffffffffffffff1602179055507f656364343439353535323534343230616266353566393834363963326663616160078190555067016345785d8a00006008819055506200015160006040518060400160405280600481526020017f7261626900000000000000000000000000000000000000000000000000000000815250600160076200025d60201b60201c565b6200019d60016040518060400160405280600681526020017f6b686172696600000000000000000000000000000000000000000000000000008152506002600a6200025d60201b60201c565b34600d60008282540192505081905550620003eb565b6200025b73c89bd4e1632d3a43cb03aaad5262cbe4038bc57173ffffffffffffffffffffffffffffffffffffffff166338cc48316040518163ffffffff1660e01b815260040160206040518083038186803b1580156200021257600080fd5b505afa15801562000227573d6000803e3d6000fd5b505050506040513d60208110156200023e57600080fd5b8101908080519060200190929190505050620002d760201b60201c565b565b620002676200031b565b60405180606001604052808581526020018481526020018381525090508060128660ff16600281106200029657fe5b600302016000820151816000019080519060200190620002b89291906200033c565b5060208201518160010155604082015181600201559050505050505050565b80600260006101000a81548173ffffffffffffffffffffffffffffffffffffffff021916908373ffffffffffffffffffffffffffffffffffffffff16021790555050565b60405180606001604052806060815260200160008152602001600081525090565b828054600181600116156101000203166002900490600052602060002090601f016020900481019282601f106200037f57805160ff1916838001178555620003b0565b82800160010185558215620003b0579182015b82811115620003af57825182559160200191906001019062000392565b5b509050620003bf9190620003c3565b5090565b620003e891905b80821115620003e4576000816000905550600101620003ca565b5090565b90565b6143d080620003fb6000396000f3fe60806040526004361061012a5760003560e01c80635f2a9e87116100ab578063cc0380101161006f578063cc03801014610999578063cd5d211814610b8f578063d16a993914610c20578063d3e8948314610c4e578063ea29455a14610dab578063fbbf93a014610df05761012a565b80635f2a9e87146106725780636b46c8c3146107db5780636fc617b114610806578063a005ec7a14610872578063b34e97e81461096e5761012a565b806340478701116100f2578063404787011461035e57806343fd94a71461044457806350244fb31461052057806356634caa1461054b5780635a8f29ed146105b05761012a565b80630194db8e1461012f57806312065fe01461020857806327c78c421461023357806331dacf77146102c45780633d36adc5146102ef575b600080fd5b34801561013b57600080fd5b506101f26004803603602081101561015257600080fd5b810190808035906020019064010000000081111561016f57600080fd5b82018360208201111561018157600080fd5b803590602001918460208302840111640100000000831117156101a357600080fd5b919080806020026020016040519081016040528093929190818152602001838360200280828437600081840152601f19601f820116905080830192505050505050509192919290505050610e8e565b6040518082815260200191505060405180910390f35b34801561021457600080fd5b5061021d610ed3565b6040518082815260200191505060405180910390f35b34801561023f57600080fd5b506102826004803603602081101561025657600080fd5b81019080803573ffffffffffffffffffffffffffffffffffffffff169060200190929190505050610edd565b604051808273ffffffffffffffffffffffffffffffffffffffff1673ffffffffffffffffffffffffffffffffffffffff16815260200191505060405180910390f35b3480156102d057600080fd5b506102d9610f10565b6040518082815260200191505060405180910390f35b3480156102fb57600080fd5b506103486004803603604081101561031257600080fd5b81019080803573ffffffffffffffffffffffffffffffffffffffff16906020019092919080359060200190929190505050610f75565b6040518082815260200191505060405180910390f35b610442600480360360a081101561037457600080fd5b810190808035906020019092919080359060200190929190803560ff16906020019092919080359060200190929190803590602001906401000000008111156103bc57600080fd5b8201836020820111156103ce57600080fd5b803590602001918460018302840111640100000000831117156103f057600080fd5b91908080601f016020809104026020016040519081016040528093929190818152602001838380828437600081840152601f19601f820116905080830192505050505050509192919290505050610fa3565b005b34801561045057600080fd5b5061051e6004803603606081101561046757600080fd5b81019080803590602001909291908035906020019064010000000081111561048e57600080fd5b8201836020820111156104a057600080fd5b803590602001918460018302840111640100000000831117156104c257600080fd5b91908080601f016020809104026020016040519081016040528093929190818152602001838380828437600081840152601f19601f8201169050808301925050505050505091929192908035906020019092919050505061134e565b005b34801561052c57600080fd5b5061053561148f565b6040518082815260200191505060405180910390f35b34801561055757600080fd5b5061059a6004803603602081101561056e57600080fd5b81019080803573ffffffffffffffffffffffffffffffffffffffff16906020019092919050505061149c565b6040518082815260200191505060405180910390f35b3480156105bc57600080fd5b506105e9600480360360208110156105d357600080fd5b81019080803590602001909291905050506114b4565b6040518080602001848152602001838152602001828103825285818151815260200191508051906020019080838360005b8381101561063557808201518184015260208101905061061a565b50505050905090810190601f1680156106625780820380516001836020036101000a031916815260200191505b5094505050505060405180910390f35b34801561067e57600080fd5b506107d96004803603606081101561069557600080fd5b8101908080359060200190929190803590602001906401000000008111156106bc57600080fd5b8201836020820111156106ce57600080fd5b803590602001918460018302840111640100000000831117156106f057600080fd5b91908080601f016020809104026020016040519081016040528093929190818152602001838380828437600081840152601f19601f8201169050808301925050505050505091929192908035906020019064010000000081111561075357600080fd5b82018360208201111561076557600080fd5b8035906020019184600183028401116401000000008311171561078757600080fd5b91908080601f016020809104026020016040519081016040528093929190818152602001838380828437600081840152601f19601f820116905080830192505050505050509192919290505050611579565b005b3480156107e757600080fd5b506107f0611b59565b6040518082815260200191505060405180910390f35b34801561081257600080fd5b5061081b611b5f565b6040518080602001828103825283818151815260200191508051906020019060200280838360005b8381101561085e578082015181840152602081019050610843565b505050509050019250505060405180910390f35b34801561087e57600080fd5b506108ab6004803603602081101561089557600080fd5b8101908080359060200190929190505050611bf4565b60405180868152602001806020018573ffffffffffffffffffffffffffffffffffffffff1673ffffffffffffffffffffffffffffffffffffffff168152602001848152602001838152602001828103825286818151815260200191508051906020019080838360005b8381101561092f578082015181840152602081019050610914565b50505050905090810190601f16801561095c5780820380516001836020036101000a031916815260200191505b50965050505050505060405180910390f35b34801561097a57600080fd5b50610983611cef565b6040518082815260200191505060405180910390f35b3480156109a557600080fd5b506109d2600480360360208110156109bc57600080fd5b8101908080359060200190929190505050611d96565b604051808973ffffffffffffffffffffffffffffffffffffffff1673ffffffffffffffffffffffffffffffffffffffff168152602001806020018060200180602001806020018860ff1660ff168152602001876001811115610a3057fe5b60ff168152602001866003811115610a4457fe5b60ff16815260200185810385528c818151815260200191508051906020019060200280838360005b83811015610a87578082015181840152602081019050610a6c565b5050505090500185810384528b818151815260200191508051906020019060200280838360005b83811015610ac9578082015181840152602081019050610aae565b5050505090500185810383528a818151815260200191508051906020019080838360005b83811015610b08578082015181840152602081019050610aed565b50505050905090810190601f168015610b355780820380516001836020036101000a031916815260200191505b50858103825289818151815260200191508051906020019060200280838360005b83811015610b71578082015181840152602081019050610b56565b505050509050019c5050505050505050505050505060405180910390f35b348015610b9b57600080fd5b50610bde60048036036020811015610bb257600080fd5b81019080803573ffffffffffffffffffffffffffffffffffffffff1690602001909291905050506121d7565b604051808273ffffffffffffffffffffffffffffffffffffffff1673ffffffffffffffffffffffffffffffffffffffff16815260200191505060405180910390f35b610c4c60048036036020811015610c3657600080fd5b810190808035906020019092919050505061220a565b005b348015610c5a57600080fd5b50610c8760048036036020811015610c7157600080fd5b8101908080359060200190929190505050612655565b604051808f81526020018e73ffffffffffffffffffffffffffffffffffffffff1673ffffffffffffffffffffffffffffffffffffffff1681526020018d81526020018c8152602001806020018b81526020018a81526020018981526020018881526020018781526020018660ff1660ff168152602001858152602001846003811115610d0f57fe5b60ff168152602001836001811115610d2357fe5b60ff16815260200182810382528c818151815260200191508051906020019080838360005b83811015610d63578082015181840152602081019050610d48565b50505050905090810190601f168015610d905780820380516001836020036101000a031916815260200191505b509f5050505050505050505050505050505060405180910390f35b348015610db757600080fd5b50610dee60048036036040811015610dce57600080fd5b8101908080359060200190929190803590602001909291905050506127ad565b005b348015610dfc57600080fd5b50610e056132c8565b6040518084815260200180602001838152602001828103825284818151815260200191508051906020019080838360005b83811015610e51578082015181840152602081019050610e36565b50505050905090810190601f168015610e7e5780820380516001836020036101000a031916815260200191505b5094505050505060405180910390f35b6000806000905060008090505b8351811015610ec957838181518110610eb057fe5b6020026020010151820191508080600101915050610e9b565b5080915050919050565b6000600d54905090565b60096020528060005260406000206000915054906101000a900473ffffffffffffffffffffffffffffffffffffffff1681565b6000600b600c60003373ffffffffffffffffffffffffffffffffffffffff1673ffffffffffffffffffffffffffffffffffffffff1681526020019081526020016000205481548110610f5e57fe5b906000526020600020906005020160040154905090565b60186020528160005260406000208181548110610f8e57fe5b90600052602060002001600091509150505481565b6000600b600c60003373ffffffffffffffffffffffffffffffffffffffff1673ffffffffffffffffffffffffffffffffffffffff1681526020019081526020016000205481548110610ff157fe5b90600052602060002090600502016003015414611059576040517f08c379a000000000000000000000000000000000000000000000000000000000815260040180806020018281038252602181526020018061430f6021913960400191505060405180910390fd5b8460128460ff166002811061106a57fe5b60030201600101540234146110e7576040517f08c379a00000000000000000000000000000000000000000000000000000000081526004018080602001828103825260188152602001807f496e636f7272656374205072656d69756d20416d6f756e74000000000000000081525060200191505060405180910390fd5b34600d6000828254019250508190555034600b600c60003373ffffffffffffffffffffffffffffffffffffffff1673ffffffffffffffffffffffffffffffffffffffff168152602001908152602001600020548154811061114457fe5b9060005260206000209060050201600401600082825403925050819055506000601180548091906001016111789190613ee6565b9050601860003373ffffffffffffffffffffffffffffffffffffffff1673ffffffffffffffffffffffffffffffffffffffff1681526020019081526020016000208190806001815401808255809150509060018203906000526020600020016000909192909190915055506000601182815481106111f257fe5b90600052602060002090600f02019050338160010160006101000a81548173ffffffffffffffffffffffffffffffffffffffff021916908373ffffffffffffffffffffffffffffffffffffffff1602179055508660128660ff166002811061125657fe5b60030201600101540281600401819055508281600601908051906020019061127f929190613f18565b50868160050181905550428160080181905550838160070181905550603c806018601e8702020202420181600901819055508660128660ff16600281106112c257fe5b60030201600201540281600a01819055508581600b01819055508481600c0160006101000a81548160ff021916908360ff160217905550600181600e0160006101000a81548160ff0219169083600381111561131a57fe5b0217905550600081600e0160016101000a81548160ff0219169083600181111561134057fe5b021790555050505050505050565b600b6040518060a001604052808581526020018481526020013373ffffffffffffffffffffffffffffffffffffffff1681526020018381526020016000815250908060018154018082558091505090600182039060005260206000209060050201600090919290919091506000820151816000015560208201518160010190805190602001906113df929190613f98565b5060408201518160020160006101000a81548173ffffffffffffffffffffffffffffffffffffffff021916908373ffffffffffffffffffffffffffffffffffffffff16021790555060608201518160030155608082015181600401555050506001600b8054905003600c60003373ffffffffffffffffffffffffffffffffffffffff1673ffffffffffffffffffffffffffffffffffffffff16815260200190815260200160002081905550505050565b6000601180549050905090565b600c6020528060005260406000206000915090505481565b601281600281106114c157fe5b60030201600091509050806000018054600181600116156101000203166002900480601f0160208091040260200160405190810160405280929190818152602001828054600181600116156101000203166002900480156115635780601f1061153857610100808354040283529160200191611563565b820191906000526020600020905b81548152906001019060200180831161154657829003601f168201915b5050505050908060010154908060020154905083565b6011838154811061158657fe5b90600052602060002090600f020160010160009054906101000a900473ffffffffffffffffffffffffffffffffffffffff1673ffffffffffffffffffffffffffffffffffffffff163373ffffffffffffffffffffffffffffffffffffffff1614611658576040517f08c379a00000000000000000000000000000000000000000000000000000000081526004018080602001828103825260138152602001807f55736572204e6f7420417574686f72697a65640000000000000000000000000081525060200191505060405180910390fd5b6001600381111561166557fe5b6011848154811061167257fe5b90600052602060002090600f0201600e0160009054906101000a900460ff16600381111561169c57fe5b1461170f576040517f08c379a00000000000000000000000000000000000000000000000000000000081526004018080602001828103825260118152602001807f506f6c696379204e6f742041637469766500000000000000000000000000000081525060200191505060405180910390fd5b60018081111561171b57fe5b6011848154811061172857fe5b90600052602060002090600f0201600e0160019054906101000a900460ff16600181111561175257fe5b146117a8576040517f08c379a000000000000000000000000000000000000000000000000000000000815260040180806020018281038252602181526020018061437b6021913960400191505060405180910390fd5b601183815481106117b557fe5b90600052602060002090600f02016009015442111561187c576003601184815481106117dd57fe5b90600052602060002090600f0201600e0160006101000a81548160ff0219169083600381111561180957fe5b02179055506040517f08c379a000000000000000000000000000000000000000000000000000000000815260040180806020018281038252601a8152602001807f506f6c696379277320706572696f642068617320456e6465642e00000000000081525060200191505060405180910390fd5b82600f8190555061188b614018565b61189f6007543063ea29455a60e01b61348e565b90506119206040518060400160405280600481526020017f63697479000000000000000000000000000000000000000000000000000000008152506040518060400160405280600681526020017f4d756d6261690000000000000000000000000000000000000000000000000000815250836134bf9092919063ffffffff16565b61196a6040518060400160405280600a81526020017f73746172745f646174650000000000000000000000000000000000000000000081525084836134bf9092919063ffffffff16565b6119b46040518060400160405280600881526020017f656e645f6461746500000000000000000000000000000000000000000000000081525083836134bf9092919063ffffffff16565b606060036040519080825280602002602001820160405280156119eb57816020015b60608152602001906001900390816119d65790505b5090506040518060400160405280600481526020017f646174610000000000000000000000000000000000000000000000000000000081525081600081518110611a3157fe5b60200260200101819052506040518060400160405280600181526020017f300000000000000000000000000000000000000000000000000000000000000081525081600181518110611a7f57fe5b60200260200101819052506040518060400160405280600681526020017f707265636970000000000000000000000000000000000000000000000000000081525081600281518110611acd57fe5b6020026020010181905250611b226040518060400160405280600881526020017f636f70795061746800000000000000000000000000000000000000000000000081525082846134f29092919063ffffffff16565b611b51600660009054906101000a900473ffffffffffffffffffffffffffffffffffffffff168360085461356f565b505050505050565b60105481565b6060601860003373ffffffffffffffffffffffffffffffffffffffff1673ffffffffffffffffffffffffffffffffffffffff168152602001908152602001600020805480602002602001604051908101604052809291908181526020018280548015611bea57602002820191906000526020600020905b815481526020019060010190808311611bd6575b5050505050905090565b600b8181548110611c0157fe5b9060005260206000209060050201600091509050806000015490806001018054600181600116156101000203166002900480601f016020809104026020016040519081016040528092919081815260200182805460018160011615610100020316600290048015611cb35780601f10611c8857610100808354040283529160200191611cb3565b820191906000526020600020905b815481529060010190602001808311611c9657829003601f168201915b5050505050908060020160009054906101000a900473ffffffffffffffffffffffffffffffffffffffff16908060030154908060040154905085565b600080600090505b600b80549050811015611d8d573373ffffffffffffffffffffffffffffffffffffffff16600b8281548110611d2857fe5b906000526020600020906005020160020160009054906101000a900473ffffffffffffffffffffffffffffffffffffffff1673ffffffffffffffffffffffffffffffffffffffff161415611d80576001915050611d93565b8080600101915050611cf7565b50600090505b90565b60006060806060806000806000611dab614085565b60118a81548110611db857fe5b90600052602060002090600f020160405180610200016040529081600082015481526020016001820160009054906101000a900473ffffffffffffffffffffffffffffffffffffffff1673ffffffffffffffffffffffffffffffffffffffff1673ffffffffffffffffffffffffffffffffffffffff16815260200160028201805480602002602001604051908101604052809291908181526020018280548015611eb757602002820191906000526020600020905b8160009054906101000a900473ffffffffffffffffffffffffffffffffffffffff1673ffffffffffffffffffffffffffffffffffffffff1681526020019060010190808311611e6d575b5050505050815260200160038201805480602002602001604051908101604052809291908181526020018280548015611f0f57602002820191906000526020600020905b815481526020019060010190808311611efb575b505050505081526020016004820154815260200160058201548152602001600682018054600181600116156101000203166002900480601f016020809104026020016040519081016040528092919081815260200182805460018160011615610100020316600290048015611fc55780601f10611f9a57610100808354040283529160200191611fc5565b820191906000526020600020905b815481529060010190602001808311611fa857829003601f168201915b50505050508152602001600782015481526020016008820154815260200160098201548152602001600a8201548152602001600b8201548152602001600c820160009054906101000a900460ff1660ff1660ff168152602001600d8201548152602001600e820160009054906101000a900460ff16600381111561204557fe5b600381111561205057fe5b8152602001600e820160019054906101000a900460ff16600181111561207257fe5b600181111561207d57fe5b815250509050606060076040519080825280602002602001820160405280156120b55781602001602082028038833980820191505090505b5090508a816000815181106120c657fe5b6020026020010181815250508160800151816001815181106120e457fe5b6020026020010181815250508160a001518160028151811061210257fe5b6020026020010181815250508161010001518160038151811061212157fe5b6020026020010181815250508161012001518160048151811061214057fe5b6020026020010181815250508161014001518160058151811061215f57fe5b602002602001018181525050816101a001518160068151811061217e57fe5b6020026020010181815250508160200151826040015183606001518460c0015184866101800151876101e00151886101c00151869650859550849450995099509950995099509950995099505050919395975091939597565b600a6020528060005260406000206000915054906101000a900473ffffffffffffffffffffffffffffffffffffffff1681565b6001600b600c60003373ffffffffffffffffffffffffffffffffffffffff1673ffffffffffffffffffffffffffffffffffffffff168152602001908152602001600020548154811061225857fe5b906000526020600020906005020160030154146122dd576040517f08c379a00000000000000000000000000000000000000000000000000000000081526004018080602001828103825260208152602001807f4f6e6c7920696e766573746f72732063616e2070726f76696465206d6f6e657981525060200191505060405180910390fd5b6000601182815481106122ec57fe5b90600052602060002090600f0201905080600a0154341115612376576040517f08c379a00000000000000000000000000000000000000000000000000000000081526004018080602001828103825260168152602001807f496e636f727265637420436f76657220416d6f756e740000000000000000000081525060200191505060405180910390fd5b6000600181111561238357fe5b81600e0160019054906101000a900460ff1660018111156123a057fe5b14612413576040517f08c379a000000000000000000000000000000000000000000000000000000000815260040180806020018281038252601f8152602001807f20506f6c69637920697320636c6f7365642063616e6e6f7420636f766572200081525060200191505060405180910390fd5b80600a01543482600d0154011115612493576040517f08c379a000000000000000000000000000000000000000000000000000000000815260040180806020018281038252601a8152602001807f20436f76657261676520616d6f756e742065786365656465642000000000000081525060200191505060405180910390fd5b34600b600c60003373ffffffffffffffffffffffffffffffffffffffff1673ffffffffffffffffffffffffffffffffffffffff16815260200190815260200160002054815481106124e057fe5b90600052602060002090600502016004016000828254039250508190555034600d5401600d81905550601860003373ffffffffffffffffffffffffffffffffffffffff1673ffffffffffffffffffffffffffffffffffffffff168152602001908152602001600020829080600181540180825580915050906001820390600052602060002001600090919290919091505550806002013390806001815401808255809150509060018203906000526020600020016000909192909190916101000a81548173ffffffffffffffffffffffffffffffffffffffff021916908373ffffffffffffffffffffffffffffffffffffffff16021790555050806003013490806001815401808255809150509060018203906000526020600020016000909192909190915055503481600d016000828254019250508190555080600a015481600d0154141561265157600181600e0160016101000a81548160ff0219169083600181111561264b57fe5b02179055505b5050565b6011818154811061266257fe5b90600052602060002090600f02016000915090508060000154908060010160009054906101000a900473ffffffffffffffffffffffffffffffffffffffff1690806004015490806005015490806006018054600181600116156101000203166002900480601f0160208091040260200160405190810160405280929190818152602001828054600181600116156101000203166002900480156127465780601f1061271b57610100808354040283529160200191612746565b820191906000526020600020905b81548152906001019060200180831161272957829003601f168201915b50505050509080600701549080600801549080600901549080600a01549080600b01549080600c0160009054906101000a900460ff169080600d01549080600e0160009054906101000a900460ff169080600e0160019054906101000a900460ff1690508e565b816005600082815260200190815260200160002060009054906101000a900473ffffffffffffffffffffffffffffffffffffffff1673ffffffffffffffffffffffffffffffffffffffff163373ffffffffffffffffffffffffffffffffffffffff1614612865576040517f08c379a00000000000000000000000000000000000000000000000000000000081526004018080602001828103825260288152602001806143536028913960400191505060405180910390fd5b6005600082815260200190815260200160002060006101000a81549073ffffffffffffffffffffffffffffffffffffffff0219169055807f7cc135e0cebb02c3480ae5d74d377283180a2601f8f644edf7987b009316c63a60405160405180910390a281600e81905550613a98600e541115612ab3576011600f54815481106128ea57fe5b90600052602060002090600f0201600401546011600f548154811061290b57fe5b90600052602060002090600f0201600a0154016010819055506011600f548154811061293357fe5b90600052602060002090600f020160010160009054906101000a900473ffffffffffffffffffffffffffffffffffffffff1673ffffffffffffffffffffffffffffffffffffffff166108fc6010549081150290604051600060405180830381858888f193505050501580156129ac573d6000803e3d6000fd5b5060026011600f54815481106129be57fe5b90600052602060002090600f0201600e0160006101000a81548160ff021916908360038111156129ea57fe5b0217905550601054600d60008282540392505081905550601054600b600c60006011600f5481548110612a1957fe5b90600052602060002090600f020160010160009054906101000a900473ffffffffffffffffffffffffffffffffffffffff1673ffffffffffffffffffffffffffffffffffffffff1673ffffffffffffffffffffffffffffffffffffffff1681526020019081526020016000205481548110612a9057fe5b9060005260206000209060050201600401600082825401925050819055506132c3565b613a98600e5411158015612aca5750612710600e54115b15612fa1576000606460326011600f5481548110612ae457fe5b90600052602060002090600f0201600401540281612afe57fe5b04606460326011600f5481548110612b1257fe5b90600052602060002090600f0201600a01540281612b2c57fe5b040190506011600f5481548110612b3f57fe5b90600052602060002090600f020160010160009054906101000a900473ffffffffffffffffffffffffffffffffffffffff1673ffffffffffffffffffffffffffffffffffffffff166108fc829081150290604051600060405180830381858888f19350505050158015612bb6573d6000803e3d6000fd5b5080600d6000828254039250508190555080600b600c60006011600f5481548110612bdd57fe5b90600052602060002090600f020160010160009054906101000a900473ffffffffffffffffffffffffffffffffffffffff1673ffffffffffffffffffffffffffffffffffffffff1673ffffffffffffffffffffffffffffffffffffffff1681526020019081526020016000205481548110612c5457fe5b9060005260206000209060050201600401600082825401925050819055506000612ceb6011600f5481548110612c8657fe5b90600052602060002090600f0201600301805480602002602001604051908101604052809291908181526020018280548015612ce157602002820191906000526020600020905b815481526020019060010190808311612ccd575b5050505050610e8e565b905060008090505b6011600f5481548110612d0257fe5b90600052602060002090600f020160020180549050811015612f995760008260646011600f5481548110612d3257fe5b90600052602060002090600f02016003018481548110612d4e57fe5b90600052602060002001540281612d6157fe5b04905060006011600f5481548110612d7557fe5b90600052602060002090600f02016003018381548110612d9157fe5b90600052602060002001546064836011600f5481548110612dae57fe5b90600052602060002090600f0201600401540281612dc857fe5b0401905060646032820281612dd957fe5b0490506011600f5481548110612deb57fe5b90600052602060002090600f02016002018381548110612e0757fe5b9060005260206000200160009054906101000a900473ffffffffffffffffffffffffffffffffffffffff1673ffffffffffffffffffffffffffffffffffffffff166108fc829081150290604051600060405180830381858888f19350505050158015612e77573d6000803e3d6000fd5b5060026011600f5481548110612e8957fe5b90600052602060002090600f0201600e0160006101000a81548160ff02191690836003811115612eb557fe5b021790555080600d6000828254039250508190555080600b600c60006011600f5481548110612ee057fe5b90600052602060002090600f02016002018781548110612efc57fe5b9060005260206000200160009054906101000a900473ffffffffffffffffffffffffffffffffffffffff1673ffffffffffffffffffffffffffffffffffffffff1673ffffffffffffffffffffffffffffffffffffffff1681526020019081526020016000205481548110612f6c57fe5b90600052602060002090600502016004016000828254019250508190555050508080600101915050612cf3565b5050506132c2565b600061301a6011600f5481548110612fb557fe5b90600052602060002090600f020160030180548060200260200160405190810160405280929190818152602001828054801561301057602002820191906000526020600020905b815481526020019060010190808311612ffc575b5050505050610e8e565b905060008090505b6011600f548154811061303157fe5b90600052602060002090600f0201600201805490508110156132bf5760008260646011600f548154811061306157fe5b90600052602060002090600f0201600301848154811061307d57fe5b9060005260206000200154028161309057fe5b0490506011600f54815481106130a257fe5b90600052602060002090600f020160030182815481106130be57fe5b90600052602060002001546064826011600f54815481106130db57fe5b90600052602060002090600f02016004015402816130f557fe5b04016010819055506011600f548154811061310c57fe5b90600052602060002090600f0201600201828154811061312857fe5b9060005260206000200160009054906101000a900473ffffffffffffffffffffffffffffffffffffffff1673ffffffffffffffffffffffffffffffffffffffff166108fc6010549081150290604051600060405180830381858888f1935050505015801561319a573d6000803e3d6000fd5b5060026011600f54815481106131ac57fe5b90600052602060002090600f0201600e0160006101000a81548160ff021916908360038111156131d857fe5b0217905550601054600d60008282540392505081905550601054600b600c60006011600f548154811061320757fe5b90600052602060002090600f0201600201868154811061322357fe5b9060005260206000200160009054906101000a900473ffffffffffffffffffffffffffffffffffffffff1673ffffffffffffffffffffffffffffffffffffffff1673ffffffffffffffffffffffffffffffffffffffff168152602001908152602001600020548154811061329357fe5b906000526020600020906005020160040160008282540192505081905550508080600101915050613022565b50505b5b505050565b600060606000600b600c60003373ffffffffffffffffffffffffffffffffffffffff1673ffffffffffffffffffffffffffffffffffffffff168152602001908152602001600020548154811061331a57fe5b906000526020600020906005020160000154600b600c60003373ffffffffffffffffffffffffffffffffffffffff1673ffffffffffffffffffffffffffffffffffffffff168152602001908152602001600020548154811061337857fe5b9060005260206000209060050201600101600b600c60003373ffffffffffffffffffffffffffffffffffffffff1673ffffffffffffffffffffffffffffffffffffffff16815260200190815260200160002054815481106133d557fe5b906000526020600020906005020160030154818054600181600116156101000203166002900480601f01602080910402602001604051908101604052809291908181526020018280546001816001161561010002031660029004801561347c5780601f106134515761010080835404028352916020019161347c565b820191906000526020600020905b81548152906001019060200180831161345f57829003601f168201915b50505050509150925092509250909192565b613496614018565b61349e614018565b6134b585858584613827909392919063ffffffff16565b9150509392505050565b6134d68284608001516138d790919063ffffffff16565b6134ed8184608001516138d790919063ffffffff16565b505050565b6135098284608001516138d790919063ffffffff16565b61351683608001516138fc565b60008090505b815181101561355c5761354f82828151811061353457fe5b602002602001015185608001516138d790919063ffffffff16565b808060010191505061351c565b5061356a836080015161390a565b505050565b600030600454604051602001808373ffffffffffffffffffffffffffffffffffffffff1673ffffffffffffffffffffffffffffffffffffffff1660601b815260140182815260200192505050604051602081830303815290604052805190602001209050600454836060018181525050836005600083815260200190815260200160002060006101000a81548173ffffffffffffffffffffffffffffffffffffffff021916908373ffffffffffffffffffffffffffffffffffffffff160217905550807fb5e6e01e79f91267dc17b4e6314d5d4d03593d2ceee0fbb452b750bd70ea5af960405160405180910390a2600260009054906101000a900473ffffffffffffffffffffffffffffffffffffffff1673ffffffffffffffffffffffffffffffffffffffff16634000aea085846136a787613918565b6040518463ffffffff1660e01b8152600401808473ffffffffffffffffffffffffffffffffffffffff1673ffffffffffffffffffffffffffffffffffffffff16815260200183815260200180602001828103825283818151815260200191508051906020019080838360005b8381101561372e578082015181840152602081019050613713565b50505050905090810190601f16801561375b5780820380516001836020036101000a031916815260200191505b50945050505050602060405180830381600087803b15801561377c57600080fd5b505af1158015613790573d6000803e3d6000fd5b505050506040513d60208110156137a657600080fd5b810190808051906020019092919050505061380c576040517f08c379a00000000000000000000000000000000000000000000000000000000081526004018080602001828103825260238152602001806143306023913960400191505060405180910390fd5b60016004600082825401925050819055508090509392505050565b61382f614018565b61383f8560800151610100613b1f565b508385600001818152505082856020019073ffffffffffffffffffffffffffffffffffffffff16908173ffffffffffffffffffffffffffffffffffffffff16815250508185604001907bffffffffffffffffffffffffffffffffffffffffffffffffffffffff191690817bffffffffffffffffffffffffffffffffffffffffffffffffffffffff191681525050849050949350505050565b6138e48260038351613b73565b6138f78183613cb890919063ffffffff16565b505050565b613907816004613cda565b50565b613915816007613cda565b50565b6060600360009054906101000a900473ffffffffffffffffffffffffffffffffffffffff1673ffffffffffffffffffffffffffffffffffffffff166340429946905060e01b60008084600001518560200151866040015187606001516001896080015160000151604051602401808973ffffffffffffffffffffffffffffffffffffffff1673ffffffffffffffffffffffffffffffffffffffff1681526020018881526020018781526020018673ffffffffffffffffffffffffffffffffffffffff1673ffffffffffffffffffffffffffffffffffffffff168152602001857bffffffffffffffffffffffffffffffffffffffffffffffffffffffff19167bffffffffffffffffffffffffffffffffffffffffffffffffffffffff1916815260200184815260200183815260200180602001828103825283818151815260200191508051906020019080838360005b83811015613a82578082015181840152602081019050613a67565b50505050905090810190601f168015613aaf5780820380516001836020036101000a031916815260200191505b509950505050505050505050604051602081830303815290604052907bffffffffffffffffffffffffffffffffffffffffffffffffffffffff19166020820180517bffffffffffffffffffffffffffffffffffffffffffffffffffffffff83818316178352505050509050919050565b613b27614131565b600060208381613b3357fe5b0614613b4c5760208281613b4357fe5b06602003820191505b81836020018181525050604051808452600081528281016020016040525082905092915050565b60178111613ba057613b9a8160058460ff16901b60ff161784613cfc90919063ffffffff16565b50613cb3565b60ff8111613be257613bc5601860058460ff16901b1784613cfc90919063ffffffff16565b50613bdc81600185613d1c9092919063ffffffff16565b50613cb2565b61ffff8111613c2557613c08601960058460ff16901b1784613cfc90919063ffffffff16565b50613c1f81600285613d1c9092919063ffffffff16565b50613cb1565b63ffffffff8111613c6a57613c4d601a60058460ff16901b1784613cfc90919063ffffffff16565b50613c6481600485613d1c9092919063ffffffff16565b50613cb0565b67ffffffffffffffff8111613caf57613c96601b60058460ff16901b1784613cfc90919063ffffffff16565b50613cad81600885613d1c9092919063ffffffff16565b505b5b5b5b5b505050565b613cc0614131565b613cd283846000015151848551613d3e565b905092915050565b613cf7601f60058360ff16901b1783613cfc90919063ffffffff16565b505050565b613d04614131565b613d148384600001515184613df7565b905092915050565b613d24614131565b613d35848560000151518585613e45565b90509392505050565b613d46614131565b8251821115613d5457600080fd5b84602001518285011115613d7f57613d7e856002613d788860200151888701613ea6565b02613ec2565b5b600080865180518760208301019350808887011115613d9e5787860182525b60208701925050505b60208410613dca5780518252602082019150602081019050602084039350613da7565b60006001856020036101000a03905080198251168184511681811785525050879350505050949350505050565b613dff614131565b83602001518310613e1c57613e1b846002866020015102613ec2565b5b8351805160208583010184815381861415613e38576001820183525b5050508390509392505050565b613e4d614131565b84602001518483011115613e6b57613e6a85600286850102613ec2565b5b60006001836101000a0390508551838682010185831982511617815281518588011115613e985784870182525b505085915050949350505050565b600081831115613eb857829050613ebc565b8190505b92915050565b606082600001519050613ed58383613b1f565b50613ee08382613cb8565b50505050565b815481835581811115613f1357600f0281600f028360005260206000209182019101613f12919061414b565b5b505050565b828054600181600116156101000203166002900490600052602060002090601f016020900481019282601f10613f5957805160ff1916838001178555613f87565b82800160010185558215613f87579182015b82811115613f86578251825591602001919060010190613f6b565b5b509050613f949190614245565b5090565b828054600181600116156101000203166002900490600052602060002090601f016020900481019282601f10613fd957805160ff1916838001178555614007565b82800160010185558215614007579182015b82811115614006578251825591602001919060010190613feb565b5b5090506140149190614245565b5090565b6040518060a0016040528060008019168152602001600073ffffffffffffffffffffffffffffffffffffffff16815260200160007bffffffffffffffffffffffffffffffffffffffffffffffffffffffff191681526020016000815260200161407f61426a565b81525090565b60405180610200016040528060008152602001600073ffffffffffffffffffffffffffffffffffffffff16815260200160608152602001606081526020016000815260200160008152602001606081526020016000815260200160008152602001600081526020016000815260200160008152602001600060ff168152602001600081526020016000600381111561411957fe5b81526020016000600181111561412b57fe5b81525090565b604051806040016040528060608152602001600081525090565b61424291905b8082111561423e576000808201600090556001820160006101000a81549073ffffffffffffffffffffffffffffffffffffffff02191690556002820160006141999190614284565b6003820160006141a991906142a5565b600482016000905560058201600090556006820160006141c991906142c6565b600782016000905560088201600090556009820160009055600a820160009055600b820160009055600c820160006101000a81549060ff0219169055600d820160009055600e820160006101000a81549060ff0219169055600e820160016101000a81549060ff021916905550600f01614151565b5090565b90565b61426791905b8082111561426357600081600090555060010161424b565b5090565b90565b604051806040016040528060608152602001600081525090565b50805460008255906000526020600020908101906142a29190614245565b50565b50805460008255906000526020600020908101906142c39190614245565b50565b50805460018160011615610100020316600290046000825580601f106142ec575061430b565b601f01602090049060005260206000209081019061430a9190614245565b5b5056fe4f6e6c79206661726d65722063616e206d616b652061206e657720706f6c696379756e61626c6520746f207472616e73666572416e6443616c6c20746f206f7261636c65536f75726365206d75737420626520746865206f7261636c65206f66207468652072657175657374436f76657261676520416d6f756e74206973206e6f742066756c6c66696c6c6564a265627a7a7231582003c2774a151d7623e61c7ee9e74b36eecfdacf644ae803d66ac9c28032314aa864736f6c63430005100032353030302077656920696e697469616c2066756e64696e67207265717569726564",
  "source": "pragma solidity >=0.5.0;\r\n\r\nimport \"chainlink/v0.5/contracts/ChainlinkClient.sol\";\r\n\r\ncontract genz is ChainlinkClient {\r\n    struct Details {\r\n        uint256 aadhaar;\r\n        string name;\r\n        address id;\r\n        uint256 role;\r\n        int256 bal;\r\n    }\r\n\r\n    address private oracle;\r\n    bytes32 private jobId;\r\n    uint256 private fee;\r\n\r\n    mapping(address => address) public request;\r\n    mapping(address => address) public auth;\r\n\r\n    Details[] public details; // array of all the people registered\r\n    mapping(address => uint256) public deets; // map address to id in the array\r\n\r\n    // function to register the person\r\n    function _register(\r\n        uint256 aadhaar,\r\n        string memory name,\r\n        uint256 role\r\n    ) public {\r\n        details.push(Details(aadhaar, name, msg.sender, role, 0));\r\n        deets[msg.sender] = details.length - 1;\r\n    }\r\n\r\n    struct cropType {\r\n        string name;\r\n        uint256 premiumPerAcre; //in wei\r\n        uint256 coveragePerAcre; //in wei\r\n    }\r\n\r\n    struct policy {\r\n        uint256 policyId;\r\n        address payable user; // farmer address\r\n        address payable[] cover; // array of all investors\r\n        uint256[] amtCover; // array of cover paid by each investor\r\n        uint256 premium;\r\n        uint256 area;\r\n        string location;\r\n        uint256 duration;\r\n        uint256 startTime;\r\n        uint256 endTime; //crop's season dependent\r\n        uint256 coverageAmount; //depends on crop type\r\n        uint256 forFlood;\r\n        uint8 cropId;\r\n        uint256 policySum; // current cover generated by policy\r\n        policyState state; // see if the policy is still available or not\r\n        status st; // determine if the policy is closed or not\r\n    }\r\n\r\n    enum policyState {Pending, Active, PaidOut, TimedOut}\r\n    enum status {Open, Close}\r\n\r\n    uint256 private balance; // holds the amount in the risk pool\r\n    uint256 private result = 2;\r\n    uint256 private claimPolicyId;\r\n    uint256 public payoutAmount;\r\n\r\n    policy[] public policies; // holds all the policies\r\n    cropType[2] public cropTypes; //crops defined in constructor\r\n    mapping(address => uint256[]) public userPolicies; //user address to array of policy IDs\r\n\r\n    constructor() public payable {\r\n        require(msg.value == 5000 wei, \"5000 wei initial funding required\");\r\n        setPublicChainlinkToken();\r\n        oracle = 0xcb65E9b36eB788Ab0F94f06FB3906EcfAF4e055A; // oracle address\r\n        jobId = \"ecd449555254420abf55f98469c2fcaa\"; //job id\r\n        fee = 0.1 * 10**18; // 0.1 LINK\r\n        newCrop(0, \"rabi\", 1, 7);\r\n        newCrop(1, \"kharif\", 2, 10);\r\n        balance += msg.value;\r\n    }\r\n\r\n    function newCrop(\r\n        uint8 _cropId,\r\n        string memory _name,\r\n        uint256 _premiumPerAcre,\r\n        uint256 _coveragePerAcre\r\n    ) internal {\r\n        cropType memory c = cropType(_name, _premiumPerAcre, _coveragePerAcre);\r\n        cropTypes[_cropId] = c;\r\n    }\r\n\r\n    function newPolicy(\r\n        uint256 _area,\r\n        uint256 _forFlood,\r\n        uint8 _cropId,\r\n        uint256 _duration,\r\n        string memory _location\r\n    ) public payable {\r\n        require(\r\n            details[deets[msg.sender]].role == 0,\r\n            \"Only farmer can make a new policy\"\r\n        );\r\n        require(\r\n            msg.value == (cropTypes[_cropId].premiumPerAcre * _area),\r\n            \"Incorrect Premium Amount\"\r\n        );\r\n\r\n        balance += msg.value; // update risk pool balance\r\n        details[deets[msg.sender]].bal -= int256(msg.value); // update user balance\r\n\r\n        uint256 pId = policies.length++;\r\n        userPolicies[msg.sender].push(pId);\r\n        policy storage p = policies[pId]; // store the policy in an array\r\n\r\n        p.user = msg.sender;\r\n        p.premium = cropTypes[_cropId].premiumPerAcre * _area;\r\n        p.location = _location;\r\n        p.area = _area;\r\n        p.startTime = now;\r\n        p.duration = _duration;\r\n        p.endTime = now + _duration * 30 * 24 * 60 * 60; //converting months to seconds\r\n        p.coverageAmount = cropTypes[_cropId].coveragePerAcre * _area;\r\n        p.forFlood = _forFlood;\r\n        p.cropId = _cropId;\r\n        p.state = policyState.Active;\r\n        p.st = status.Open;\r\n    }\r\n\r\n    function coverForPolicy(uint256 _policyId) external payable {\r\n        require(\r\n            details[deets[msg.sender]].role == 1,\r\n            \"Only investors can provide money\"\r\n        );\r\n\r\n        policy storage p = policies[_policyId];\r\n        require(msg.value <= p.coverageAmount, \"Incorrect Cover Amount\");\r\n        require(p.st == status.Open, \" Policy is closed cannot cover \");\r\n        require(\r\n            p.policySum + msg.value <= p.coverageAmount,\r\n            \" Coverage amount exceeded \"\r\n        );\r\n\r\n        details[deets[msg.sender]].bal -= int256(msg.value);\r\n        balance = balance + msg.value;\r\n        userPolicies[msg.sender].push(_policyId);\r\n        p.cover.push(msg.sender);\r\n        p.amtCover.push(msg.value);\r\n        p.policySum += msg.value;\r\n\r\n        if (p.policySum == p.coverageAmount) {\r\n            p.st = status.Close;\r\n        }\r\n    }\r\n\r\n    function claim(\r\n        uint256 _policyId,\r\n        string memory s1,\r\n        string memory s2\r\n    ) public {\r\n        require(msg.sender == policies[_policyId].user, \"User Not Authorized\");\r\n        require(\r\n            policies[_policyId].state == policyState.Active,\r\n            \"Policy Not Active\"\r\n        );\r\n        require(\r\n            policies[_policyId].st == status.Close,\r\n            \"Coverage Amount is not fullfilled\"\r\n        );\r\n\r\n        if (now > policies[_policyId].endTime) {\r\n            policies[_policyId].state = policyState.TimedOut;\r\n            revert(\"Policy's period has Ended.\");\r\n        }\r\n\r\n        claimPolicyId = _policyId;\r\n\r\n        Chainlink.Request memory req = buildChainlinkRequest(\r\n            jobId,\r\n            address(this),\r\n            this.fullfillWeather.selector\r\n        );\r\n        req.add(\"city\", \"Mumbai\");\r\n        req.add(\"start_date\", s1);\r\n        req.add(\"end_date\", s2);\r\n        string[] memory copyPath = new string[](3);\r\n        copyPath[0] = \"data\";\r\n        copyPath[1] = \"0\";\r\n        copyPath[2] = \"precip\";\r\n        req.addStringArray(\"copyPath\", copyPath);\r\n        // req.addInt(\"times\", 100);\r\n        sendChainlinkRequestTo(oracle, req, fee);\r\n\r\n        /* TODO check weather condition over here TODO*/\r\n\r\n        // check condition and accordingly pay\r\n        //     if(result == 0){\r\n        //         payoutAmount = uint(policies[claimPolicyId].coverageAmount) + uint(policies[claimPolicyId].premium);\r\n        //         policies[claimPolicyId].user.transfer(payoutAmount);\r\n        //         policies[claimPolicyId].state = policyState.PaidOut;\r\n        //         balance-=payoutAmount;\r\n        //         details[deets[policies[claimPolicyId].user]].bal += int(payoutAmount);\r\n        //     }\r\n        //     else if(result == 1 ){\r\n        //         uint payoutAmountFarmer = uint(policies[claimPolicyId].coverageAmount * 50/100) + uint(policies[claimPolicyId].premium * 50/100);\r\n        //         policies[claimPolicyId].user.transfer(payoutAmountFarmer);\r\n        //         balance-=payoutAmountFarmer;\r\n        //         details[deets[policies[claimPolicyId].user]].bal += int(payoutAmountFarmer);\r\n\r\n        //         uint y = sum(policies[claimPolicyId].amtCover);\r\n        //         for (uint j=0 ; j<policies[claimPolicyId].cover.length; j++){\r\n        //             uint ratio1 = uint((policies[claimPolicyId].amtCover[j]) * 100)/uint(y);\r\n        //             uint payoutAmountInv = uint( policies[claimPolicyId].premium * ratio1/100 ) + uint(policies[claimPolicyId].amtCover[j]);\r\n        //             payoutAmountInv = payoutAmountInv * 50/100;\r\n        //             policies[claimPolicyId].cover[j].transfer(payoutAmountInv);\r\n        //             policies[claimPolicyId].state = policyState.PaidOut;\r\n        //             balance-=payoutAmountInv;\r\n        //             details[deets[policies[claimPolicyId].cover[j]]].bal += int(payoutAmountInv);\r\n        //         }\r\n        //     }\r\n        //     else{\r\n        //          uint x = sum(policies[claimPolicyId].amtCover);\r\n\r\n        //         for (uint i=0; i<policies[claimPolicyId].cover.length; i++){\r\n        //             uint ratio = uint((policies[claimPolicyId].amtCover[i]) * 100)/uint(x);\r\n        //             payoutAmount = uint( policies[claimPolicyId].premium * ratio/100 ) + uint(policies[claimPolicyId].amtCover[i]);\r\n        //             policies[claimPolicyId].cover[i].transfer(payoutAmount);\r\n        //             policies[claimPolicyId].state = policyState.PaidOut;\r\n        //             balance-=payoutAmount;\r\n        //             details[deets[policies[claimPolicyId].cover[i]]].bal += int(payoutAmount);\r\n        //         }\r\n        // }\r\n    }\r\n\r\n    function fullfillWeather(bytes32 _requestId, uint256 _rain)\r\n        public\r\n        recordChainlinkFulfillment(_requestId)\r\n    {\r\n        result = _rain;\r\n        if (result > 15000) {\r\n            payoutAmount =\r\n                uint256(policies[claimPolicyId].coverageAmount) +\r\n                uint256(policies[claimPolicyId].premium);\r\n            policies[claimPolicyId].user.transfer(payoutAmount);\r\n            policies[claimPolicyId].state = policyState.PaidOut;\r\n            balance -= payoutAmount;\r\n            details[deets[policies[claimPolicyId].user]].bal += int256(\r\n                payoutAmount\r\n            );\r\n        } else if (result <= 15000 && result>10000) {\r\n            uint256 payoutAmountFarmer = uint256(\r\n                (policies[claimPolicyId].coverageAmount * 50) / 100\r\n            ) + uint256((policies[claimPolicyId].premium * 50) / 100);\r\n            policies[claimPolicyId].user.transfer(payoutAmountFarmer);\r\n            balance -= payoutAmountFarmer;\r\n            details[deets[policies[claimPolicyId].user]].bal += int256(\r\n                payoutAmountFarmer\r\n            );\r\n\r\n            uint256 y = sum(policies[claimPolicyId].amtCover);\r\n            for (uint256 j = 0; j < policies[claimPolicyId].cover.length; j++) {\r\n                uint256 ratio1 = uint256(\r\n                    (policies[claimPolicyId].amtCover[j]) * 100\r\n                ) / uint256(y);\r\n                uint256 payoutAmountInv = uint256(\r\n                    (policies[claimPolicyId].premium * ratio1) / 100\r\n                ) + uint256(policies[claimPolicyId].amtCover[j]);\r\n                payoutAmountInv = (payoutAmountInv * 50) / 100;\r\n                policies[claimPolicyId].cover[j].transfer(payoutAmountInv);\r\n                policies[claimPolicyId].state = policyState.PaidOut;\r\n                balance -= payoutAmountInv;\r\n                details[deets[policies[claimPolicyId].cover[j]]].bal += int256(\r\n                    payoutAmountInv\r\n                );\r\n            }\r\n        } else {\r\n            uint256 x = sum(policies[claimPolicyId].amtCover);\r\n\r\n            for (uint256 i = 0; i < policies[claimPolicyId].cover.length; i++) {\r\n                uint256 ratio = uint256(\r\n                    (policies[claimPolicyId].amtCover[i]) * 100\r\n                ) / uint256(x);\r\n                payoutAmount =\r\n                    uint256((policies[claimPolicyId].premium * ratio) / 100) +\r\n                    uint256(policies[claimPolicyId].amtCover[i]);\r\n                policies[claimPolicyId].cover[i].transfer(payoutAmount);\r\n                policies[claimPolicyId].state = policyState.PaidOut;\r\n                balance -= payoutAmount;\r\n                details[deets[policies[claimPolicyId].cover[i]]].bal += int256(\r\n                    payoutAmount\r\n                );\r\n            }\r\n        }\r\n    }\r\n\r\n    function sum(uint256[] memory x) public pure returns (uint256) {\r\n        uint256 s = 0;\r\n        for (uint256 i = 0; i < x.length; i++) {\r\n            s += x[i];\r\n        }\r\n        return s;\r\n    }\r\n\r\n    // function returns the details of the person calling the function\r\n    function getDetails()\r\n        public\r\n        view\r\n        returns (\r\n            uint256,\r\n            string memory,\r\n            uint256\r\n        )\r\n    {\r\n        return (\r\n            details[deets[msg.sender]].aadhaar,\r\n            details[deets[msg.sender]].name,\r\n            details[deets[msg.sender]].role\r\n        );\r\n    }\r\n\r\n    // function to get the balance of the user\r\n    function getBalanceUser() public view returns (int256) {\r\n        return details[deets[msg.sender]].bal;\r\n    }\r\n\r\n    // function to get the balance of the smart contract\r\n    function getBalance() public view returns (uint256) {\r\n        return balance;\r\n    }\r\n\r\n    // function to get all policy of a user\r\n    function getPolicyUser() public view returns (uint256[] memory) {\r\n        return userPolicies[msg.sender];\r\n    }\r\n\r\n    // function to get policy details of a particular id\r\n    // function to get policy details of a particular id\r\n    function getPolicyDetails(uint256 _policyId)\r\n        public\r\n        view\r\n        returns (\r\n            address payable,\r\n            address payable[] memory,\r\n            uint256[] memory,\r\n            string memory,\r\n            uint256[] memory,\r\n            uint8,\r\n            status,\r\n            policyState\r\n        )\r\n    {\r\n        policy memory p = policies[_policyId];\r\n        uint256[] memory a = new uint256[](7);\r\n        a[0] = _policyId;\r\n        a[1] = (p.premium);\r\n        a[2] = (p.area);\r\n        a[3] = (p.startTime);\r\n        a[4] = (p.endTime);\r\n        a[5] = (p.coverageAmount);\r\n        a[6] = (p.policySum);\r\n        return (\r\n            p.user,\r\n            p.cover,\r\n            p.amtCover,\r\n            p.location,\r\n            a,\r\n            p.cropId,\r\n            p.st,\r\n            p.state\r\n        );\r\n    }\r\n\r\n    function getPolicyLength() public view returns (uint256) {\r\n        return policies.length;\r\n    }\r\n\r\n    function login() public view returns (uint256) {\r\n        for (uint256 i = 0; i < details.length; i++) {\r\n            if (details[i].id == msg.sender) {\r\n                return 1;\r\n            }\r\n        }\r\n        return 0;\r\n    }\r\n\r\n    // function to request the farmer to view his details\r\n    /*function requestFarmer(address farmerAddress) public {\r\n        // find farmer address using his aadhaar\r\n        require(details[deets[farmerAddress]].role == 0);\r\n        require(details[deets[msg.sender]].role == 1);\r\n        request[farmerAddress] = msg.sender; \r\n    }\r\n\r\n    // called by farmer to authorize an invesotr to view his detials \r\n    function approveInvestor() public returns (uint, string memory, uint){\r\n        \r\n        require(details[deets[msg.sender]].role == 0);\r\n        address investorAddress = request[msg.sender];\r\n        auth[msg.sender] = investorAddress;\r\n\r\n        return (details[deets[msg.sender]].aadhaar, details[deets[msg.sender]].name, details[deets[msg.sender]].role );\r\n\r\n    }*/\r\n}\r\n",
  "sourcePath": "D:/major_project/genz2/contracts/genz.sol",
  "compiler": {
    "name": "solc",
    "version": "0.5.16+commit.9c3226ce.Emscripten.clang"
  },
  "schemaVersion": "3.3.0",
  "updatedAt": "2020-11-03T18:19:56.606Z",
  "networkType": "ethereum",
  "devdoc": {
    "methods": {}
  },
  "userdoc": {
    "methods": {}
  }
}