{
  "contractName": "genz",
  "abi": [
    {
      "inputs": [],
      "payable": true,
      "stateMutability": "payable",
      "type": "constructor"
    },
    {
      "constant": true,
      "inputs": [
        {
          "internalType": "address",
          "name": "",
          "type": "address"
        }
      ],
      "name": "auth",
      "outputs": [
        {
          "internalType": "address",
          "name": "",
          "type": "address"
        }
      ],
      "payable": false,
      "stateMutability": "view",
      "type": "function"
    },
    {
      "constant": true,
      "inputs": [
        {
          "internalType": "uint256",
          "name": "",
          "type": "uint256"
        }
      ],
      "name": "cropTypes",
      "outputs": [
        {
          "internalType": "string",
          "name": "name",
          "type": "string"
        },
        {
          "internalType": "uint256",
          "name": "premiumPerAcre",
          "type": "uint256"
        },
        {
          "internalType": "uint256",
          "name": "coveragePerAcre",
          "type": "uint256"
        }
      ],
      "payable": false,
      "stateMutability": "view",
      "type": "function"
    },
    {
      "constant": true,
      "inputs": [
        {
          "internalType": "address",
          "name": "",
          "type": "address"
        }
      ],
      "name": "deets",
      "outputs": [
        {
          "internalType": "uint256",
          "name": "",
          "type": "uint256"
        }
      ],
      "payable": false,
      "stateMutability": "view",
      "type": "function"
    },
    {
      "constant": true,
      "inputs": [
        {
          "internalType": "uint256",
          "name": "",
          "type": "uint256"
        }
      ],
      "name": "details",
      "outputs": [
        {
          "internalType": "uint256",
          "name": "aadhaar",
          "type": "uint256"
        },
        {
          "internalType": "string",
          "name": "name",
          "type": "string"
        },
        {
          "internalType": "address",
          "name": "id",
          "type": "address"
        },
        {
          "internalType": "uint256",
          "name": "role",
          "type": "uint256"
        },
        {
          "internalType": "int256",
          "name": "bal",
          "type": "int256"
        }
      ],
      "payable": false,
      "stateMutability": "view",
      "type": "function"
    },
    {
      "constant": true,
      "inputs": [],
      "name": "payoutAmount",
      "outputs": [
        {
          "internalType": "uint256",
          "name": "",
          "type": "uint256"
        }
      ],
      "payable": false,
      "stateMutability": "view",
      "type": "function"
    },
    {
      "constant": true,
      "inputs": [
        {
          "internalType": "uint256",
          "name": "",
          "type": "uint256"
        }
      ],
      "name": "policies",
      "outputs": [
        {
          "internalType": "uint256",
          "name": "policyId",
          "type": "uint256"
        },
        {
          "internalType": "address payable",
          "name": "user",
          "type": "address"
        },
        {
          "internalType": "uint256",
          "name": "premium",
          "type": "uint256"
        },
        {
          "internalType": "uint256",
          "name": "area",
          "type": "uint256"
        },
        {
          "internalType": "string",
          "name": "location",
          "type": "string"
        },
        {
          "internalType": "uint256",
          "name": "duration",
          "type": "uint256"
        },
        {
          "internalType": "uint256",
          "name": "startTime",
          "type": "uint256"
        },
        {
          "internalType": "uint256",
          "name": "endTime",
          "type": "uint256"
        },
        {
          "internalType": "uint256",
          "name": "coverageAmount",
          "type": "uint256"
        },
        {
          "internalType": "uint256",
          "name": "forFlood",
          "type": "uint256"
        },
        {
          "internalType": "uint8",
          "name": "cropId",
          "type": "uint8"
        },
        {
          "internalType": "uint256",
          "name": "policySum",
          "type": "uint256"
        },
        {
          "internalType": "enum genz.policyState",
          "name": "state",
          "type": "uint8"
        },
        {
          "internalType": "enum genz.status",
          "name": "st",
          "type": "uint8"
        }
      ],
      "payable": false,
      "stateMutability": "view",
      "type": "function"
    },
    {
      "constant": true,
      "inputs": [
        {
          "internalType": "address",
          "name": "",
          "type": "address"
        }
      ],
      "name": "request",
      "outputs": [
        {
          "internalType": "address",
          "name": "",
          "type": "address"
        }
      ],
      "payable": false,
      "stateMutability": "view",
      "type": "function"
    },
    {
      "constant": true,
      "inputs": [
        {
          "internalType": "address",
          "name": "",
          "type": "address"
        },
        {
          "internalType": "uint256",
          "name": "",
          "type": "uint256"
        }
      ],
      "name": "userPolicies",
      "outputs": [
        {
          "internalType": "uint256",
          "name": "",
          "type": "uint256"
        }
      ],
      "payable": false,
      "stateMutability": "view",
      "type": "function"
    },
    {
      "constant": false,
      "inputs": [
        {
          "internalType": "uint256",
          "name": "aadhaar",
          "type": "uint256"
        },
        {
          "internalType": "string",
          "name": "name",
          "type": "string"
        },
        {
          "internalType": "uint256",
          "name": "role",
          "type": "uint256"
        }
      ],
      "name": "_register",
      "outputs": [],
      "payable": false,
      "stateMutability": "nonpayable",
      "type": "function"
    },
    {
      "constant": false,
      "inputs": [
        {
          "internalType": "uint256",
          "name": "_area",
          "type": "uint256"
        },
        {
          "internalType": "uint256",
          "name": "_forFlood",
          "type": "uint256"
        },
        {
          "internalType": "uint8",
          "name": "_cropId",
          "type": "uint8"
        },
        {
          "internalType": "uint256",
          "name": "_duration",
          "type": "uint256"
        },
        {
          "internalType": "string",
          "name": "_location",
          "type": "string"
        }
      ],
      "name": "newPolicy",
      "outputs": [],
      "payable": true,
      "stateMutability": "payable",
      "type": "function"
    },
    {
      "constant": false,
      "inputs": [
        {
          "internalType": "uint256",
          "name": "_policyId",
          "type": "uint256"
        }
      ],
      "name": "coverForPolicy",
      "outputs": [],
      "payable": true,
      "stateMutability": "payable",
      "type": "function"
    },
    {
      "constant": false,
      "inputs": [
        {
          "internalType": "uint256",
          "name": "_policyId",
          "type": "uint256"
        }
      ],
      "name": "claim",
      "outputs": [],
      "payable": false,
      "stateMutability": "nonpayable",
      "type": "function"
    },
    {
      "constant": true,
      "inputs": [
        {
          "internalType": "uint256[]",
          "name": "x",
          "type": "uint256[]"
        }
      ],
      "name": "sum",
      "outputs": [
        {
          "internalType": "uint256",
          "name": "",
          "type": "uint256"
        }
      ],
      "payable": false,
      "stateMutability": "pure",
      "type": "function"
    },
    {
      "constant": true,
      "inputs": [],
      "name": "getDetails",
      "outputs": [
        {
          "internalType": "uint256",
          "name": "",
          "type": "uint256"
        },
        {
          "internalType": "string",
          "name": "",
          "type": "string"
        },
        {
          "internalType": "uint256",
          "name": "",
          "type": "uint256"
        }
      ],
      "payable": false,
      "stateMutability": "view",
      "type": "function"
    },
    {
      "constant": true,
      "inputs": [],
      "name": "getBalanceUser",
      "outputs": [
        {
          "internalType": "int256",
          "name": "",
          "type": "int256"
        }
      ],
      "payable": false,
      "stateMutability": "view",
      "type": "function"
    },
    {
      "constant": true,
      "inputs": [],
      "name": "getBalance",
      "outputs": [
        {
          "internalType": "uint256",
          "name": "",
          "type": "uint256"
        }
      ],
      "payable": false,
      "stateMutability": "view",
      "type": "function"
    },
    {
      "constant": true,
      "inputs": [],
      "name": "getPolicyUser",
      "outputs": [
        {
          "internalType": "uint256[]",
          "name": "",
          "type": "uint256[]"
        }
      ],
      "payable": false,
      "stateMutability": "view",
      "type": "function"
    },
    {
      "constant": true,
      "inputs": [
        {
          "internalType": "uint256",
          "name": "_policyId",
          "type": "uint256"
        }
      ],
      "name": "getPolicyDetails",
      "outputs": [
        {
          "internalType": "uint256",
          "name": "",
          "type": "uint256"
        },
        {
          "internalType": "address payable",
          "name": "",
          "type": "address"
        },
        {
          "internalType": "address payable[]",
          "name": "",
          "type": "address[]"
        },
        {
          "internalType": "uint256[]",
          "name": "",
          "type": "uint256[]"
        },
        {
          "internalType": "string",
          "name": "",
          "type": "string"
        },
        {
          "internalType": "uint256",
          "name": "",
          "type": "uint256"
        },
        {
          "internalType": "uint256",
          "name": "",
          "type": "uint256"
        },
        {
          "internalType": "uint256",
          "name": "",
          "type": "uint256"
        },
        {
          "internalType": "uint256",
          "name": "",
          "type": "uint256"
        },
        {
          "internalType": "uint256",
          "name": "",
          "type": "uint256"
        },
        {
          "internalType": "uint8",
          "name": "",
          "type": "uint8"
        },
        {
          "internalType": "enum genz.policyState",
          "name": "",
          "type": "uint8"
        }
      ],
      "payable": false,
      "stateMutability": "view",
      "type": "function"
    },
    {
      "constant": true,
      "inputs": [],
      "name": "getPolicyLength",
      "outputs": [
        {
          "internalType": "uint256",
          "name": "",
          "type": "uint256"
        }
      ],
      "payable": false,
      "stateMutability": "view",
      "type": "function"
    }
  ],
  "bytecode": "0x60806040526001600555611388341462000065576040517f08c379a000000000000000000000000000000000000000000000000000000000815260040180806020018281038252602181526020018062002e846021913960400191505060405180910390fd5b620000b160006040518060400160405280600481526020017f7261626900000000000000000000000000000000000000000000000000000000815250600160076200011360201b60201c565b620000fd60016040518060400160405280600681526020017f6b686172696600000000000000000000000000000000000000000000000000008152506002600a6200011360201b60201c565b346004600082825401925050819055506200025d565b6200011d6200018d565b60405180606001604052808581526020018481526020018381525090508060098660ff16600281106200014c57fe5b6003020160008201518160000190805190602001906200016e929190620001ae565b5060208201518160010155604082015181600201559050505050505050565b60405180606001604052806060815260200160008152602001600081525090565b828054600181600116156101000203166002900490600052602060002090601f016020900481019282601f10620001f157805160ff191683800117855562000222565b8280016001018555821562000222579182015b828111156200022157825182559160200191906001019062000204565b5b50905062000231919062000235565b5090565b6200025a91905b80821115620002565760008160009055506001016200023c565b5090565b90565b612c17806200026d6000396000f3fe6080604052600436106101145760003560e01c806356634caa116100a0578063cc03801011610064578063cc0380101461082a578063cd5d2118146109ed578063d16a993914610a7e578063d3e8948314610aac578063fbbf93a014610c0957610114565b806356634caa146105705780635a8f29ed146105d55780636b46c8c3146106975780636fc617b1146106c2578063a005ec7a1461072e57610114565b8063379607f5116100e7578063379607f5146102d95780633d36adc514610314578063404787011461038357806343fd94a71461046957806350244fb31461054557610114565b80630194db8e1461011957806312065fe0146101f257806327c78c421461021d57806331dacf77146102ae575b600080fd5b34801561012557600080fd5b506101dc6004803603602081101561013c57600080fd5b810190808035906020019064010000000081111561015957600080fd5b82018360208201111561016b57600080fd5b8035906020019184602083028401116401000000008311171561018d57600080fd5b919080806020026020016040519081016040528093929190818152602001838360200280828437600081840152601f19601f820116905080830192505050505050509192919290505050610ca7565b6040518082815260200191505060405180910390f35b3480156101fe57600080fd5b50610207610cec565b6040518082815260200191505060405180910390f35b34801561022957600080fd5b5061026c6004803603602081101561024057600080fd5b81019080803573ffffffffffffffffffffffffffffffffffffffff169060200190929190505050610cf6565b604051808273ffffffffffffffffffffffffffffffffffffffff1673ffffffffffffffffffffffffffffffffffffffff16815260200191505060405180910390f35b3480156102ba57600080fd5b506102c3610d29565b6040518082815260200191505060405180910390f35b3480156102e557600080fd5b50610312600480360360208110156102fc57600080fd5b8101908080359060200190929190505050610d8e565b005b34801561032057600080fd5b5061036d6004803603604081101561033757600080fd5b81019080803573ffffffffffffffffffffffffffffffffffffffff1690602001909291908035906020019092919050505061157d565b6040518082815260200191505060405180910390f35b610467600480360360a081101561039957600080fd5b810190808035906020019092919080359060200190929190803560ff16906020019092919080359060200190929190803590602001906401000000008111156103e157600080fd5b8201836020820111156103f357600080fd5b8035906020019184600183028401116401000000008311171561041557600080fd5b91908080601f016020809104026020016040519081016040528093929190818152602001838380828437600081840152601f19601f8201169050808301925050505050505091929192905050506115ab565b005b34801561047557600080fd5b506105436004803603606081101561048c57600080fd5b8101908080359060200190929190803590602001906401000000008111156104b357600080fd5b8201836020820111156104c557600080fd5b803590602001918460018302840111640100000000831117156104e757600080fd5b91908080601f016020809104026020016040519081016040528093929190818152602001838380828437600081840152601f19601f82011690508083019250505050505050919291929080359060200190929190505050611956565b005b34801561055157600080fd5b5061055a611a97565b6040518082815260200191505060405180910390f35b34801561057c57600080fd5b506105bf6004803603602081101561059357600080fd5b81019080803573ffffffffffffffffffffffffffffffffffffffff169060200190929190505050611aa4565b6040518082815260200191505060405180910390f35b3480156105e157600080fd5b5061060e600480360360208110156105f857600080fd5b8101908080359060200190929190505050611abc565b6040518080602001848152602001838152602001828103825285818151815260200191508051906020019080838360005b8381101561065a57808201518184015260208101905061063f565b50505050905090810190601f1680156106875780820380516001836020036101000a031916815260200191505b5094505050505060405180910390f35b3480156106a357600080fd5b506106ac611b81565b6040518082815260200191505060405180910390f35b3480156106ce57600080fd5b506106d7611b87565b6040518080602001828103825283818151815260200191508051906020019060200280838360005b8381101561071a5780820151818401526020810190506106ff565b505050509050019250505060405180910390f35b34801561073a57600080fd5b506107676004803603602081101561075157600080fd5b8101908080359060200190929190505050611c1c565b60405180868152602001806020018573ffffffffffffffffffffffffffffffffffffffff1673ffffffffffffffffffffffffffffffffffffffff168152602001848152602001838152602001828103825286818151815260200191508051906020019080838360005b838110156107eb5780820151818401526020810190506107d0565b50505050905090810190601f1680156108185780820380516001836020036101000a031916815260200191505b50965050505050505060405180910390f35b34801561083657600080fd5b506108636004803603602081101561084d57600080fd5b8101908080359060200190929190505050611d17565b604051808d81526020018c73ffffffffffffffffffffffffffffffffffffffff1673ffffffffffffffffffffffffffffffffffffffff1681526020018060200180602001806020018b81526020018a81526020018981526020018881526020018781526020018660ff1660ff1681526020018560038111156108e157fe5b60ff16815260200184810384528e818151815260200191508051906020019060200280838360005b83811015610924578082015181840152602081019050610909565b5050505090500184810383528d818151815260200191508051906020019060200280838360005b8381101561096657808201518184015260208101905061094b565b5050505090500184810382528c818151815260200191508051906020019080838360005b838110156109a557808201518184015260208101905061098a565b50505050905090810190601f1680156109d25780820380516001836020036101000a031916815260200191505b509f5050505050505050505050505050505060405180910390f35b3480156109f957600080fd5b50610a3c60048036036020811015610a1057600080fd5b81019080803573ffffffffffffffffffffffffffffffffffffffff169060200190929190505050612078565b604051808273ffffffffffffffffffffffffffffffffffffffff1673ffffffffffffffffffffffffffffffffffffffff16815260200191505060405180910390f35b610aaa60048036036020811015610a9457600080fd5b81019080803590602001909291905050506120ab565b005b348015610ab857600080fd5b50610ae560048036036020811015610acf57600080fd5b81019080803590602001909291905050506124fb565b604051808f81526020018e73ffffffffffffffffffffffffffffffffffffffff1673ffffffffffffffffffffffffffffffffffffffff1681526020018d81526020018c8152602001806020018b81526020018a81526020018981526020018881526020018781526020018660ff1660ff168152602001858152602001846003811115610b6d57fe5b60ff168152602001836001811115610b8157fe5b60ff16815260200182810382528c818151815260200191508051906020019080838360005b83811015610bc1578082015181840152602081019050610ba6565b50505050905090810190601f168015610bee5780820380516001836020036101000a031916815260200191505b509f5050505050505050505050505050505060405180910390f35b348015610c1557600080fd5b50610c1e612653565b6040518084815260200180602001838152602001828103825284818151815260200191508051906020019080838360005b83811015610c6a578082015181840152602081019050610c4f565b50505050905090810190601f168015610c975780820380516001836020036101000a031916815260200191505b5094505050505060405180910390f35b6000806000905060008090505b8351811015610ce257838181518110610cc957fe5b6020026020010151820191508080600101915050610cb4565b5080915050919050565b6000600454905090565b60006020528060005260406000206000915054906101000a900473ffffffffffffffffffffffffffffffffffffffff1681565b60006002600360003373ffffffffffffffffffffffffffffffffffffffff1673ffffffffffffffffffffffffffffffffffffffff1681526020019081526020016000205481548110610d7757fe5b906000526020600020906005020160040154905090565b60088181548110610d9b57fe5b90600052602060002090600f020160010160009054906101000a900473ffffffffffffffffffffffffffffffffffffffff1673ffffffffffffffffffffffffffffffffffffffff163373ffffffffffffffffffffffffffffffffffffffff1614610e6d576040517f08c379a00000000000000000000000000000000000000000000000000000000081526004018080602001828103825260138152602001807f55736572204e6f7420417574686f72697a65640000000000000000000000000081525060200191505060405180910390fd5b60016003811115610e7a57fe5b60088281548110610e8757fe5b90600052602060002090600f0201600e0160009054906101000a900460ff166003811115610eb157fe5b14610f24576040517f08c379a00000000000000000000000000000000000000000000000000000000081526004018080602001828103825260118152602001807f506f6c696379204e6f742041637469766500000000000000000000000000000081525060200191505060405180910390fd5b600180811115610f3057fe5b60088281548110610f3d57fe5b90600052602060002090600f0201600e0160019054906101000a900460ff166001811115610f6757fe5b14610fbd576040517f08c379a0000000000000000000000000000000000000000000000000000000008152600401808060200182810382526021815260200180612bc26021913960400191505060405180910390fd5b60088181548110610fca57fe5b90600052602060002090600f02016009015442111561109157600360088281548110610ff257fe5b90600052602060002090600f0201600e0160006101000a81548160ff0219169083600381111561101e57fe5b02179055506040517f08c379a000000000000000000000000000000000000000000000000000000000815260040180806020018281038252601a8152602001807f506f6c696379277320706572696f642068617320456e6465642e00000000000081525060200191505060405180910390fd5b8060068190555060006005541415611259576008600654815481106110b257fe5b90600052602060002090600f0201600a01546007819055506008600654815481106110d957fe5b90600052602060002090600f020160010160009054906101000a900473ffffffffffffffffffffffffffffffffffffffff1673ffffffffffffffffffffffffffffffffffffffff166108fc6007549081150290604051600060405180830381858888f19350505050158015611152573d6000803e3d6000fd5b50600260086006548154811061116457fe5b90600052602060002090600f0201600e0160006101000a81548160ff0219169083600381111561119057fe5b02179055506007546004600082825403925050819055506007546002600360006008600654815481106111bf57fe5b90600052602060002090600f020160010160009054906101000a900473ffffffffffffffffffffffffffffffffffffffff1673ffffffffffffffffffffffffffffffffffffffff1673ffffffffffffffffffffffffffffffffffffffff168152602001908152602001600020548154811061123657fe5b90600052602060002090600502016004016000828254019250508190555061157a565b60006112d260086006548154811061126d57fe5b90600052602060002090600f02016003018054806020026020016040519081016040528092919081815260200182805480156112c857602002820191906000526020600020905b8154815260200190600101908083116112b4575b5050505050610ca7565b905060008090505b6008600654815481106112e957fe5b90600052602060002090600f02016002018054905081101561157757600082606460086006548154811061131957fe5b90600052602060002090600f0201600301848154811061133557fe5b9060005260206000200154028161134857fe5b04905060086006548154811061135a57fe5b90600052602060002090600f0201600301828154811061137657fe5b906000526020600020015460648260086006548154811061139357fe5b90600052602060002090600f02016004015402816113ad57fe5b04016007819055506008600654815481106113c457fe5b90600052602060002090600f020160020182815481106113e057fe5b9060005260206000200160009054906101000a900473ffffffffffffffffffffffffffffffffffffffff1673ffffffffffffffffffffffffffffffffffffffff166108fc6007549081150290604051600060405180830381858888f19350505050158015611452573d6000803e3d6000fd5b50600260086006548154811061146457fe5b90600052602060002090600f0201600e0160006101000a81548160ff0219169083600381111561149057fe5b02179055506007546004600082825403925050819055506007546002600360006008600654815481106114bf57fe5b90600052602060002090600f020160020186815481106114db57fe5b9060005260206000200160009054906101000a900473ffffffffffffffffffffffffffffffffffffffff1673ffffffffffffffffffffffffffffffffffffffff1673ffffffffffffffffffffffffffffffffffffffff168152602001908152602001600020548154811061154b57fe5b9060005260206000209060050201600401600082825401925050819055505080806001019150506112da565b50505b50565b600f602052816000526040600020818154811061159657fe5b90600052602060002001600091509150505481565b60006002600360003373ffffffffffffffffffffffffffffffffffffffff1673ffffffffffffffffffffffffffffffffffffffff16815260200190815260200160002054815481106115f957fe5b90600052602060002090600502016003015414611661576040517f08c379a0000000000000000000000000000000000000000000000000000000008152600401808060200182810382526021815260200180612ba16021913960400191505060405180910390fd5b8460098460ff166002811061167257fe5b60030201600101540234146116ef576040517f08c379a00000000000000000000000000000000000000000000000000000000081526004018080602001828103825260188152602001807f496e636f7272656374205072656d69756d20416d6f756e74000000000000000081525060200191505060405180910390fd5b34600460008282540192505081905550346002600360003373ffffffffffffffffffffffffffffffffffffffff1673ffffffffffffffffffffffffffffffffffffffff168152602001908152602001600020548154811061174c57fe5b9060005260206000209060050201600401600082825403925050819055506000600880548091906001016117809190612819565b9050600f60003373ffffffffffffffffffffffffffffffffffffffff1673ffffffffffffffffffffffffffffffffffffffff1681526020019081526020016000208190806001815401808255809150509060018203906000526020600020016000909192909190915055506000600882815481106117fa57fe5b90600052602060002090600f02019050338160010160006101000a81548173ffffffffffffffffffffffffffffffffffffffff021916908373ffffffffffffffffffffffffffffffffffffffff1602179055508660098660ff166002811061185e57fe5b60030201600101540281600401819055508281600601908051906020019061188792919061284b565b50868160050181905550428160080181905550838160070181905550603c806018601e8702020202420181600901819055508660098660ff16600281106118ca57fe5b60030201600201540281600a01819055508581600b01819055508481600c0160006101000a81548160ff021916908360ff160217905550600181600e0160006101000a81548160ff0219169083600381111561192257fe5b0217905550600081600e0160016101000a81548160ff0219169083600181111561194857fe5b021790555050505050505050565b60026040518060a001604052808581526020018481526020013373ffffffffffffffffffffffffffffffffffffffff1681526020018381526020016000815250908060018154018082558091505090600182039060005260206000209060050201600090919290919091506000820151816000015560208201518160010190805190602001906119e79291906128cb565b5060408201518160020160006101000a81548173ffffffffffffffffffffffffffffffffffffffff021916908373ffffffffffffffffffffffffffffffffffffffff1602179055506060820151816003015560808201518160040155505050600160028054905003600360003373ffffffffffffffffffffffffffffffffffffffff1673ffffffffffffffffffffffffffffffffffffffff16815260200190815260200160002081905550505050565b6000600880549050905090565b60036020528060005260406000206000915090505481565b60098160028110611ac957fe5b60030201600091509050806000018054600181600116156101000203166002900480601f016020809104026020016040519081016040528092919081815260200182805460018160011615610100020316600290048015611b6b5780601f10611b4057610100808354040283529160200191611b6b565b820191906000526020600020905b815481529060010190602001808311611b4e57829003601f168201915b5050505050908060010154908060020154905083565b60075481565b6060600f60003373ffffffffffffffffffffffffffffffffffffffff1673ffffffffffffffffffffffffffffffffffffffff168152602001908152602001600020805480602002602001604051908101604052809291908181526020018280548015611c1257602002820191906000526020600020905b815481526020019060010190808311611bfe575b5050505050905090565b60028181548110611c2957fe5b9060005260206000209060050201600091509050806000015490806001018054600181600116156101000203166002900480601f016020809104026020016040519081016040528092919081815260200182805460018160011615610100020316600290048015611cdb5780601f10611cb057610100808354040283529160200191611cdb565b820191906000526020600020905b815481529060010190602001808311611cbe57829003601f168201915b5050505050908060020160009054906101000a900473ffffffffffffffffffffffffffffffffffffffff16908060030154908060040154905085565b60008060608060606000806000806000806000611d3261294b565b60088e81548110611d3f57fe5b90600052602060002090600f020160405180610200016040529081600082015481526020016001820160009054906101000a900473ffffffffffffffffffffffffffffffffffffffff1673ffffffffffffffffffffffffffffffffffffffff1673ffffffffffffffffffffffffffffffffffffffff16815260200160028201805480602002602001604051908101604052809291908181526020018280548015611e3e57602002820191906000526020600020905b8160009054906101000a900473ffffffffffffffffffffffffffffffffffffffff1673ffffffffffffffffffffffffffffffffffffffff1681526020019060010190808311611df4575b5050505050815260200160038201805480602002602001604051908101604052809291908181526020018280548015611e9657602002820191906000526020600020905b815481526020019060010190808311611e82575b505050505081526020016004820154815260200160058201548152602001600682018054600181600116156101000203166002900480601f016020809104026020016040519081016040528092919081815260200182805460018160011615610100020316600290048015611f4c5780601f10611f2157610100808354040283529160200191611f4c565b820191906000526020600020905b815481529060010190602001808311611f2f57829003601f168201915b50505050508152602001600782015481526020016008820154815260200160098201548152602001600a8201548152602001600b8201548152602001600c820160009054906101000a900460ff1660ff1660ff168152602001600d8201548152602001600e820160009054906101000a900460ff166003811115611fcc57fe5b6003811115611fd757fe5b8152602001600e820160019054906101000a900460ff166001811115611ff957fe5b600181111561200457fe5b8152505090508d8160200151826040015183606001518460c0015185608001518660a001518761010001518861012001518961014001518a61018001518b6101c001518999508898508797509c509c509c509c509c509c509c509c509c509c509c509c505091939597999b5091939597999b565b60016020528060005260406000206000915054906101000a900473ffffffffffffffffffffffffffffffffffffffff1681565b60016002600360003373ffffffffffffffffffffffffffffffffffffffff1673ffffffffffffffffffffffffffffffffffffffff16815260200190815260200160002054815481106120f957fe5b9060005260206000209060050201600301541461217e576040517f08c379a00000000000000000000000000000000000000000000000000000000081526004018080602001828103825260208152602001807f4f6e6c7920696e766573746f72732063616e2070726f76696465206d6f6e657981525060200191505060405180910390fd5b60006008828154811061218d57fe5b90600052602060002090600f0201905080600a0154341115612217576040517f08c379a00000000000000000000000000000000000000000000000000000000081526004018080602001828103825260168152602001807f496e636f727265637420436f76657220416d6f756e740000000000000000000081525060200191505060405180910390fd5b6000600181111561222457fe5b81600e0160019054906101000a900460ff16600181111561224157fe5b146122b4576040517f08c379a000000000000000000000000000000000000000000000000000000000815260040180806020018281038252601f8152602001807f20506f6c69637920697320636c6f7365642063616e6e6f7420636f766572200081525060200191505060405180910390fd5b80600a01543482600d0154011115612334576040517f08c379a000000000000000000000000000000000000000000000000000000000815260040180806020018281038252601a8152602001807f20436f76657261676520616d6f756e742065786365656465642000000000000081525060200191505060405180910390fd5b346002600360003373ffffffffffffffffffffffffffffffffffffffff1673ffffffffffffffffffffffffffffffffffffffff168152602001908152602001600020548154811061238157fe5b90600052602060002090600502016004016000828254039250508190555034600460008282540192505081905550600f60003373ffffffffffffffffffffffffffffffffffffffff1673ffffffffffffffffffffffffffffffffffffffff168152602001908152602001600020829080600181540180825580915050906001820390600052602060002001600090919290919091505550806002013390806001815401808255809150509060018203906000526020600020016000909192909190916101000a81548173ffffffffffffffffffffffffffffffffffffffff021916908373ffffffffffffffffffffffffffffffffffffffff16021790555050806003013490806001815401808255809150509060018203906000526020600020016000909192909190915055503481600d016000828254019250508190555080600a015481600d015414156124f757600181600e0160016101000a81548160ff021916908360018111156124f157fe5b02179055505b5050565b6008818154811061250857fe5b90600052602060002090600f02016000915090508060000154908060010160009054906101000a900473ffffffffffffffffffffffffffffffffffffffff1690806004015490806005015490806006018054600181600116156101000203166002900480601f0160208091040260200160405190810160405280929190818152602001828054600181600116156101000203166002900480156125ec5780601f106125c1576101008083540402835291602001916125ec565b820191906000526020600020905b8154815290600101906020018083116125cf57829003601f168201915b50505050509080600701549080600801549080600901549080600a01549080600b01549080600c0160009054906101000a900460ff169080600d01549080600e0160009054906101000a900460ff169080600e0160019054906101000a900460ff1690508e565b6000606060006002600360003373ffffffffffffffffffffffffffffffffffffffff1673ffffffffffffffffffffffffffffffffffffffff16815260200190815260200160002054815481106126a557fe5b9060005260206000209060050201600001546002600360003373ffffffffffffffffffffffffffffffffffffffff1673ffffffffffffffffffffffffffffffffffffffff168152602001908152602001600020548154811061270357fe5b90600052602060002090600502016001016002600360003373ffffffffffffffffffffffffffffffffffffffff1673ffffffffffffffffffffffffffffffffffffffff168152602001908152602001600020548154811061276057fe5b906000526020600020906005020160030154818054600181600116156101000203166002900480601f0160208091040260200160405190810160405280929190818152602001828054600181600116156101000203166002900480156128075780601f106127dc57610100808354040283529160200191612807565b820191906000526020600020905b8154815290600101906020018083116127ea57829003601f168201915b50505050509150925092509250909192565b81548183558181111561284657600f0281600f02836000526020600020918201910161284591906129f7565b5b505050565b828054600181600116156101000203166002900490600052602060002090601f016020900481019282601f1061288c57805160ff19168380011785556128ba565b828001600101855582156128ba579182015b828111156128b957825182559160200191906001019061289e565b5b5090506128c79190612af1565b5090565b828054600181600116156101000203166002900490600052602060002090601f016020900481019282601f1061290c57805160ff191683800117855561293a565b8280016001018555821561293a579182015b8281111561293957825182559160200191906001019061291e565b5b5090506129479190612af1565b5090565b60405180610200016040528060008152602001600073ffffffffffffffffffffffffffffffffffffffff16815260200160608152602001606081526020016000815260200160008152602001606081526020016000815260200160008152602001600081526020016000815260200160008152602001600060ff16815260200160008152602001600060038111156129df57fe5b8152602001600060018111156129f157fe5b81525090565b612aee91905b80821115612aea576000808201600090556001820160006101000a81549073ffffffffffffffffffffffffffffffffffffffff0219169055600282016000612a459190612b16565b600382016000612a559190612b37565b60048201600090556005820160009055600682016000612a759190612b58565b600782016000905560088201600090556009820160009055600a820160009055600b820160009055600c820160006101000a81549060ff0219169055600d820160009055600e820160006101000a81549060ff0219169055600e820160016101000a81549060ff021916905550600f016129fd565b5090565b90565b612b1391905b80821115612b0f576000816000905550600101612af7565b5090565b90565b5080546000825590600052602060002090810190612b349190612af1565b50565b5080546000825590600052602060002090810190612b559190612af1565b50565b50805460018160011615610100020316600290046000825580601f10612b7e5750612b9d565b601f016020900490600052602060002090810190612b9c9190612af1565b5b5056fe4f6e6c79206661726d65722063616e206d616b652061206e657720706f6c696379436f76657261676520416d6f756e74206973206e6f742066756c6c66696c6c6564a265627a7a72315820ec50ed648915c46d8f3d1cc493f641ef077da2a9cd17a6d86b56e4212824dec864736f6c63430005100032353030302077656920696e697469616c2066756e64696e67207265717569726564",
  "source": "pragma solidity >=0.4.24;\r\n\r\ncontract genz {\r\n    \r\n    struct Details{\r\n        uint aadhaar;\r\n        string name;\r\n        address id;\r\n        uint role;\r\n        int bal;\r\n    }\r\n\r\n    mapping (address => address) public request;\r\n    mapping (address => address) public auth;\r\n    \r\n    Details [] public details; // array of all the people registered\r\n    mapping (address => uint) public deets; // map address to id in the array\r\n\r\n    // function to register the person \r\n    function _register(uint aadhaar, string memory name, uint role) public {\r\n        details.push(Details(aadhaar,name, msg.sender, role, 0)) ;\r\n        deets[msg.sender]=details.length-1;\r\n    }\r\n    \r\n    struct cropType{\r\n        string name;\r\n        uint premiumPerAcre;    //in wei\r\n        uint coveragePerAcre;   //in wei\r\n    }\r\n    \r\n    struct policy {\r\n        uint policyId;\r\n        address payable user; // farmer address\r\n        address payable [] cover; // array of all investors\r\n        uint [] amtCover; // array of cover paid by each investor\r\n        uint premium;\r\n        uint area;\r\n        string location;\r\n        uint duration;\r\n        uint startTime;\r\n        uint endTime;         //crop's season dependent\r\n        uint coverageAmount;  //depends on crop type\r\n        uint forFlood;\r\n        uint8 cropId;\r\n        uint policySum; // current cover generated by policy \r\n        policyState state; // see if the policy is still available or not \r\n        status st; // determine if the policy is closed or not \r\n    }\r\n    \r\n    enum policyState {Pending, Active, PaidOut, TimedOut}\r\n    enum status {Open,Close}\r\n    \r\n    uint private balance; // holds the amount in the risk pool \r\n    uint private result = 1;\r\n    uint private claimPolicyId;\r\n    uint public payoutAmount;\r\n    \r\n    policy[] public policies; // holds all the policies\r\n    cropType[2] public cropTypes; //crops defined in constructor\r\n    mapping(address => uint[]) public userPolicies;  //user address to array of policy IDs\r\n    \r\n    constructor()\r\n    public payable\r\n    {\r\n        require(msg.value == 5000 wei, \"5000 wei initial funding required\");\r\n        \r\n        newCrop(0, \"rabi\", 1,  7);\r\n        newCrop(1, \"kharif\", 2,  10);\r\n        balance+=msg.value;\r\n    }\r\n    \r\n    function newCrop(uint8 _cropId,string memory _name, uint _premiumPerAcre, uint _coveragePerAcre) internal {\r\n        cropType memory c = cropType(_name, _premiumPerAcre, _coveragePerAcre);\r\n        cropTypes[_cropId] = c;\r\n    }\r\n    \r\n    function newPolicy ( uint _area, uint _forFlood, uint8 _cropId, uint _duration, string memory _location) public payable{\r\n        require(details[deets[msg.sender]].role == 0, \"Only farmer can make a new policy\");\r\n        require(msg.value == (cropTypes[_cropId].premiumPerAcre * _area),\"Incorrect Premium Amount\");\r\n        \r\n        balance += msg.value; // update risk pool balance\r\n        details[deets[msg.sender]].bal -= int(msg.value); // update user balance\r\n\r\n        uint pId = policies.length++;\r\n        userPolicies[msg.sender].push(pId);\r\n        policy storage p = policies[pId]; // store the policy in an array\r\n\r\n        p.user = msg.sender;\r\n        p.premium = cropTypes[_cropId].premiumPerAcre * _area;\r\n        p.location = _location;\r\n        p.area = _area;\r\n        p.startTime = now;\r\n        p.duration = _duration;\r\n        p.endTime = now + _duration * 30*24*60*60;  //converting months to seconds\r\n        p.coverageAmount = cropTypes[_cropId].coveragePerAcre * _area;\r\n        p.forFlood = _forFlood;\r\n        p.cropId = _cropId;\r\n        p.state = policyState.Active;\r\n        p.st = status.Open;\r\n    }\r\n    \r\n    function coverForPolicy(uint _policyId) external payable{\r\n        require(details[deets[msg.sender]].role == 1, \"Only investors can provide money\");\r\n        \r\n        policy storage p = policies[_policyId];\r\n        require(msg.value <= p.coverageAmount,\"Incorrect Cover Amount\");\r\n        require(p.st == status.Open, \" Policy is closed cannot cover \");\r\n        require(p.policySum + msg.value <= p.coverageAmount, \" Coverage amount exceeded \");\r\n        \r\n        details[deets[msg.sender]].bal -= int(msg.value);\r\n        balance += msg.value;\r\n        userPolicies[msg.sender].push(_policyId);\r\n        p.cover.push(msg.sender);\r\n        p.amtCover.push(msg.value);\r\n        p.policySum += msg.value;\r\n        \r\n        if (p.policySum == p.coverageAmount){\r\n            p.st = status.Close;\r\n        }\r\n    }\r\n    \r\n    function claim(uint _policyId) public {\r\n        require(msg.sender == policies[_policyId].user, \"User Not Authorized\");\r\n        require(policies[_policyId].state == policyState.Active, \"Policy Not Active\");\r\n        require(policies[_policyId].st == status.Close, \"Coverage Amount is not fullfilled\");\r\n\r\n        if(now > policies[_policyId].endTime)\r\n        {\r\n            policies[_policyId].state = policyState.TimedOut;\r\n            revert(\"Policy's period has Ended.\");\r\n        }\r\n        \r\n        claimPolicyId = _policyId;\r\n        \r\n        /* TODO check weather condition over here TODO*/\r\n        \r\n        // check condition and accordingly pay \r\n        if(result==0){\r\n            payoutAmount = uint(policies[claimPolicyId].coverageAmount);\r\n            policies[claimPolicyId].user.transfer(payoutAmount);\r\n            policies[claimPolicyId].state = policyState.PaidOut;\r\n            balance-=payoutAmount;\r\n            details[deets[policies[claimPolicyId].user]].bal += int(payoutAmount);\r\n        }\r\n        else{\r\n            uint x = sum(policies[claimPolicyId].amtCover);\r\n            \r\n            for (uint i=0; i<policies[claimPolicyId].cover.length; i++){\r\n                uint ratio = uint((policies[claimPolicyId].amtCover[i]) * 100)/uint(x);\r\n                payoutAmount = uint( policies[claimPolicyId].premium * ratio/100 ) + uint(policies[claimPolicyId].amtCover[i]);\r\n                policies[claimPolicyId].cover[i].transfer(payoutAmount);\r\n                policies[claimPolicyId].state = policyState.PaidOut;\r\n                balance-=payoutAmount;\r\n                details[deets[policies[claimPolicyId].cover[i]]].bal += int(payoutAmount);\r\n            }\r\n        }\r\n    }\r\n    \r\n    function sum(uint [] memory x) public pure returns(uint){\r\n        uint s = 0;\r\n        for ( uint i = 0; i<x.length; i++){\r\n            s += x[i];\r\n        }\r\n        return s;\r\n    }\r\n    \r\n    // function returns the details of the person calling the function\r\n    function getDetails() public view returns (uint, string memory, uint) {\r\n        return (details[deets[msg.sender]].aadhaar, details[deets[msg.sender]].name, details[deets[msg.sender]].role );\r\n    }\r\n    \r\n    // function to get the balance of the user \r\n    function getBalanceUser() public view returns(int){\r\n        return details[deets[msg.sender]].bal;\r\n    }\r\n    \r\n    // function to get the balance of the smart contract\r\n    function getBalance() public view returns(uint){\r\n        return balance;\r\n    }\r\n    \r\n    // function to get all policy of a user\r\n    function getPolicyUser() public view returns(uint[] memory){\r\n        return userPolicies[msg.sender];\r\n    }\r\n    \r\n    // function to get policy details of a particular id\r\n    function getPolicyDetails(uint _policyId) public view returns(uint,address payable,address payable [] memory,uint[] memory,string memory,uint,uint,uint,uint,uint,uint8,policyState){\r\n        policy memory p = policies[_policyId];\r\n        return (_policyId, p.user,p.cover,p.amtCover,p.location,p.premium,p.area,p.startTime,p.endTime,p.coverageAmount,p.cropId,p.state);\r\n    }\r\n\r\n    function getPolicyLength() public view returns(uint){\r\n        return policies.length;\r\n    }\r\n    \r\n    // function to request the farmer to view his details\r\n    /*function requestFarmer(address farmerAddress) public {\r\n        // find farmer address using his aadhaar\r\n        require(details[deets[farmerAddress]].role == 0);\r\n        require(details[deets[msg.sender]].role == 1);\r\n        request[farmerAddress] = msg.sender; \r\n    }\r\n\r\n    // called by farmer to authorize an invesotr to view his detials \r\n    function approveInvestor() public returns (uint, string memory, uint){\r\n        \r\n        require(details[deets[msg.sender]].role == 0);\r\n        address investorAddress = request[msg.sender];\r\n        auth[msg.sender] = investorAddress;\r\n\r\n        return (details[deets[msg.sender]].aadhaar, details[deets[msg.sender]].name, details[deets[msg.sender]].role );\r\n\r\n    }*/\r\n}",
  "sourcePath": "D:/major_project/genz2/contracts/genz.sol",
  "compiler": {
    "name": "solc",
    "version": "0.5.16+commit.9c3226ce.Emscripten.clang"
  },
  "schemaVersion": "3.3.0",
  "updatedAt": "2020-10-19T18:35:01.716Z",
  "networkType": "ethereum",
  "devdoc": {
    "methods": {}
  },
  "userdoc": {
    "methods": {}
  }
}