{
  "contractName": "genz",
  "abi": [
    {
      "inputs": [],
      "payable": true,
      "stateMutability": "payable",
      "type": "constructor"
    },
    {
      "constant": true,
      "inputs": [
        {
          "internalType": "address",
          "name": "",
          "type": "address"
        }
      ],
      "name": "auth",
      "outputs": [
        {
          "internalType": "address",
          "name": "",
          "type": "address"
        }
      ],
      "payable": false,
      "stateMutability": "view",
      "type": "function"
    },
    {
      "constant": true,
      "inputs": [
        {
          "internalType": "uint256",
          "name": "",
          "type": "uint256"
        }
      ],
      "name": "cropTypes",
      "outputs": [
        {
          "internalType": "string",
          "name": "name",
          "type": "string"
        },
        {
          "internalType": "uint256",
          "name": "premiumPerAcre",
          "type": "uint256"
        },
        {
          "internalType": "uint256",
          "name": "coveragePerAcre",
          "type": "uint256"
        }
      ],
      "payable": false,
      "stateMutability": "view",
      "type": "function"
    },
    {
      "constant": true,
      "inputs": [
        {
          "internalType": "address",
          "name": "",
          "type": "address"
        }
      ],
      "name": "deets",
      "outputs": [
        {
          "internalType": "uint256",
          "name": "",
          "type": "uint256"
        }
      ],
      "payable": false,
      "stateMutability": "view",
      "type": "function"
    },
    {
      "constant": true,
      "inputs": [
        {
          "internalType": "uint256",
          "name": "",
          "type": "uint256"
        }
      ],
      "name": "details",
      "outputs": [
        {
          "internalType": "uint256",
          "name": "aadhaar",
          "type": "uint256"
        },
        {
          "internalType": "string",
          "name": "name",
          "type": "string"
        },
        {
          "internalType": "address",
          "name": "id",
          "type": "address"
        },
        {
          "internalType": "uint256",
          "name": "role",
          "type": "uint256"
        },
        {
          "internalType": "int256",
          "name": "bal",
          "type": "int256"
        }
      ],
      "payable": false,
      "stateMutability": "view",
      "type": "function"
    },
    {
      "constant": true,
      "inputs": [],
      "name": "payoutAmount",
      "outputs": [
        {
          "internalType": "uint256",
          "name": "",
          "type": "uint256"
        }
      ],
      "payable": false,
      "stateMutability": "view",
      "type": "function"
    },
    {
      "constant": true,
      "inputs": [
        {
          "internalType": "uint256",
          "name": "",
          "type": "uint256"
        }
      ],
      "name": "policies",
      "outputs": [
        {
          "internalType": "uint256",
          "name": "policyId",
          "type": "uint256"
        },
        {
          "internalType": "address payable",
          "name": "user",
          "type": "address"
        },
        {
          "internalType": "uint256",
          "name": "premium",
          "type": "uint256"
        },
        {
          "internalType": "uint256",
          "name": "area",
          "type": "uint256"
        },
        {
          "internalType": "string",
          "name": "location",
          "type": "string"
        },
        {
          "internalType": "uint256",
          "name": "duration",
          "type": "uint256"
        },
        {
          "internalType": "uint256",
          "name": "startTime",
          "type": "uint256"
        },
        {
          "internalType": "uint256",
          "name": "endTime",
          "type": "uint256"
        },
        {
          "internalType": "uint256",
          "name": "coverageAmount",
          "type": "uint256"
        },
        {
          "internalType": "uint256",
          "name": "forFlood",
          "type": "uint256"
        },
        {
          "internalType": "uint8",
          "name": "cropId",
          "type": "uint8"
        },
        {
          "internalType": "uint256",
          "name": "policySum",
          "type": "uint256"
        },
        {
          "internalType": "enum genz.policyState",
          "name": "state",
          "type": "uint8"
        },
        {
          "internalType": "enum genz.status",
          "name": "st",
          "type": "uint8"
        }
      ],
      "payable": false,
      "stateMutability": "view",
      "type": "function"
    },
    {
      "constant": true,
      "inputs": [
        {
          "internalType": "address",
          "name": "",
          "type": "address"
        }
      ],
      "name": "request",
      "outputs": [
        {
          "internalType": "address",
          "name": "",
          "type": "address"
        }
      ],
      "payable": false,
      "stateMutability": "view",
      "type": "function"
    },
    {
      "constant": true,
      "inputs": [
        {
          "internalType": "address",
          "name": "",
          "type": "address"
        },
        {
          "internalType": "uint256",
          "name": "",
          "type": "uint256"
        }
      ],
      "name": "userPolicies",
      "outputs": [
        {
          "internalType": "uint256",
          "name": "",
          "type": "uint256"
        }
      ],
      "payable": false,
      "stateMutability": "view",
      "type": "function"
    },
    {
      "constant": false,
      "inputs": [
        {
          "internalType": "uint256",
          "name": "aadhaar",
          "type": "uint256"
        },
        {
          "internalType": "string",
          "name": "name",
          "type": "string"
        },
        {
          "internalType": "uint256",
          "name": "role",
          "type": "uint256"
        }
      ],
      "name": "_register",
      "outputs": [],
      "payable": false,
      "stateMutability": "nonpayable",
      "type": "function"
    },
    {
      "constant": false,
      "inputs": [
        {
          "internalType": "uint256",
          "name": "_area",
          "type": "uint256"
        },
        {
          "internalType": "uint256",
          "name": "_forFlood",
          "type": "uint256"
        },
        {
          "internalType": "uint8",
          "name": "_cropId",
          "type": "uint8"
        },
        {
          "internalType": "uint256",
          "name": "_duration",
          "type": "uint256"
        },
        {
          "internalType": "string",
          "name": "_location",
          "type": "string"
        }
      ],
      "name": "newPolicy",
      "outputs": [],
      "payable": true,
      "stateMutability": "payable",
      "type": "function"
    },
    {
      "constant": false,
      "inputs": [
        {
          "internalType": "uint256",
          "name": "_policyId",
          "type": "uint256"
        }
      ],
      "name": "coverForPolicy",
      "outputs": [],
      "payable": true,
      "stateMutability": "payable",
      "type": "function"
    },
    {
      "constant": false,
      "inputs": [
        {
          "internalType": "uint256",
          "name": "_policyId",
          "type": "uint256"
        }
      ],
      "name": "claim",
      "outputs": [],
      "payable": false,
      "stateMutability": "nonpayable",
      "type": "function"
    },
    {
      "constant": true,
      "inputs": [
        {
          "internalType": "uint256[]",
          "name": "x",
          "type": "uint256[]"
        }
      ],
      "name": "sum",
      "outputs": [
        {
          "internalType": "uint256",
          "name": "",
          "type": "uint256"
        }
      ],
      "payable": false,
      "stateMutability": "pure",
      "type": "function"
    },
    {
      "constant": true,
      "inputs": [],
      "name": "getDetails",
      "outputs": [
        {
          "internalType": "uint256",
          "name": "",
          "type": "uint256"
        },
        {
          "internalType": "string",
          "name": "",
          "type": "string"
        },
        {
          "internalType": "uint256",
          "name": "",
          "type": "uint256"
        }
      ],
      "payable": false,
      "stateMutability": "view",
      "type": "function"
    },
    {
      "constant": true,
      "inputs": [],
      "name": "getBalanceUser",
      "outputs": [
        {
          "internalType": "int256",
          "name": "",
          "type": "int256"
        }
      ],
      "payable": false,
      "stateMutability": "view",
      "type": "function"
    },
    {
      "constant": true,
      "inputs": [],
      "name": "getBalance",
      "outputs": [
        {
          "internalType": "uint256",
          "name": "",
          "type": "uint256"
        }
      ],
      "payable": false,
      "stateMutability": "view",
      "type": "function"
    },
    {
      "constant": true,
      "inputs": [],
      "name": "getPolicyUser",
      "outputs": [
        {
          "internalType": "uint256[]",
          "name": "",
          "type": "uint256[]"
        }
      ],
      "payable": false,
      "stateMutability": "view",
      "type": "function"
    },
    {
      "constant": true,
      "inputs": [
        {
          "internalType": "uint256",
          "name": "_policyId",
          "type": "uint256"
        }
      ],
      "name": "getPolicyDetails",
      "outputs": [
        {
          "internalType": "address payable",
          "name": "",
          "type": "address"
        },
        {
          "internalType": "address payable[]",
          "name": "",
          "type": "address[]"
        },
        {
          "internalType": "uint256[]",
          "name": "",
          "type": "uint256[]"
        },
        {
          "internalType": "string",
          "name": "",
          "type": "string"
        },
        {
          "internalType": "uint256[]",
          "name": "",
          "type": "uint256[]"
        },
        {
          "internalType": "uint8",
          "name": "",
          "type": "uint8"
        },
        {
          "internalType": "enum genz.status",
          "name": "",
          "type": "uint8"
        }
      ],
      "payable": false,
      "stateMutability": "view",
      "type": "function"
    },
    {
      "constant": true,
      "inputs": [],
      "name": "getPolicyLength",
      "outputs": [
        {
          "internalType": "uint256",
          "name": "",
          "type": "uint256"
        }
      ],
      "payable": false,
      "stateMutability": "view",
      "type": "function"
    },
    {
      "constant": true,
      "inputs": [],
      "name": "login",
      "outputs": [
        {
          "internalType": "uint256",
          "name": "",
          "type": "uint256"
        }
      ],
      "payable": false,
      "stateMutability": "view",
      "type": "function"
    }
  ],
  "bytecode": "0x60806040526001600555611388341462000065576040517f08c379a0000000000000000000000000000000000000000000000000000000008152600401808060200182810382526021815260200180620030506021913960400191505060405180910390fd5b620000b160006040518060400160405280600481526020017f7261626900000000000000000000000000000000000000000000000000000000815250600160076200011360201b60201c565b620000fd60016040518060400160405280600681526020017f6b686172696600000000000000000000000000000000000000000000000000008152506002600a6200011360201b60201c565b346004600082825401925050819055506200025d565b6200011d6200018d565b60405180606001604052808581526020018481526020018381525090508060098660ff16600281106200014c57fe5b6003020160008201518160000190805190602001906200016e929190620001ae565b5060208201518160010155604082015181600201559050505050505050565b60405180606001604052806060815260200160008152602001600081525090565b828054600181600116156101000203166002900490600052602060002090601f016020900481019282601f10620001f157805160ff191683800117855562000222565b8280016001018555821562000222579182015b828111156200022157825182559160200191906001019062000204565b5b50905062000231919062000235565b5090565b6200025a91905b80821115620002565760008160009055506001016200023c565b5090565b90565b612de3806200026d6000396000f3fe60806040526004361061011f5760003560e01c80635a8f29ed116100a0578063cc03801011610064578063cc03801014610860578063cd5d211814610a41578063d16a993914610ad2578063d3e8948314610b00578063fbbf93a014610c5d5761011f565b80635a8f29ed146105e05780636b46c8c3146106a25780636fc617b1146106cd578063a005ec7a14610739578063b34e97e8146108355761011f565b80633d36adc5116100e75780633d36adc51461031f578063404787011461038e57806343fd94a71461047457806350244fb31461055057806356634caa1461057b5761011f565b80630194db8e1461012457806312065fe0146101fd57806327c78c421461022857806331dacf77146102b9578063379607f5146102e4575b600080fd5b34801561013057600080fd5b506101e76004803603602081101561014757600080fd5b810190808035906020019064010000000081111561016457600080fd5b82018360208201111561017657600080fd5b8035906020019184602083028401116401000000008311171561019857600080fd5b919080806020026020016040519081016040528093929190818152602001838360200280828437600081840152601f19601f820116905080830192505050505050509192919290505050610cfb565b6040518082815260200191505060405180910390f35b34801561020957600080fd5b50610212610d40565b6040518082815260200191505060405180910390f35b34801561023457600080fd5b506102776004803603602081101561024b57600080fd5b81019080803573ffffffffffffffffffffffffffffffffffffffff169060200190929190505050610d4a565b604051808273ffffffffffffffffffffffffffffffffffffffff1673ffffffffffffffffffffffffffffffffffffffff16815260200191505060405180910390f35b3480156102c557600080fd5b506102ce610d7d565b6040518082815260200191505060405180910390f35b3480156102f057600080fd5b5061031d6004803603602081101561030757600080fd5b8101908080359060200190929190505050610de2565b005b34801561032b57600080fd5b506103786004803603604081101561034257600080fd5b81019080803573ffffffffffffffffffffffffffffffffffffffff169060200190929190803590602001909291905050506115d1565b6040518082815260200191505060405180910390f35b610472600480360360a08110156103a457600080fd5b810190808035906020019092919080359060200190929190803560ff16906020019092919080359060200190929190803590602001906401000000008111156103ec57600080fd5b8201836020820111156103fe57600080fd5b8035906020019184600183028401116401000000008311171561042057600080fd5b91908080601f016020809104026020016040519081016040528093929190818152602001838380828437600081840152601f19601f8201169050808301925050505050505091929192905050506115ff565b005b34801561048057600080fd5b5061054e6004803603606081101561049757600080fd5b8101908080359060200190929190803590602001906401000000008111156104be57600080fd5b8201836020820111156104d057600080fd5b803590602001918460018302840111640100000000831117156104f257600080fd5b91908080601f016020809104026020016040519081016040528093929190818152602001838380828437600081840152601f19601f820116905080830192505050505050509192919290803590602001909291905050506119aa565b005b34801561055c57600080fd5b50610565611aeb565b6040518082815260200191505060405180910390f35b34801561058757600080fd5b506105ca6004803603602081101561059e57600080fd5b81019080803573ffffffffffffffffffffffffffffffffffffffff169060200190929190505050611af8565b6040518082815260200191505060405180910390f35b3480156105ec57600080fd5b506106196004803603602081101561060357600080fd5b8101908080359060200190929190505050611b10565b6040518080602001848152602001838152602001828103825285818151815260200191508051906020019080838360005b8381101561066557808201518184015260208101905061064a565b50505050905090810190601f1680156106925780820380516001836020036101000a031916815260200191505b5094505050505060405180910390f35b3480156106ae57600080fd5b506106b7611bd5565b6040518082815260200191505060405180910390f35b3480156106d957600080fd5b506106e2611bdb565b6040518080602001828103825283818151815260200191508051906020019060200280838360005b8381101561072557808201518184015260208101905061070a565b505050509050019250505060405180910390f35b34801561074557600080fd5b506107726004803603602081101561075c57600080fd5b8101908080359060200190929190505050611c70565b60405180868152602001806020018573ffffffffffffffffffffffffffffffffffffffff1673ffffffffffffffffffffffffffffffffffffffff168152602001848152602001838152602001828103825286818151815260200191508051906020019080838360005b838110156107f65780820151818401526020810190506107db565b50505050905090810190601f1680156108235780820380516001836020036101000a031916815260200191505b50965050505050505060405180910390f35b34801561084157600080fd5b5061084a611d6b565b6040518082815260200191505060405180910390f35b34801561086c57600080fd5b506108996004803603602081101561088357600080fd5b8101908080359060200190929190505050611e12565b604051808873ffffffffffffffffffffffffffffffffffffffff1673ffffffffffffffffffffffffffffffffffffffff168152602001806020018060200180602001806020018760ff1660ff1681526020018660018111156108f757fe5b60ff16815260200185810385528b818151815260200191508051906020019060200280838360005b8381101561093a57808201518184015260208101905061091f565b5050505090500185810384528a818151815260200191508051906020019060200280838360005b8381101561097c578082015181840152602081019050610961565b50505050905001858103835289818151815260200191508051906020019080838360005b838110156109bb5780820151818401526020810190506109a0565b50505050905090810190601f1680156109e85780820380516001836020036101000a031916815260200191505b50858103825288818151815260200191508051906020019060200280838360005b83811015610a24578082015181840152602081019050610a09565b505050509050019b50505050505050505050505060405180910390f35b348015610a4d57600080fd5b50610a9060048036036020811015610a6457600080fd5b81019080803573ffffffffffffffffffffffffffffffffffffffff169060200190929190505050612249565b604051808273ffffffffffffffffffffffffffffffffffffffff1673ffffffffffffffffffffffffffffffffffffffff16815260200191505060405180910390f35b610afe60048036036020811015610ae857600080fd5b810190808035906020019092919050505061227c565b005b348015610b0c57600080fd5b50610b3960048036036020811015610b2357600080fd5b81019080803590602001909291905050506126c7565b604051808f81526020018e73ffffffffffffffffffffffffffffffffffffffff1673ffffffffffffffffffffffffffffffffffffffff1681526020018d81526020018c8152602001806020018b81526020018a81526020018981526020018881526020018781526020018660ff1660ff168152602001858152602001846003811115610bc157fe5b60ff168152602001836001811115610bd557fe5b60ff16815260200182810382528c818151815260200191508051906020019080838360005b83811015610c15578082015181840152602081019050610bfa565b50505050905090810190601f168015610c425780820380516001836020036101000a031916815260200191505b509f5050505050505050505050505050505060405180910390f35b348015610c6957600080fd5b50610c7261281f565b6040518084815260200180602001838152602001828103825284818151815260200191508051906020019080838360005b83811015610cbe578082015181840152602081019050610ca3565b50505050905090810190601f168015610ceb5780820380516001836020036101000a031916815260200191505b5094505050505060405180910390f35b6000806000905060008090505b8351811015610d3657838181518110610d1d57fe5b6020026020010151820191508080600101915050610d08565b5080915050919050565b6000600454905090565b60006020528060005260406000206000915054906101000a900473ffffffffffffffffffffffffffffffffffffffff1681565b60006002600360003373ffffffffffffffffffffffffffffffffffffffff1673ffffffffffffffffffffffffffffffffffffffff1681526020019081526020016000205481548110610dcb57fe5b906000526020600020906005020160040154905090565b60088181548110610def57fe5b90600052602060002090600f020160010160009054906101000a900473ffffffffffffffffffffffffffffffffffffffff1673ffffffffffffffffffffffffffffffffffffffff163373ffffffffffffffffffffffffffffffffffffffff1614610ec1576040517f08c379a00000000000000000000000000000000000000000000000000000000081526004018080602001828103825260138152602001807f55736572204e6f7420417574686f72697a65640000000000000000000000000081525060200191505060405180910390fd5b60016003811115610ece57fe5b60088281548110610edb57fe5b90600052602060002090600f0201600e0160009054906101000a900460ff166003811115610f0557fe5b14610f78576040517f08c379a00000000000000000000000000000000000000000000000000000000081526004018080602001828103825260118152602001807f506f6c696379204e6f742041637469766500000000000000000000000000000081525060200191505060405180910390fd5b600180811115610f8457fe5b60088281548110610f9157fe5b90600052602060002090600f0201600e0160019054906101000a900460ff166001811115610fbb57fe5b14611011576040517f08c379a0000000000000000000000000000000000000000000000000000000008152600401808060200182810382526021815260200180612d8e6021913960400191505060405180910390fd5b6008818154811061101e57fe5b90600052602060002090600f0201600901544211156110e55760036008828154811061104657fe5b90600052602060002090600f0201600e0160006101000a81548160ff0219169083600381111561107257fe5b02179055506040517f08c379a000000000000000000000000000000000000000000000000000000000815260040180806020018281038252601a8152602001807f506f6c696379277320706572696f642068617320456e6465642e00000000000081525060200191505060405180910390fd5b80600681905550600060055414156112ad5760086006548154811061110657fe5b90600052602060002090600f0201600a015460078190555060086006548154811061112d57fe5b90600052602060002090600f020160010160009054906101000a900473ffffffffffffffffffffffffffffffffffffffff1673ffffffffffffffffffffffffffffffffffffffff166108fc6007549081150290604051600060405180830381858888f193505050501580156111a6573d6000803e3d6000fd5b5060026008600654815481106111b857fe5b90600052602060002090600f0201600e0160006101000a81548160ff021916908360038111156111e457fe5b021790555060075460046000828254039250508190555060075460026003600060086006548154811061121357fe5b90600052602060002090600f020160010160009054906101000a900473ffffffffffffffffffffffffffffffffffffffff1673ffffffffffffffffffffffffffffffffffffffff1673ffffffffffffffffffffffffffffffffffffffff168152602001908152602001600020548154811061128a57fe5b9060005260206000209060050201600401600082825401925050819055506115ce565b60006113266008600654815481106112c157fe5b90600052602060002090600f020160030180548060200260200160405190810160405280929190818152602001828054801561131c57602002820191906000526020600020905b815481526020019060010190808311611308575b5050505050610cfb565b905060008090505b60086006548154811061133d57fe5b90600052602060002090600f0201600201805490508110156115cb57600082606460086006548154811061136d57fe5b90600052602060002090600f0201600301848154811061138957fe5b9060005260206000200154028161139c57fe5b0490506008600654815481106113ae57fe5b90600052602060002090600f020160030182815481106113ca57fe5b90600052602060002001546064826008600654815481106113e757fe5b90600052602060002090600f020160040154028161140157fe5b040160078190555060086006548154811061141857fe5b90600052602060002090600f0201600201828154811061143457fe5b9060005260206000200160009054906101000a900473ffffffffffffffffffffffffffffffffffffffff1673ffffffffffffffffffffffffffffffffffffffff166108fc6007549081150290604051600060405180830381858888f193505050501580156114a6573d6000803e3d6000fd5b5060026008600654815481106114b857fe5b90600052602060002090600f0201600e0160006101000a81548160ff021916908360038111156114e457fe5b021790555060075460046000828254039250508190555060075460026003600060086006548154811061151357fe5b90600052602060002090600f0201600201868154811061152f57fe5b9060005260206000200160009054906101000a900473ffffffffffffffffffffffffffffffffffffffff1673ffffffffffffffffffffffffffffffffffffffff1673ffffffffffffffffffffffffffffffffffffffff168152602001908152602001600020548154811061159f57fe5b90600052602060002090600502016004016000828254019250508190555050808060010191505061132e565b50505b50565b600f60205281600052604060002081815481106115ea57fe5b90600052602060002001600091509150505481565b60006002600360003373ffffffffffffffffffffffffffffffffffffffff1673ffffffffffffffffffffffffffffffffffffffff168152602001908152602001600020548154811061164d57fe5b906000526020600020906005020160030154146116b5576040517f08c379a0000000000000000000000000000000000000000000000000000000008152600401808060200182810382526021815260200180612d6d6021913960400191505060405180910390fd5b8460098460ff16600281106116c657fe5b6003020160010154023414611743576040517f08c379a00000000000000000000000000000000000000000000000000000000081526004018080602001828103825260188152602001807f496e636f7272656374205072656d69756d20416d6f756e74000000000000000081525060200191505060405180910390fd5b34600460008282540192505081905550346002600360003373ffffffffffffffffffffffffffffffffffffffff1673ffffffffffffffffffffffffffffffffffffffff16815260200190815260200160002054815481106117a057fe5b9060005260206000209060050201600401600082825403925050819055506000600880548091906001016117d491906129e5565b9050600f60003373ffffffffffffffffffffffffffffffffffffffff1673ffffffffffffffffffffffffffffffffffffffff16815260200190815260200160002081908060018154018082558091505090600182039060005260206000200160009091929091909150555060006008828154811061184e57fe5b90600052602060002090600f02019050338160010160006101000a81548173ffffffffffffffffffffffffffffffffffffffff021916908373ffffffffffffffffffffffffffffffffffffffff1602179055508660098660ff16600281106118b257fe5b6003020160010154028160040181905550828160060190805190602001906118db929190612a17565b50868160050181905550428160080181905550838160070181905550603c806018601e8702020202420181600901819055508660098660ff166002811061191e57fe5b60030201600201540281600a01819055508581600b01819055508481600c0160006101000a81548160ff021916908360ff160217905550600181600e0160006101000a81548160ff0219169083600381111561197657fe5b0217905550600081600e0160016101000a81548160ff0219169083600181111561199c57fe5b021790555050505050505050565b60026040518060a001604052808581526020018481526020013373ffffffffffffffffffffffffffffffffffffffff168152602001838152602001600081525090806001815401808255809150509060018203906000526020600020906005020160009091929091909150600082015181600001556020820151816001019080519060200190611a3b929190612a97565b5060408201518160020160006101000a81548173ffffffffffffffffffffffffffffffffffffffff021916908373ffffffffffffffffffffffffffffffffffffffff1602179055506060820151816003015560808201518160040155505050600160028054905003600360003373ffffffffffffffffffffffffffffffffffffffff1673ffffffffffffffffffffffffffffffffffffffff16815260200190815260200160002081905550505050565b6000600880549050905090565b60036020528060005260406000206000915090505481565b60098160028110611b1d57fe5b60030201600091509050806000018054600181600116156101000203166002900480601f016020809104026020016040519081016040528092919081815260200182805460018160011615610100020316600290048015611bbf5780601f10611b9457610100808354040283529160200191611bbf565b820191906000526020600020905b815481529060010190602001808311611ba257829003601f168201915b5050505050908060010154908060020154905083565b60075481565b6060600f60003373ffffffffffffffffffffffffffffffffffffffff1673ffffffffffffffffffffffffffffffffffffffff168152602001908152602001600020805480602002602001604051908101604052809291908181526020018280548015611c6657602002820191906000526020600020905b815481526020019060010190808311611c52575b5050505050905090565b60028181548110611c7d57fe5b9060005260206000209060050201600091509050806000015490806001018054600181600116156101000203166002900480601f016020809104026020016040519081016040528092919081815260200182805460018160011615610100020316600290048015611d2f5780601f10611d0457610100808354040283529160200191611d2f565b820191906000526020600020905b815481529060010190602001808311611d1257829003601f168201915b5050505050908060020160009054906101000a900473ffffffffffffffffffffffffffffffffffffffff16908060030154908060040154905085565b600080600090505b600280549050811015611e09573373ffffffffffffffffffffffffffffffffffffffff1660028281548110611da457fe5b906000526020600020906005020160020160009054906101000a900473ffffffffffffffffffffffffffffffffffffffff1673ffffffffffffffffffffffffffffffffffffffff161415611dfc576001915050611e0f565b8080600101915050611d73565b50600090505b90565b6000606080606080600080611e25612b17565b60088981548110611e3257fe5b90600052602060002090600f020160405180610200016040529081600082015481526020016001820160009054906101000a900473ffffffffffffffffffffffffffffffffffffffff1673ffffffffffffffffffffffffffffffffffffffff1673ffffffffffffffffffffffffffffffffffffffff16815260200160028201805480602002602001604051908101604052809291908181526020018280548015611f3157602002820191906000526020600020905b8160009054906101000a900473ffffffffffffffffffffffffffffffffffffffff1673ffffffffffffffffffffffffffffffffffffffff1681526020019060010190808311611ee7575b5050505050815260200160038201805480602002602001604051908101604052809291908181526020018280548015611f8957602002820191906000526020600020905b815481526020019060010190808311611f75575b505050505081526020016004820154815260200160058201548152602001600682018054600181600116156101000203166002900480601f01602080910402602001604051908101604052809291908181526020018280546001816001161561010002031660029004801561203f5780601f106120145761010080835404028352916020019161203f565b820191906000526020600020905b81548152906001019060200180831161202257829003601f168201915b50505050508152602001600782015481526020016008820154815260200160098201548152602001600a8201548152602001600b8201548152602001600c820160009054906101000a900460ff1660ff1660ff168152602001600d8201548152602001600e820160009054906101000a900460ff1660038111156120bf57fe5b60038111156120ca57fe5b8152602001600e820160019054906101000a900460ff1660018111156120ec57fe5b60018111156120f757fe5b8152505090506060600760405190808252806020026020018201604052801561212f5781602001602082028038833980820191505090505b509050898160008151811061214057fe5b60200260200101818152505081608001518160018151811061215e57fe5b6020026020010181815250508160a001518160028151811061217c57fe5b6020026020010181815250508161010001518160038151811061219b57fe5b602002602001018181525050816101200151816004815181106121ba57fe5b602002602001018181525050816101400151816005815181106121d957fe5b602002602001018181525050816101a00151816006815181106121f857fe5b6020026020010181815250508160200151826040015183606001518460c0015184866101800151876101e0015185955084945083935098509850985098509850985098505050919395979092949650565b60016020528060005260406000206000915054906101000a900473ffffffffffffffffffffffffffffffffffffffff1681565b60016002600360003373ffffffffffffffffffffffffffffffffffffffff1673ffffffffffffffffffffffffffffffffffffffff16815260200190815260200160002054815481106122ca57fe5b9060005260206000209060050201600301541461234f576040517f08c379a00000000000000000000000000000000000000000000000000000000081526004018080602001828103825260208152602001807f4f6e6c7920696e766573746f72732063616e2070726f76696465206d6f6e657981525060200191505060405180910390fd5b60006008828154811061235e57fe5b90600052602060002090600f0201905080600a01543411156123e8576040517f08c379a00000000000000000000000000000000000000000000000000000000081526004018080602001828103825260168152602001807f496e636f727265637420436f76657220416d6f756e740000000000000000000081525060200191505060405180910390fd5b600060018111156123f557fe5b81600e0160019054906101000a900460ff16600181111561241257fe5b14612485576040517f08c379a000000000000000000000000000000000000000000000000000000000815260040180806020018281038252601f8152602001807f20506f6c69637920697320636c6f7365642063616e6e6f7420636f766572200081525060200191505060405180910390fd5b80600a01543482600d0154011115612505576040517f08c379a000000000000000000000000000000000000000000000000000000000815260040180806020018281038252601a8152602001807f20436f76657261676520616d6f756e742065786365656465642000000000000081525060200191505060405180910390fd5b346002600360003373ffffffffffffffffffffffffffffffffffffffff1673ffffffffffffffffffffffffffffffffffffffff168152602001908152602001600020548154811061255257fe5b9060005260206000209060050201600401600082825403925050819055503460045401600481905550600f60003373ffffffffffffffffffffffffffffffffffffffff1673ffffffffffffffffffffffffffffffffffffffff168152602001908152602001600020829080600181540180825580915050906001820390600052602060002001600090919290919091505550806002013390806001815401808255809150509060018203906000526020600020016000909192909190916101000a81548173ffffffffffffffffffffffffffffffffffffffff021916908373ffffffffffffffffffffffffffffffffffffffff16021790555050806003013490806001815401808255809150509060018203906000526020600020016000909192909190915055503481600d016000828254019250508190555080600a015481600d015414156126c357600181600e0160016101000a81548160ff021916908360018111156126bd57fe5b02179055505b5050565b600881815481106126d457fe5b90600052602060002090600f02016000915090508060000154908060010160009054906101000a900473ffffffffffffffffffffffffffffffffffffffff1690806004015490806005015490806006018054600181600116156101000203166002900480601f0160208091040260200160405190810160405280929190818152602001828054600181600116156101000203166002900480156127b85780601f1061278d576101008083540402835291602001916127b8565b820191906000526020600020905b81548152906001019060200180831161279b57829003601f168201915b50505050509080600701549080600801549080600901549080600a01549080600b01549080600c0160009054906101000a900460ff169080600d01549080600e0160009054906101000a900460ff169080600e0160019054906101000a900460ff1690508e565b6000606060006002600360003373ffffffffffffffffffffffffffffffffffffffff1673ffffffffffffffffffffffffffffffffffffffff168152602001908152602001600020548154811061287157fe5b9060005260206000209060050201600001546002600360003373ffffffffffffffffffffffffffffffffffffffff1673ffffffffffffffffffffffffffffffffffffffff16815260200190815260200160002054815481106128cf57fe5b90600052602060002090600502016001016002600360003373ffffffffffffffffffffffffffffffffffffffff1673ffffffffffffffffffffffffffffffffffffffff168152602001908152602001600020548154811061292c57fe5b906000526020600020906005020160030154818054600181600116156101000203166002900480601f0160208091040260200160405190810160405280929190818152602001828054600181600116156101000203166002900480156129d35780601f106129a8576101008083540402835291602001916129d3565b820191906000526020600020905b8154815290600101906020018083116129b657829003601f168201915b50505050509150925092509250909192565b815481835581811115612a1257600f0281600f028360005260206000209182019101612a119190612bc3565b5b505050565b828054600181600116156101000203166002900490600052602060002090601f016020900481019282601f10612a5857805160ff1916838001178555612a86565b82800160010185558215612a86579182015b82811115612a85578251825591602001919060010190612a6a565b5b509050612a939190612cbd565b5090565b828054600181600116156101000203166002900490600052602060002090601f016020900481019282601f10612ad857805160ff1916838001178555612b06565b82800160010185558215612b06579182015b82811115612b05578251825591602001919060010190612aea565b5b509050612b139190612cbd565b5090565b60405180610200016040528060008152602001600073ffffffffffffffffffffffffffffffffffffffff16815260200160608152602001606081526020016000815260200160008152602001606081526020016000815260200160008152602001600081526020016000815260200160008152602001600060ff1681526020016000815260200160006003811115612bab57fe5b815260200160006001811115612bbd57fe5b81525090565b612cba91905b80821115612cb6576000808201600090556001820160006101000a81549073ffffffffffffffffffffffffffffffffffffffff0219169055600282016000612c119190612ce2565b600382016000612c219190612d03565b60048201600090556005820160009055600682016000612c419190612d24565b600782016000905560088201600090556009820160009055600a820160009055600b820160009055600c820160006101000a81549060ff0219169055600d820160009055600e820160006101000a81549060ff0219169055600e820160016101000a81549060ff021916905550600f01612bc9565b5090565b90565b612cdf91905b80821115612cdb576000816000905550600101612cc3565b5090565b90565b5080546000825590600052602060002090810190612d009190612cbd565b50565b5080546000825590600052602060002090810190612d219190612cbd565b50565b50805460018160011615610100020316600290046000825580601f10612d4a5750612d69565b601f016020900490600052602060002090810190612d689190612cbd565b5b5056fe4f6e6c79206661726d65722063616e206d616b652061206e657720706f6c696379436f76657261676520416d6f756e74206973206e6f742066756c6c66696c6c6564a265627a7a72315820b56a67f69e81c53ed2acaea06919251381d29f269e467ca14a336d9337c096ee64736f6c63430005100032353030302077656920696e697469616c2066756e64696e67207265717569726564",
  "source": "pragma solidity >=0.4.24;\r\n\r\ncontract genz {\r\n    \r\n    struct Details{\r\n        uint aadhaar;\r\n        string name;\r\n        address id;\r\n        uint role;\r\n        int bal;\r\n    }\r\n\r\n    mapping (address => address) public request;\r\n    mapping (address => address) public auth;\r\n    \r\n    Details [] public details; // array of all the people registered\r\n    mapping (address => uint) public deets; // map address to id in the array\r\n\r\n    // function to register the person \r\n    function _register(uint aadhaar, string memory name, uint role) public {\r\n        details.push(Details(aadhaar,name, msg.sender, role, 0)) ;\r\n        deets[msg.sender]=details.length-1;\r\n    }\r\n    \r\n    struct cropType{\r\n        string name;\r\n        uint premiumPerAcre;    //in wei\r\n        uint coveragePerAcre;   //in wei\r\n    }\r\n    \r\n    struct policy {\r\n        uint policyId;\r\n        address payable user; // farmer address\r\n        address payable [] cover; // array of all investors\r\n        uint [] amtCover; // array of cover paid by each investor\r\n        uint premium;\r\n        uint area;\r\n        string location;\r\n        uint duration;\r\n        uint startTime;\r\n        uint endTime;         //crop's season dependent\r\n        uint coverageAmount;  //depends on crop type\r\n        uint forFlood;\r\n        uint8 cropId;\r\n        uint policySum; // current cover generated by policy \r\n        policyState state; // see if the policy is still available or not \r\n        status st; // determine if the policy is closed or not \r\n    }\r\n    \r\n    enum policyState {Pending, Active, PaidOut, TimedOut}\r\n    enum status {Open,Close}\r\n    \r\n    uint private balance; // holds the amount in the risk pool \r\n    uint private result = 1;\r\n    uint private claimPolicyId;\r\n    uint public payoutAmount;\r\n    \r\n    policy[] public policies; // holds all the policies\r\n    cropType[2] public cropTypes; //crops defined in constructor\r\n    mapping(address => uint[]) public userPolicies;  //user address to array of policy IDs\r\n    \r\n    constructor()\r\n    public payable\r\n    {\r\n        require(msg.value == 5000 wei, \"5000 wei initial funding required\");\r\n        \r\n        newCrop(0, \"rabi\", 1,  7);\r\n        newCrop(1, \"kharif\", 2,  10);\r\n        balance+=msg.value;\r\n    }\r\n    \r\n    function newCrop(uint8 _cropId,string memory _name, uint _premiumPerAcre, uint _coveragePerAcre) internal {\r\n        cropType memory c = cropType(_name, _premiumPerAcre, _coveragePerAcre);\r\n        cropTypes[_cropId] = c;\r\n    }\r\n    \r\n    function newPolicy ( uint _area, uint _forFlood, uint8 _cropId, uint _duration, string memory _location) public payable{\r\n        require(details[deets[msg.sender]].role == 0, \"Only farmer can make a new policy\");\r\n        require(msg.value == (cropTypes[_cropId].premiumPerAcre * _area),\"Incorrect Premium Amount\");\r\n        \r\n        balance += msg.value; // update risk pool balance\r\n        details[deets[msg.sender]].bal -= int(msg.value); // update user balance\r\n\r\n        uint pId = policies.length++;\r\n        userPolicies[msg.sender].push(pId);\r\n        policy storage p = policies[pId]; // store the policy in an array\r\n\r\n        p.user = msg.sender;\r\n        p.premium = cropTypes[_cropId].premiumPerAcre * _area;\r\n        p.location = _location;\r\n        p.area = _area;\r\n        p.startTime = now;\r\n        p.duration = _duration;\r\n        p.endTime = now + _duration * 30*24*60*60;  //converting months to seconds\r\n        p.coverageAmount = cropTypes[_cropId].coveragePerAcre * _area;\r\n        p.forFlood = _forFlood;\r\n        p.cropId = _cropId;\r\n        p.state = policyState.Active;\r\n        p.st = status.Open;\r\n    }\r\n    \r\n    function coverForPolicy(uint _policyId) external payable{\r\n        require(details[deets[msg.sender]].role == 1, \"Only investors can provide money\");\r\n        \r\n        policy storage p = policies[_policyId];\r\n        require(msg.value <= p.coverageAmount,\"Incorrect Cover Amount\");\r\n        require(p.st == status.Open, \" Policy is closed cannot cover \");\r\n        require(p.policySum + msg.value <= p.coverageAmount, \" Coverage amount exceeded \");\r\n        \r\n        details[deets[msg.sender]].bal -= int(msg.value);\r\n        balance = balance + msg.value;\r\n        userPolicies[msg.sender].push(_policyId);\r\n        p.cover.push(msg.sender);\r\n        p.amtCover.push(msg.value);\r\n        p.policySum += msg.value;\r\n        \r\n        if (p.policySum == p.coverageAmount){\r\n            p.st = status.Close;\r\n        }\r\n    }\r\n    \r\n    function claim(uint _policyId) public {\r\n        require(msg.sender == policies[_policyId].user, \"User Not Authorized\");\r\n        require(policies[_policyId].state == policyState.Active, \"Policy Not Active\");\r\n        require(policies[_policyId].st == status.Close, \"Coverage Amount is not fullfilled\");\r\n\r\n        if(now > policies[_policyId].endTime)\r\n        {\r\n            policies[_policyId].state = policyState.TimedOut;\r\n            revert(\"Policy's period has Ended.\");\r\n        }\r\n        \r\n        claimPolicyId = _policyId;\r\n        \r\n        /* TODO check weather condition over here TODO*/\r\n        \r\n        // check condition and accordingly pay \r\n        if(result==0){\r\n            payoutAmount = uint(policies[claimPolicyId].coverageAmount);\r\n            policies[claimPolicyId].user.transfer(payoutAmount);\r\n            policies[claimPolicyId].state = policyState.PaidOut;\r\n            balance-=payoutAmount;\r\n            details[deets[policies[claimPolicyId].user]].bal += int(payoutAmount);\r\n        }\r\n        else{\r\n            uint x = sum(policies[claimPolicyId].amtCover);\r\n            \r\n            for (uint i=0; i<policies[claimPolicyId].cover.length; i++){\r\n                uint ratio = uint((policies[claimPolicyId].amtCover[i]) * 100)/uint(x);\r\n                payoutAmount = uint( policies[claimPolicyId].premium * ratio/100 ) + uint(policies[claimPolicyId].amtCover[i]);\r\n                policies[claimPolicyId].cover[i].transfer(payoutAmount);\r\n                policies[claimPolicyId].state = policyState.PaidOut;\r\n                balance-=payoutAmount;\r\n                details[deets[policies[claimPolicyId].cover[i]]].bal += int(payoutAmount);\r\n            }\r\n        }\r\n    }\r\n    \r\n    function sum(uint [] memory x) public pure returns(uint){\r\n        uint s = 0;\r\n        for ( uint i = 0; i<x.length; i++){\r\n            s += x[i];\r\n        }\r\n        return s;\r\n    }\r\n    \r\n    // function returns the details of the person calling the function\r\n    function getDetails() public view returns (uint, string memory, uint) {\r\n        return (details[deets[msg.sender]].aadhaar, details[deets[msg.sender]].name, details[deets[msg.sender]].role );\r\n    }\r\n    \r\n    // function to get the balance of the user \r\n    function getBalanceUser() public view returns(int){\r\n        return details[deets[msg.sender]].bal;\r\n    }\r\n    \r\n    // function to get the balance of the smart contract\r\n    function getBalance() public view returns(uint){\r\n        return balance;\r\n    }\r\n    \r\n    // function to get all policy of a user\r\n    function getPolicyUser() public view returns(uint[] memory){\r\n        return userPolicies[msg.sender];\r\n    }\r\n    \r\n    // function to get policy details of a particular id\r\n    // function to get policy details of a particular id\r\n    function getPolicyDetails(uint _policyId) public view returns(address payable,address payable[] memory,uint[] memory,string memory,uint[] memory,uint8,status){\r\n        policy memory p = policies[_policyId];\r\n        uint[] memory a = new uint[](7);\r\n        a[0] = _policyId;\r\n        a[1] = (p.premium);\r\n        a[2] = (p.area);\r\n        a[3] = (p.startTime);\r\n        a[4] = (p.endTime);\r\n        a[5] = (p.coverageAmount);\r\n        a[6] = (p.policySum);\r\n        return (p.user,p.cover,p.amtCover,p.location,a,p.cropId,p.st);\r\n    }\r\n\r\n    function getPolicyLength() public view returns(uint){\r\n        return policies.length;\r\n    }\r\n\r\n\r\n    function login() public view returns(uint){\r\n        for (uint i=0; i<details.length; i++){\r\n            if(details[i].id == msg.sender){\r\n                return 1;\r\n            }\r\n        }\r\n        return 0;\r\n    }\r\n    \r\n    // function to request the farmer to view his details\r\n    /*function requestFarmer(address farmerAddress) public {\r\n        // find farmer address using his aadhaar\r\n        require(details[deets[farmerAddress]].role == 0);\r\n        require(details[deets[msg.sender]].role == 1);\r\n        request[farmerAddress] = msg.sender; \r\n    }\r\n\r\n    // called by farmer to authorize an invesotr to view his detials \r\n    function approveInvestor() public returns (uint, string memory, uint){\r\n        \r\n        require(details[deets[msg.sender]].role == 0);\r\n        address investorAddress = request[msg.sender];\r\n        auth[msg.sender] = investorAddress;\r\n\r\n        return (details[deets[msg.sender]].aadhaar, details[deets[msg.sender]].name, details[deets[msg.sender]].role );\r\n\r\n    }*/\r\n}",
  "sourcePath": "D:/major_project/genz2/contracts/genz.sol",
  "compiler": {
    "name": "solc",
    "version": "0.5.16+commit.9c3226ce.Emscripten.clang"
  },
  "schemaVersion": "3.3.0",
  "updatedAt": "2020-10-21T20:25:39.996Z",
  "networkType": "ethereum",
  "devdoc": {
    "methods": {}
  },
  "userdoc": {
    "methods": {}
  }
}