{
  "contractName": "kyc",
  "abi": [
    {
      "constant": true,
      "inputs": [
        {
          "internalType": "address",
          "name": "",
          "type": "address"
        }
      ],
      "name": "auth",
      "outputs": [
        {
          "internalType": "address",
          "name": "",
          "type": "address"
        }
      ],
      "payable": false,
      "stateMutability": "view",
      "type": "function"
    },
    {
      "constant": true,
      "inputs": [
        {
          "internalType": "address",
          "name": "",
          "type": "address"
        }
      ],
      "name": "deets",
      "outputs": [
        {
          "internalType": "uint256",
          "name": "",
          "type": "uint256"
        }
      ],
      "payable": false,
      "stateMutability": "view",
      "type": "function"
    },
    {
      "constant": true,
      "inputs": [
        {
          "internalType": "uint256",
          "name": "",
          "type": "uint256"
        }
      ],
      "name": "details",
      "outputs": [
        {
          "internalType": "uint256",
          "name": "aadhaar",
          "type": "uint256"
        },
        {
          "internalType": "string",
          "name": "name",
          "type": "string"
        },
        {
          "internalType": "address",
          "name": "id",
          "type": "address"
        },
        {
          "internalType": "uint256",
          "name": "role",
          "type": "uint256"
        }
      ],
      "payable": false,
      "stateMutability": "view",
      "type": "function"
    },
    {
      "constant": true,
      "inputs": [
        {
          "internalType": "address",
          "name": "",
          "type": "address"
        }
      ],
      "name": "request",
      "outputs": [
        {
          "internalType": "address",
          "name": "",
          "type": "address"
        }
      ],
      "payable": false,
      "stateMutability": "view",
      "type": "function"
    },
    {
      "constant": false,
      "inputs": [
        {
          "internalType": "uint256",
          "name": "aadhaar",
          "type": "uint256"
        },
        {
          "internalType": "string",
          "name": "name",
          "type": "string"
        },
        {
          "internalType": "uint256",
          "name": "role",
          "type": "uint256"
        }
      ],
      "name": "_register",
      "outputs": [],
      "payable": false,
      "stateMutability": "nonpayable",
      "type": "function"
    },
    {
      "constant": true,
      "inputs": [],
      "name": "getDetails",
      "outputs": [
        {
          "internalType": "uint256",
          "name": "",
          "type": "uint256"
        },
        {
          "internalType": "string",
          "name": "",
          "type": "string"
        },
        {
          "internalType": "uint256",
          "name": "",
          "type": "uint256"
        }
      ],
      "payable": false,
      "stateMutability": "view",
      "type": "function"
    },
    {
      "constant": false,
      "inputs": [
        {
          "internalType": "address",
          "name": "farmerAddress",
          "type": "address"
        }
      ],
      "name": "requestFarmer",
      "outputs": [],
      "payable": false,
      "stateMutability": "nonpayable",
      "type": "function"
    },
    {
      "constant": false,
      "inputs": [],
      "name": "approveInvestor",
      "outputs": [
        {
          "internalType": "uint256",
          "name": "",
          "type": "uint256"
        },
        {
          "internalType": "string",
          "name": "",
          "type": "string"
        },
        {
          "internalType": "uint256",
          "name": "",
          "type": "uint256"
        }
      ],
      "payable": false,
      "stateMutability": "nonpayable",
      "type": "function"
    }
  ],
  "bytecode": "0x608060405234801561001057600080fd5b50610eb2806100206000396000f3fe608060405234801561001057600080fd5b50600436106100885760003560e01c806356634caa1161005b57806356634caa146102b5578063a005ec7a1461030d578063cd5d2118146103f5578063fbbf93a01461047957610088565b8063134dc69e1461008d57806327c78c421461011e57806343fd94a7146101a257806349c2589a14610271575b600080fd5b61009561050a565b6040518084815260200180602001838152602001828103825284818151815260200191508051906020019080838360005b838110156100e15780820151818401526020810190506100c6565b50505050905090810190601f16801561010e5780820380516001836020036101000a031916815260200191505b5094505050505060405180910390f35b6101606004803603602081101561013457600080fd5b81019080803573ffffffffffffffffffffffffffffffffffffffff16906020019092919050505061081b565b604051808273ffffffffffffffffffffffffffffffffffffffff1673ffffffffffffffffffffffffffffffffffffffff16815260200191505060405180910390f35b61026f600480360360608110156101b857600080fd5b8101908080359060200190929190803590602001906401000000008111156101df57600080fd5b8201836020820111156101f157600080fd5b8035906020019184600183028401116401000000008311171561021357600080fd5b91908080601f016020809104026020016040519081016040528093929190818152602001838380828437600081840152601f19601f8201169050808301925050505050505091929192908035906020019092919050505061084e565b005b6102b36004803603602081101561028757600080fd5b81019080803573ffffffffffffffffffffffffffffffffffffffff16906020019092919050505061097e565b005b6102f7600480360360208110156102cb57600080fd5b81019080803573ffffffffffffffffffffffffffffffffffffffff169060200190929190505050610ad2565b6040518082815260200191505060405180910390f35b6103396004803603602081101561032357600080fd5b8101908080359060200190929190505050610aea565b60405180858152602001806020018473ffffffffffffffffffffffffffffffffffffffff1673ffffffffffffffffffffffffffffffffffffffff168152602001838152602001828103825285818151815260200191508051906020019080838360005b838110156103b757808201518184015260208101905061039c565b50505050905090810190601f1680156103e45780820380516001836020036101000a031916815260200191505b509550505050505060405180910390f35b6104376004803603602081101561040b57600080fd5b81019080803573ffffffffffffffffffffffffffffffffffffffff169060200190929190505050610bdf565b604051808273ffffffffffffffffffffffffffffffffffffffff1673ffffffffffffffffffffffffffffffffffffffff16815260200191505060405180910390f35b610481610c12565b6040518084815260200180602001838152602001828103825284818151815260200191508051906020019080838360005b838110156104cd5780820151818401526020810190506104b2565b50505050905090810190601f1680156104fa5780820380516001836020036101000a031916815260200191505b5094505050505060405180910390f35b600060606000806002600360003373ffffffffffffffffffffffffffffffffffffffff1673ffffffffffffffffffffffffffffffffffffffff168152602001908152602001600020548154811061055d57fe5b9060005260206000209060040201600301541461057957600080fd5b60008060003373ffffffffffffffffffffffffffffffffffffffff1673ffffffffffffffffffffffffffffffffffffffff16815260200190815260200160002060009054906101000a900473ffffffffffffffffffffffffffffffffffffffff16905080600160003373ffffffffffffffffffffffffffffffffffffffff1673ffffffffffffffffffffffffffffffffffffffff16815260200190815260200160002060006101000a81548173ffffffffffffffffffffffffffffffffffffffff021916908373ffffffffffffffffffffffffffffffffffffffff1602179055506002600360003373ffffffffffffffffffffffffffffffffffffffff1673ffffffffffffffffffffffffffffffffffffffff16815260200190815260200160002054815481106106a657fe5b9060005260206000209060040201600001546002600360003373ffffffffffffffffffffffffffffffffffffffff1673ffffffffffffffffffffffffffffffffffffffff168152602001908152602001600020548154811061070457fe5b90600052602060002090600402016001016002600360003373ffffffffffffffffffffffffffffffffffffffff1673ffffffffffffffffffffffffffffffffffffffff168152602001908152602001600020548154811061076157fe5b906000526020600020906004020160030154818054600181600116156101000203166002900480601f0160208091040260200160405190810160405280929190818152602001828054600181600116156101000203166002900480156108085780601f106107dd57610100808354040283529160200191610808565b820191906000526020600020905b8154815290600101906020018083116107eb57829003601f168201915b5050505050915093509350935050909192565b60006020528060005260406000206000915054906101000a900473ffffffffffffffffffffffffffffffffffffffff1681565b600260405180608001604052808581526020018481526020013373ffffffffffffffffffffffffffffffffffffffff16815260200183815250908060018154018082558091505090600182039060005260206000209060040201600090919290919091506000820151816000015560208201518160010190805190602001906108d8929190610dd8565b5060408201518160020160006101000a81548173ffffffffffffffffffffffffffffffffffffffff021916908373ffffffffffffffffffffffffffffffffffffffff16021790555060608201518160030155505050600160028054905003600360003373ffffffffffffffffffffffffffffffffffffffff1673ffffffffffffffffffffffffffffffffffffffff16815260200190815260200160002081905550505050565b60006002600360008473ffffffffffffffffffffffffffffffffffffffff1673ffffffffffffffffffffffffffffffffffffffff16815260200190815260200160002054815481106109cc57fe5b906000526020600020906004020160030154146109e857600080fd5b60016002600360003373ffffffffffffffffffffffffffffffffffffffff1673ffffffffffffffffffffffffffffffffffffffff1681526020019081526020016000205481548110610a3657fe5b90600052602060002090600402016003015414610a5257600080fd5b336000808373ffffffffffffffffffffffffffffffffffffffff1673ffffffffffffffffffffffffffffffffffffffff16815260200190815260200160002060006101000a81548173ffffffffffffffffffffffffffffffffffffffff021916908373ffffffffffffffffffffffffffffffffffffffff16021790555050565b60036020528060005260406000206000915090505481565b60028181548110610af757fe5b9060005260206000209060040201600091509050806000015490806001018054600181600116156101000203166002900480601f016020809104026020016040519081016040528092919081815260200182805460018160011615610100020316600290048015610ba95780601f10610b7e57610100808354040283529160200191610ba9565b820191906000526020600020905b815481529060010190602001808311610b8c57829003601f168201915b5050505050908060020160009054906101000a900473ffffffffffffffffffffffffffffffffffffffff16908060030154905084565b60016020528060005260406000206000915054906101000a900473ffffffffffffffffffffffffffffffffffffffff1681565b6000606060006002600360003373ffffffffffffffffffffffffffffffffffffffff1673ffffffffffffffffffffffffffffffffffffffff1681526020019081526020016000205481548110610c6457fe5b9060005260206000209060040201600001546002600360003373ffffffffffffffffffffffffffffffffffffffff1673ffffffffffffffffffffffffffffffffffffffff1681526020019081526020016000205481548110610cc257fe5b90600052602060002090600402016001016002600360003373ffffffffffffffffffffffffffffffffffffffff1673ffffffffffffffffffffffffffffffffffffffff1681526020019081526020016000205481548110610d1f57fe5b906000526020600020906004020160030154818054600181600116156101000203166002900480601f016020809104026020016040519081016040528092919081815260200182805460018160011615610100020316600290048015610dc65780601f10610d9b57610100808354040283529160200191610dc6565b820191906000526020600020905b815481529060010190602001808311610da957829003601f168201915b50505050509150925092509250909192565b828054600181600116156101000203166002900490600052602060002090601f016020900481019282601f10610e1957805160ff1916838001178555610e47565b82800160010185558215610e47579182015b82811115610e46578251825591602001919060010190610e2b565b5b509050610e549190610e58565b5090565b610e7a91905b80821115610e76576000816000905550600101610e5e565b5090565b9056fea265627a7a7231582030770bdf9c978ce7cdf650502506b2284092f8c99d18136c7d2a4a22c890a48b64736f6c63430005100032",
  "source": "pragma solidity >=0.4.22 <0.8.0;\r\n\r\ncontract kyc{\r\n    struct Details{\r\n        uint aadhaar;\r\n        string name;\r\n        address id;\r\n        uint role;\r\n    }\r\n\r\n    mapping (address => address) public request;\r\n    mapping (address => address) public auth;\r\n    Details [] public details;\r\n    mapping (address => uint) public deets;\r\n\r\n    function _register(uint aadhaar, string memory name, uint role) public {\r\n        details.push(Details(aadhaar,name, msg.sender, role)) ;\r\n        deets[msg.sender]=details.length-1;\r\n    }\r\n\r\n    function getDetails() public view returns (uint, string memory, uint) {\r\n        return (details[deets[msg.sender]].aadhaar, details[deets[msg.sender]].name, details[deets[msg.sender]].role );\r\n    }\r\n    \r\n    function requestFarmer(address farmerAddress) public {\r\n        // find farmer address using his aadhaar\r\n        require(details[deets[farmerAddress]].role == 0);\r\n        require(details[deets[msg.sender]].role == 1);\r\n        request[farmerAddress] = msg.sender; \r\n    }\r\n\r\n    function approveInvestor() public returns (uint, string memory, uint){\r\n        \r\n        require(details[deets[msg.sender]].role == 0);\r\n        address investorAddress = request[msg.sender];\r\n        auth[msg.sender] = investorAddress;\r\n\r\n        return (details[deets[msg.sender]].aadhaar, details[deets[msg.sender]].name, details[deets[msg.sender]].role );\r\n\r\n    }\r\n}",
  "sourcePath": "C:/major_project/genz2/contracts/kyc.sol",
  "compiler": {
    "name": "solc",
    "version": "0.5.16+commit.9c3226ce.Emscripten.clang"
  },
  "schemaVersion": "3.2.4",
  "updatedAt": "2020-09-09T17:42:36.817Z",
  "networkType": "ethereum",
  "devdoc": {
    "methods": {}
  },
  "userdoc": {
    "methods": {}
  }
}